:020000040800F2
:10000000180A002085290008E5290008E5290008CC
:10001000E5290008E5290008E5290008000000009E
:10002000000000000000000000000000E5290008BA
:10003000E529000800000000E5290008092900085A
:10004000E5290008E5290008E5290008E529000858
:10005000E5290008E5290008E5290008E529000848
:10006000E5290008E5290008E5290008E529000838
:10007000E5290008E5290008E5290008E529000828
:10008000E5290008E5290008E5290008E529000818
:10009000E5290008E5290008E5290008E529000808
:1000A000E5290008E5290008E5290008E5290008F8
:1000B000E5290008E5290008E5290008E5290008E8
:1000C000E5290008E5290008E5290008E5290008D8
:1000D000E5290008E5290008E5290008E5290008C8
:1000E000E5290008E5290008E529000800000000CE
:1000F0000000000000000000000000000000000000
:1001000000000000000000005FF808F180B582B038
:1001100000AF78607A68914B9A420CD14FF400603E
:100120004FF0010104F068F84FF400604FF0000157
:1001300004F062F80EE17B68B3F1804F0CD14FF010
:1001400001004FF0010104F079F84FF001004FF089
:10015000000104F073F8FDE07A68814B9A420CD1FB
:100160004FF002004FF0010104F068F84FF0020078
:100170004FF0000104F062F8ECE07A68794B9A42A3
:100180000CD14FF004004FF0010104F057F84FF08C
:1001900004004FF0000104F051F8DBE07A68724B84
:1001A0009A420CD14FF008004FF0010104F046F8DC
:1001B0004FF008004FF0000104F040F8CAE07A6800
:1001C0006A4B9A420CD14FF010004FF0010104F03D
:1001D00035F84FF010004FF0000104F02FF8B9E0AF
:1001E0007A68634B9A420CD14FF020004FF0010126
:1001F00004F024F84FF020004FF0000104F01EF846
:10020000A8E07A685B4B9A420CD14FF400504FF053
:10021000010103F0F1FF4FF400504FF0000103F033
:10022000EBFF97E07A68544B9A420CD14FF40020D0
:100230004FF0010103F0E0FF4FF400204FF0000108
:1002400003F0DAFF86E07A684C4B9A420CD14FF407
:1002500080104FF0010103F0CFFF4FF480104FF0FA
:10026000000103F0C9FF75E07A68454B9A420CD152
:100270004FF400104FF0010103F0BEFF4FF40010E7
:100280004FF0000103F0B8FF64E07A683D4B9A42FA
:100290000CD14FF040004FF0010103F0CFFF4FF0C1
:1002A00040004FF0000103F0C9FF53E07A68364B7D
:1002B0009A420CD14FF080004FF0010103F0BEFFD5
:1002C0004FF080004FF0000103F0B8FF42E07A6881
:1002D0002E4B9A420CD14FF480704FF0010103F085
:1002E000ADFF4FF480704FF0000103F0A7FF31E045
:1002F0007A68274B9A420CD14FF480304FF00101BD
:1003000003F07AFF4FF480304FF0000103F074FFE8
:1003100020E07A681F4B9A420CD14FF400304FF026
:10032000010103F069FF4FF400304FF0000103F0CA
:1003300063FF0FE07A68184B9A420BD14FF480208C
:100340004FF0010103F058FF4FF480204FF00001FF
:1003500003F052FF07F10807BD4680BD002C0140A5
:100360000004004000080040000C00400010004065
:100370000014004000340140004C01400050014096
:100380000054014000180040001C004000200040C4
:1003900000400140004401400048014080B485B065
:1003A00000AF786039604FF00003FB817B681B88E9
:1003B000FB817A682F4B9A4213D07A682E4B9A426F
:1003C0000FD07B68B3F1804F0BD07A682B4B9A42E9
:1003D00007D07A682A4B9A4203D07A68294B9A420E
:1003E00009D1FB8923F07003FB813B685A88FB89A4
:1003F00042EA0303FB817A68234B9A420DD07A6864
:10040000224B9A4209D0FB8923F44073FB813B685D
:10041000DA88FB8942EA0303FB817B68FA891A8048
:100420003B689A887B689A853B681A887B681A853E
:100430007A68104B9A420FD07A680F4B9A420BD0D1
:100440007A68134B9A4207D07A68124B9A4203D0CB
:100450007A68114B9A4204D13B681B7A1A467B6832
:100460001A867B684FF001029A8207F11407BD4695
:1004700080BC7047002C0140003401400004004063
:1004800000080040000C0040001000400014004034
:1004900000400140004401400048014080B485B064
:1004A00000AF786039604FF000037B814FF00003AC
:1004B000FB814FF00003BB817B681B8C9BB223F058
:1004C00001039AB27B681A847B681B8CFB817B6872
:1004D0009B88BB817B681B8B7B817B8923F07003AE
:1004E0007B817B8923F003037B813B681A887B89AE
:1004F00042EA03037B81FB8923F00203FB813B6813
:100500001A89FB8942EA0303FB813B685A88FB890D
:1005100042EA0303FB817A68264B9A420FD07A683D
:10052000254B9A420BD07A68244B9A4207D07A68BE
:10053000234B9A4203D07A68224B9A4227D1FB89F7
:1005400023F00803FB813B685A89FB8942EA0303D5
:10055000FB81FB8923F00403FB813B689A88FB89BC
:1005600042EA0303FB81BB8923F48073BB81BB890F
:1005700023F40073BB813B689A89BB8942EA030379
:10058000BB813B68DA89BB8942EA0303BB817B6894
:10059000BA899A807B687A891A833B68DA887B6893
:1005A0009A867B68FA891A8407F11407BD4680BCD5
:1005B000704700BF002C0140003401400040014062
:1005C000004401400048014080B485B000AF78602D
:1005D00039604FF000037B814FF00003FB814FF047
:1005E0000003BB817B681B8C9BB223F010039AB283
:1005F0007B681A847B681B8CFB817B689B88BB8132
:100600007B681B8B7B817B8923F4E0437B817B8927
:1006100023F440737B813B681B884FEA03239AB223
:100620007B8942EA03037B81FB8923F02003FB8162
:100630003B681B894FEA03139AB2FB8942EA030322
:10064000FB813B685B884FEA03139AB2FB8942EA5D
:100650000303FB817A68264B9A4203D07A68254BC4
:100660009A4233D1FB8923F08003FB813B685B898D
:100670004FEA03139AB2FB8942EA0303FB81FB8929
:1006800023F04003FB813B689B884FEA03139AB237
:10069000FB8942EA0303FB81BB8923F48063BB81AE
:1006A000BB8923F40063BB813B689B894FEA8303CA
:1006B0009AB2BB8942EA0303BB813B68DB894FEAFC
:1006C00083039AB2BB8942EA0303BB817B68BA8980
:1006D0009A807B687A891A833B68DA887B681A87F4
:1006E0007B68FA891A8407F11407BD4680BC7047FD
:1006F000002C01400034014080B485B000AF786028
:1007000039604FF000037B814FF00003FB814FF015
:100710000003BB817B681B8C9BB223F480739AB26D
:100720007B681A847B681B8CFB817B689B88BB8100
:100730007B689B8B7B817B8923F070037B817B892A
:1007400023F003037B813B681A887B8942EA030319
:100750007B81FB8923F40073FB813B681B894FEA93
:1007600003239AB2FB8942EA0303FB813B685B885F
:100770004FEA03239AB2FB8942EA0303FB817A68BA
:10078000264B9A4203D07A68254B9A4233D1FB8993
:1007900023F40063FB813B685B894FEA03239AB231
:1007A000FB8942EA0303FB81FB8923F48063FB811D
:1007B0003B689B884FEA03239AB2FB8942EA030312
:1007C000FB81BB8923F48053BB81BB8923F4005395
:1007D000BB813B689B894FEA03139AB2BB8942EA0B
:1007E0000303BB813B68DB894FEA03139AB2BB89E1
:1007F00042EA0303BB817B68BA899A807B687A8965
:100800009A833B68DA887B689A877B68FA891A84BE
:1008100007F11407BD4680BC704700BF002C0140A3
:100820000034014080B485B000AF786039604FF08B
:100830000003BB814FF000037B814FF00003FB817D
:100840007B681B8C9BB223F480539AB27B681A841A
:100850007B681B8C7B817B689B88FB817B689B8B87
:10086000BB81BB8923F4E043BB81BB8923F4407384
:10087000BB813B681B884FEA03239AB2BB8942EADB
:100880000303BB817B8923F400537B813B681B8975
:100890004FEA03339AB27B8942EA03037B813B68C8
:1008A0005B884FEA03339AB27B8942EA03037B8178
:1008B0007A68134B9A4203D07A68124B9A420CD151
:1008C000FB8923F48043FB813B689B894FEA8313B8
:1008D0009AB2FB8942EA0303FB817B68FA899A801A
:1008E0007B68BA899A833B68DA887B68A3F84020E2
:1008F0007B687A891A8407F11407BD4680BC70476B
:10090000002C01400034014080B582B000AF786017
:1009100039603B681B88002B0FD13B6859883B68C6
:100920009A883B681B89786801F00AFA3B68DB8883
:100930007868194601F0A6F836E03B681B88042B5E
:100940000FD13B6859883B689A883B681B89786857
:1009500001F068FA3B68DB887868194601F0AEF868
:1009600022E03B681B88082B0FD13B6859883B6805
:100970009A883B681B89786801F0D4FA3B68DB8869
:100980007868194601F0BAF80EE03B6859883B6870
:100990009A883B681B89786801F03CFB3B68DB88E0
:1009A0007868194601F0C6F807F10807BD4680BD12
:1009B00080B584B000AF786039604FF00003FB81F0
:1009C0004FF00103BB813B685B88002B03D14FF0E4
:1009D0000203FB8102E04FF00003FB813B689B8830
:1009E000012B03D14FF00203BB8102E04FF0010362
:1009F000BB813B681B88002B1CD13B6859883B6836
:100A00009A883B681B89786801F09AF93B68DB8813
:100A10007868194601F036F83B681B89F989BA896C
:100A2000786801F0FFF93B68DB887868194601F0C7
:100A300045F81BE03B6859883B689A883B681B89EE
:100A4000786801F0EFF93B68DB887868194601F0B7
:100A500035F83B681B89F989BA89786801F070F923
:100A60003B68DB887868194601F00CF807F110073D
:100A7000BD4680BD80B483B000AF786039603B680C
:100A80001A883B685B8842EA03039AB23B689B88FA
:100A900042EA03039AB23B68DB8842EA03039AB254
:100AA0003B681B8942EA03039AB23B685B8942EACE
:100AB00003039AB23B689B8942EA03039AB27B68BC
:100AC000A3F8442007F10C07BD4680BC704700BF67
:100AD00080B483B000AF78607B684FF6FF729A8075
:100AE0007B684FF000021A807B684FF00002DA80CA
:100AF0007B684FF000025A807B684FF000021A7248
:100B000007F10C07BD4680BC704700BF80B483B0BE
:100B100000AF78607B684FF000021A807B684FF06E
:100B200000025A807B684FF000029A807B684FF089
:100B30000002DA807B684FF000021A817B684FF078
:100B400000025A817B684FF000029A817B684FF067
:100B50000002DA8107F10C07BD4680BC704700BF78
:100B600080B483B000AF78607B684FF000021A80D9
:100B70007B684FF000025A807B684FF001029A8038
:100B80007B684FF00002DA807B684FF000021A8128
:100B900007F10C07BD4680BC704700BF80B483B02E
:100BA00000AF78607B684FF000021A807B684FF0DE
:100BB00000025A807B684FF000029A807B684FF0F9
:100BC0000002DA807B684FF000021A817B684FF0E8
:100BD00000025A817B684FF000029A8107F10C07EE
:100BE000BD4680BC704700BF80B483B000AF786062
:100BF0000B46FB70FB78002B08D07B681B889BB2F0
:100C000043F001039AB27B681A8007E07B681B8877
:100C10009BB223F001039AB27B681A8007F10C079C
:100C2000BD4680BC704700BF80B483B000AF786021
:100C30000B46FB70FB78002B0CD07B68B3F844307C
:100C40009BB26FEA43436FEA53439AB27B68A3F8BF
:100C500044200BE07B68B3F844309BB24FEA434337
:100C60004FEA53439AB27B68A3F8442007F10C077C
:100C7000BD4680BC704700BF80B483B000AF7860D1
:100C800013460A467A807B707B78002B09D07B68FC
:100C90009B899AB27B8842EA03039AB27B689A8165
:100CA0000BE07B689B899AB27B886FEA03039BB257
:100CB00002EA03039AB27B689A8107F10C07BD46EA
:100CC00080BC704780B483B000AF78600B467B80F7
:100CD0007B687A889A8207F10C07BD4680BC704712
:100CE00080B483B000AF786013460A467A803B80B8
:100CF0007A883B8842EA03039AB27B68A3F84820CB
:100D000007F10C07BD4680BC704700BF80B483B0BC
:100D100000AF786013460A467A807B707B78002BA0
:100D200009D07B689B899AB27B8842EA03039AB216
:100D30007B689A810BE07B689B899AB27B886FEA1B
:100D400003039BB202EA03039AB27B689A8107F11C
:100D50000C07BD4680BC704780B483B000AF78609C
:100D60007B681B899BB223F007039AB27B681A81C8
:100D700007F10C07BD4680BC704700BF80B582B04C
:100D800000AF78600B467B807B887868194600F05E
:100D9000D9F87B681B899BB243F007039AB27B6842
:100DA0001A8107F10807BD4680BD00BF80B584B039
:100DB00000AFF86079813A81FB807B89602B08D194
:100DC0003A89FB88F86811464FF0010201F02AF8D1
:100DD00007E03A89FB88F86811464FF0010200F0FD
:100DE000AFFF7B89F868194600F0ACF8FB681B89F7
:100DF0009BB243F007039AB2FB681A8107F1100710
:100E0000BD4680BD80B586B000AFF86079813A817B
:100E1000FB804FF00003FB8279893A89FB88F868F0
:100E200000F034F8FB681B89FB82FB8A23F0070380
:100E3000FB82FB8A43F00703FB82FB8A23F07003EB
:100E4000FB82FB8A43F07003FB82FB68FA8A1A81FB
:100E500007F11807BD4680BD80B584B000AFF860CB
:100E600079813A81FB8079893A89FB88F86800F0BA
:100E70000DF8FB681B899BB243F480439AB2FB6870
:100E80001A8107F11007BD4680BD00BF80B487B04E
:100E900000AFF86079813A81FB804FF00003FB825C
:100EA000FB681B89FB82FB8A03F0FF03FB82FB8844
:100EB0004FEA03239AB23B8942EA03039AB27B8941
:100EC00042EA03039AB2FB8A42EA0303FB82FB680D
:100ED000FA8A1A8107F11C07BD4680BC704700BF23
:100EE00080B483B000AF786013460A467A803B80B6
:100EF0007B687A881A857B683A889A8207F10C07A2
:100F0000BD4680BC704700BF80B485B000AF78603C
:100F10000B467B804FF00003FB817B681B88FB81C5
:100F2000FB8923F07003FB81FA897B8842EA030383
:100F3000FB817B68FA891A8007F11407BD4680BCE3
:100F4000704700BF80B485B000AF78600B467B80EF
:100F50004FF00003FB817B681B89FB81FB8923F039
:100F60007003FB81FA897B8842EA0303FB817B687B
:100F7000FA891A8107F11407BD4680BC704700BF8B
:100F800080B487B000AFF86079813A81FB804FF080
:100F90000003FB824FF00003BB824FF000037B8213
:100FA000FB681B89FB82FB681B8BBB82FB681B8C6D
:100FB0007B82FB8A23F00703FB82FA8A7B8942EA61
:100FC0000303FB82BB8A23F4407323F00303BB8239
:100FD000BB8A43F4807343F00103BB827B8A23F016
:100FE00022037B82FB884FEA03139AB23B8942EAD1
:100FF00003039AB27B8A42EA03037B82FB68FA8A84
:101000001A81FB68BA8A1A83FB687A8A1A8407F104
:101010001C07BD4680BC704780B485B000AF7860C7
:101020000B467B804FF00003FB817B681B8BFB81B1
:10103000FB8923F07003FB81FA897B8842EA030372
:10104000FB817B68FA891A8307F11407BD4680BCCF
:10105000704700BF80B485B000AF78600B467B80DE
:101060004FF00003FB817B681B8BFB81FB8923F422
:10107000E043FB817B884FEA03239AB2FB8942EA73
:101080000303FB817B68FA891A8307F11407BD46C5
:1010900080BC704780B485B000AF78600B467B8021
:1010A0004FF00003FB817B689B8BFB81FB8923F066
:1010B0007003FB81FA897B8842EA0303FB817B682A
:1010C000FA899A8307F11407BD4680BC704700BFB8
:1010D00080B485B000AF78600B467B804FF0000392
:1010E000FB817B689B8BFB81FB8923F4E043FB81C5
:1010F0007B884FEA03239AB2FB8942EA0303FB8110
:101100007B68FA899A8307F11407BD4680BC704753
:1011100080B483B000AF78600B46FB70FB78002B87
:1011200008D07B681B889BB243F080039AB27B682F
:101130001A8007E07B681B889BB223F080039AB279
:101140007B681A8007F10C07BD4680BC704700BF62
:1011500080B483B000AF78600B46FB70FB78002B47
:1011600008D07B689B889BB243F004039AB27B68EB
:101170009A8007E07B689B889BB223F004039AB2B5
:101180007B689A8007F10C07BD4680BC704700BFA2
:1011900080B483B000AF78600B46FB70FB78002B07
:1011A00008D07B689B889BB243F008039AB27B68A7
:1011B0009A8007E07B689B889BB223F008039AB271
:1011C0007B689A8007F10C07BD4680BC704700BF62
:1011D00080B483B000AF78600B46FB70FB78002BC7
:1011E00008D07B689B889BB243F001039AB27B686E
:1011F0009A8007E07B689B889BB223F001039AB238
:101200007B689A8007F10C07BD4680BC704700BF21
:1012100080B485B000AF78600B467B804FF0000350
:10122000FB817B681B8BFB81FB8923F00803FB811F
:10123000FA897B8842EA0303FB817B68FA891A8377
:1012400007F11407BD4680BC704700BF80B485B06D
:1012500000AF78600B467B804FF00003FB817B681A
:101260001B8BFB81FB8923F40063FB817B884FEAA6
:1012700003239AB2FB8942EA0303FB817B68FA8964
:101280001A8307F11407BD4680BC704780B485B04F
:1012900000AF78600B467B804FF00003FB817B68DA
:1012A0009B8BFB81FB8923F00803FB81FA897B88F8
:1012B00042EA0303FB817B68FA899A8307F11407EA
:1012C000BD4680BC704700BF80B485B000AF786079
:1012D0000B467B804FF00003FB817B689B8BFB817F
:1012E000FB8923F40063FB817B884FEA03239AB2D6
:1012F000FB8942EA0303FB817B68FA899A8307F141
:101300001407BD4680BC704780B485B000AF7860DC
:101310000B467B804FF00003FB817B681B8BFB81BE
:10132000FB8923F00403FB81FA897B8842EA0303EB
:10133000FB817B68FA891A8307F11407BD4680BCDC
:10134000704700BF80B485B000AF78600B467B80EB
:101350004FF00003FB817B681B8BFB81FB8923F42F
:101360008063FB817B884FEA03239AB2FB8942EAC0
:101370000303FB817B68FA891A8307F11407BD46D2
:1013800080BC704780B485B000AF78600B467B802E
:101390004FF00003FB817B689B8BFB81FB8923F073
:1013A0000403FB81FA897B8842EA0303FB817B68A3
:1013B000FA899A8307F11407BD4680BC704700BFC5
:1013C00080B485B000AF78600B467B804FF000039F
:1013D000FB817B689B8BFB81FB8923F48063FB8112
:1013E0007B884FEA03239AB2FB8942EA0303FB811D
:1013F0007B68FA899A8307F11407BD4680BC704761
:1014000080B485B000AF78600B467B804FF000035E
:10141000FB817B681B8BFB81FB8923F08003FB81B5
:10142000FA897B8842EA0303FB817B68FA891A8385
:1014300007F11407BD4680BC704700BF80B485B07B
:1014400000AF78600B467B804FF00003FB817B6828
:101450001B8BFB81FB894FEA43434FEA5343FB81DC
:101460007B884FEA03239AB2FB8942EA0303FB819C
:101470007B68FA891A8307F11407BD4680BC704760
:1014800080B485B000AF78600B467B804FF00003DE
:10149000FB817B689B8BFB81FB8923F08003FB81B5
:1014A000FA897B8842EA0303FB817B68FA899A8385
:1014B00007F11407BD4680BC704700BF80B485B0FB
:1014C00000AF78600B467B804FF00003FB817B68A8
:1014D0009B8BFB81FB894FEA43434FEA5343FB81DC
:1014E0007B884FEA03239AB2FB8942EA0303FB811C
:1014F0007B68FA899A8307F11407BD4680BC704760
:1015000080B485B000AF78600B467B804FF000035D
:10151000FB817B681B8CFB81FB8923F00203FB8131
:10152000FA897B8842EA0303FB817B68FA891A8483
:1015300007F11407BD4680BC704700BF80B485B07A
:1015400000AF78600B467B804FF00003FB817B6827
:101550001B8CFB81FB8923F00803FB81FA897B88C4
:1015600042EA0303FB817B68FA891A8407F11407B6
:10157000BD4680BC704700BF80B485B000AF7860C6
:101580000B467B804FF00003FB817B681B8CFB814B
:10159000FB8923F02003FB817B884FEA03139AB277
:1015A000FB8942EA0303FB817B68FA891A8407F10D
:1015B0001407BD4680BC704780B485B000AF78602A
:1015C0000B467B804FF00003FB817B681B8CFB810B
:1015D000FB8923F08003FB817B884FEA03139AB2D7
:1015E000FB8942EA0303FB817B68FA891A8407F1CD
:1015F0001407BD4680BC704780B485B000AF7860EA
:101600000B467B804FF00003FB817B681B8CFB81CA
:10161000FB8923F40073FB817B884FEA03239AB292
:10162000FB8942EA0303FB817B68FA891A8407F18C
:101630001407BD4680BC704780B485B000AF7860A9
:101640000B467B804FF00003FB817B681B8CFB818A
:10165000FB8923F40063FB817B884FEA03239AB262
:10166000FB8942EA0303FB817B68FA891A8407F14C
:101670001407BD4680BC704780B485B000AF786069
:101680000B467B804FF00003FB817B681B8CFB814A
:10169000FB8923F40053FB817B884FEA03339AB222
:1016A000FB8942EA0303FB817B68FA891A8407F10C
:1016B0001407BD4680BC704780B485B000AF786029
:1016C00013460A467A803B804FF00003FB817B88FB
:1016D0004FF0010202FA03F3FB817B681B8C9AB284
:1016E000FB896FEA03039BB202EA03039AB27B68A9
:1016F0001A847B681B8C9AB239887B8801FA03F3C1
:101700009BB242EA03039AB27B681A8407F114077A
:10171000BD4680BC704700BF80B485B000AF786024
:1017200013460A467A803B804FF00003FB817B889A
:101730004FF0040202FA03F3FB817B681B8C9AB220
:10174000FB896FEA03039BB202EA03039AB27B6848
:101750001A847B681B8C9AB239887B8801FA03F360
:101760009BB242EA03039AB27B681A8407F114071A
:10177000BD4680BC704700BF80B485B000AF7860C4
:1017800013460A467A803B804FF00003FB604FF01F
:1017900000037B817B68FB60FB6803F11803FB603F
:1017A0007B884FF0010202FA03F37B817B681B8C7C
:1017B0009AB27B896FEA03039BB202EA03039AB2EF
:1017C0007B681A847B88002B02D07B88082B14D17D
:1017D0007B884FEA53039BB2FA68D318FB60FB681F
:1017E000FA68126822F070021A60FB68FA681168E1
:1017F0003A8841EA02021A6019E07B88A3F10403E7
:101800009BB24FEA53039BB2FA68D318FB60FB68A4
:10181000FA68126822F4E0421A60FB68FA681168FC
:101820003A884FEA022292B241EA02021A6007F1B4
:101830001407BD4680BC704780B483B000AF7860A9
:101840000B46FB70FB78002B08D07B681B889BB293
:1018500043F002039AB27B681A8007E07B681B881A
:101860009BB223F002039AB27B681A8007F10C073F
:10187000BD4680BC704700BF80B483B000AF7860C5
:101880000B467B807B88002B08D07B681B889BB233
:1018900043F004039AB27B681A8007E07B681B88D8
:1018A0009BB223F004039AB27B681A8007F10C07FD
:1018B000BD4680BC704700BF80B483B000AF786085
:1018C0000B46FB70FB78002B08D07B689B889BB293
:1018D00043F080039AB27B689A8007E07B689B881C
:1018E0009BB223F080039AB27B689A8007F10C07C1
:1018F000BD4680BC704700BF80B483B000AF786045
:101900000B467B807B681B889BB223F008039AB24E
:101910007B681A807B681B889AB27B8842EA030343
:101920009AB27B681A8007F10C07BD4680BC7047ED
:1019300080B483B000AF78600B467B807B689B8867
:101940009BB223F070039AB27B689A807B689B8875
:101950009AB27B8842EA03039AB27B689A8007F1C5
:101960000C07BD4680BC704780B483B000AF786080
:101970000B467B807B681B899BB223F007039AB2DE
:101980007B681A817B681B899AB27B8842EA0303D1
:101990009AB27B681A8107F10C07BD4680BC70477C
:1019A00080B483B000AF78600B467B807B681B8976
:1019B0009BB223F080039AB27B681A817B681B89F3
:1019C0009AB27B8842EA03039AB27B681A8107F1D4
:1019D0000C07BD4680BC704780B483B000AF786010
:1019E0000B467B807B687A889A8407F10C07BD469A
:1019F00080BC704780B483B000AF78600B467B80BA
:101A00007B687A889A8507F10C07BD4680BC7047D1
:101A100080B483B000AF78600B467B807B687A88A7
:101A20009A8607F10C07BD4680BC704780B483B02E
:101A300000AF78600B467B807B687A881A8707F155
:101A40000C07BD4680BC704780B483B000AF78609F
:101A50000B467B807B687A889A8707F10C07BD4626
:101A600080BC704780B483B000AF78600B467B8049
:101A70007B687A88A3F8402007F10C07BD4680BC3C
:101A8000704700BF80B483B000AF78600B467B80A6
:101A90007B681B8B9BB223F00C039AB27B681A8382
:101AA0007B681B8B9AB27B8842EA03039AB27B68FD
:101AB0001A8307F10C07BD4680BC704780B483B021
:101AC00000AF78600B467B807B681B8B9BB223F456
:101AD00040639AB27B681A837B681B8B9AB27B88BF
:101AE0004FEA03239BB242EA03039AB27B681A834C
:101AF00007F10C07BD4680BC704700BF80B483B0BF
:101B000000AF78600B467B807B689B8B9BB223F099
:101B10000C039AB27B689A837B689B8B9AB27B8812
:101B200042EA03039AB27B689A8307F10C07BD4629
:101B300080BC704780B483B000AF78600B467B8078
:101B40007B689B8B9BB223F440639AB27B689A8339
:101B50007B689B8B9AB27B884FEA03239BB242EA55
:101B600003039AB27B689A8307F10C07BD4680BCD9
:101B7000704700BF80B483B000AF78600B467B80B5
:101B80007B681B889BB223F440739AB27B681A80EF
:101B90007B681B889AB27B8842EA03039AB27B680F
:101BA0001A8007F10C07BD4680BC704780B483B033
:101BB00000AF78607B689B8E9BB2184607F10C07DC
:101BC000BD4680BC704700BF80B483B000AF786072
:101BD0007B681B8F9BB2184607F10C07BD4680BC83
:101BE000704700BF80B483B000AF78607B689B8F84
:101BF0009BB2184607F10C07BD4680BC704700BF7A
:101C000080B483B000AF78607B68B3F840309BB29B
:101C1000184607F10C07BD4680BC704780B483B0FE
:101C200000AF78607B689B8C9BB2184607F10C076D
:101C3000BD4680BC704700BF80B483B000AF786001
:101C40007B681B8D9BB2184607F10C07BD4680BC14
:101C5000704700BF80B485B000AF78600B467B80D2
:101C60004FF00003FB737B681B8A9AB27B8802EA01
:101C700003039BB2002B03D04FF00103FB7302E080
:101C80004FF00003FB73FB7B184607F11407BD46BA
:101C900080BC704780B483B000AF78600B467B8017
:101CA0007B886FEA03039AB27B681A8207F10C07FC
:101CB000BD4680BC704700BF80B485B000AF78607F
:101CC0000B467B804FF00003FB734FF00003BB819A
:101CD0004FF000037B817B681B8A9AB27B8802EA03
:101CE0000303BB817B689B899AB27B8802EA03036A
:101CF0007B81BB89002B06D07B89002B03D04FF062
:101D00000103FB7302E04FF00003FB73FB7B1846FB
:101D100007F11407BD4680BC704700BF80B483B094
:101D200000AF78600B467B807B886FEA03039AB232
:101D30007B681A8207F10C07BD4680BC704700BF64
:101D400080B487B000AFF86079813A81FB804FF0B2
:101D50000003BB824FF00003FB82FB681B8C9BB22D
:101D600023F001039AB2FB681A84FB681B8BBB82C9
:101D7000FB681B8CFB82BB8A23F0F303BB82FB88CE
:101D80004FEA03139AB23B8942EA03039AB2BB8A31
:101D900042EA0303BB82FA681D4B9A4213D0FA68E9
:101DA0001C4B9A420FD0FB68B3F1804F0BD0FA68FE
:101DB000194B9A4207D0FA68184B9A4203D0FA6836
:101DC000174B9A420CD1FB8A23F00203FB827A89DB
:101DD000FB8A42EA03039BB243F00103FB820BE060
:101DE000FB8A23F00A03FB827A89FB8A42EA030317
:101DF0009BB243F00103FB82FB68BA8A1A83FB683B
:101E0000FA8A1A8407F11C07BD4680BC704700BFE0
:101E1000002C014000340140000400400008004054
:101E2000000C004080B487B000AFF86079813A813F
:101E3000FB804FF00003BB824FF00003FB824FF0AA
:101E400000037B82FB681B8C9BB223F010039AB2C9
:101E5000FB681A84FB681B8BBB82FB681B8CFB82B4
:101E60007B894FEA03137B82BB8A23F440734FEADA
:101E700003534FEA1353BB82FB884FEA03339AB2F2
:101E8000BB8A42EA0303BB823B894FEA03239AB22F
:101E9000BB8A42EA0303BB82FA681D4B9A4213D005
:101EA000FA681C4B9A420FD0FB68B3F1804F0BD0FD
:101EB000FA68194B9A4207D0FA68184B9A4203D035
:101EC000FA68174B9A420CD1FB8A23F02003FB825D
:101ED0007A8AFB8A42EA03039BB243F01003FB8237
:101EE0000BE0FB8A23F0A003FB827A89FB8A42EA9B
:101EF00003039BB243F01003FB82FB68BA8A1A8388
:101F0000FB68FA8A1A8407F11C07BD4680BC70473B
:101F1000002C014000340140000400400008004053
:101F2000000C004080B487B000AFF86079813A813E
:101F3000FB804FF00003BB824FF00003FB824FF0A9
:101F400000037B82FB681B8C9BB223F480739AB2E4
:101F5000FB681A84FB689B8BBB82FB681B8CFB8233
:101F60007B894FEA03237B82BB8A23F0F303BB8286
:101F7000FB884FEA03139AB23B8942EA03039AB201
:101F8000BB8A42EA0303BB82FA681D4B9A4213D014
:101F9000FA681C4B9A420FD0FB68B3F1804F0BD00C
:101FA000FA68194B9A4207D0FA68184B9A4203D044
:101FB000FA68174B9A420CD1FB8A23F40073FB8218
:101FC0007A8AFB8A42EA03039BB243F48073FB8262
:101FD0000BE0FB8A23F42063FB827A89FB8A42EAC6
:101FE00003039BB243F48073FB82FB68BA8A9A8333
:101FF000FB68FA8A1A8407F11C07BD4680BC70474B
:10200000002C014000340140000400400008004062
:10201000000C004080B487B000AFF86079813A814D
:10202000FB804FF00003BB824FF00003FB824FF0B8
:1020300000037B82FB681B8C9BB223F480539AB213
:10204000FB681A84FB689B8BBB82FB681B8CFB8242
:102050007B894FEA03337B82BB8A23F440734FEAC8
:1020600003534FEA1353BB823B894FEA03239AB2CF
:10207000BB8A42EA0303BB82FB884FEA03339AB26E
:10208000BB8A42EA0303BB82FA681F4B9A4213D011
:10209000FA681E4B9A420FD0FB68B3F1804F0BD009
:1020A000FA681B4B9A4207D0FA681A4B9A4203D03F
:1020B000FA68194B9A420CD1FB8A23F40053FB8235
:1020C0007A8AFB8A42EA03039BB243F48053FB8281
:1020D0000FE0FB8A23F400734FEA43434FEA534374
:1020E000FB827A89FB8A42EA03039BB243F4805362
:1020F000FB82FB68BA8A9A83FB68FA8A1A8407F122
:102100001C07BD4680BC7047002C014000340140D4
:102110000004004000080040000C004080B483B080
:1021200000AF0346FB71094B97F907204FEA5212A3
:10213000F97901F01F014FF0010000FA01F143F8B5
:10214000221007F10C07BD4680BC704700E100E09B
:1021500080B483B000AF03463960FB7197F9073054
:10216000002B0DDA0E49FB7903F00F03A3F10403F2
:102170003A68D2B24FEA0212D2B2CB181A760AE00B
:10218000084997F907303A68D2B24FEA0212D2B240
:10219000CB1883F8002307F10C07BD4680BC7047BD
:1021A00000ED00E000E100E080B588B000AF4FF046
:1021B0006003BB804FF00103FB804FF4FA737B8117
:1021C0004FF00203BB8107F1040330481946FEF7C4
:1021D00093FA2E484FF00001FEF706FD4FF01E0067
:1021E0004FF00201FFF7B4FF4FF01E00FFF796FF1C
:1021F00045F6BF53BB824EF660233B8307F11403C1
:1022000023481946FEF7CAF821484FF001014FF064
:102210000102FEF731FD1E484FF00001FEF7E4FC1D
:102220004FF036004FF00301FFF792FF4FF03600FA
:10223000FFF774FF45F6BF53BB8242F210733B8336
:1022400007F1140313481946FEF7A8F811484FF098
:102250000101FEF737FD0F484FF00101FFF71AFDAE
:102260000C484FF001014FF00102FEF705FD09484F
:102270004FF00801FFF740FB06484FF00001FEF762
:10228000B3FC07F12007BD4680BD00BF000400403D
:10229000000800400010004080B500AF4FF0000083
:1022A00001F060FA05484FF00101FFF7F3FC034825
:1022B0004FF00001FEF798FC80BD00BF0010004009
:1022C00080B500AF4FF002004FF0010101F072FF46
:1022D0004FF005004FF0010101F04AFF4FF00800F8
:1022E0004FF0010101F044FF4FF011004FF00101E8
:1022F00001F03EFF574B9B6903F00403002B05D10F
:10230000544B544A926942F004029A61524B524A29
:10231000126822F0F0021A604F4B4F4A12681A609E
:102320004C4B9B6903F00403002B05D1494B494AF0
:10233000926942F004029A61474B474A126822F4BC
:1023400070621A60444B444A12681A60414B9B69A0
:1023500003F00403002B05D13E4B3E4A926942F044
:1023600004029A613C4B3C4A126822F470421A60A3
:10237000394B394A12681A60364B9B6903F00403E3
:10238000002B05D1334B334A926942F004029A6123
:10239000314B314A126822F070621A602E4B2E4A7D
:1023A000126842F000621A602B4B2B4A126942F00D
:1023B00040021A61274B9B6903F00403002B05D1EF
:1023C000244B244A926942F004029A61224B224A29
:1023D000126822F070421A601F4B1F4A126842F0C6
:1023E00000421A601C4B1C4A126942F080021A61BA
:1023F000184B9B6903F00803002B05D1154B154AB8
:10240000926942F008029A61144B144A126822F051
:10241000F0021A60114B114A126842F010021A6061
:102420000C4B9B6903F01003002B05D1094B094AA3
:10243000926942F010029A61094B094A526822F0EF
:10244000F0025A60064B064A526842F010025A6087
:1024500080BD00BF0010024000080140000C014098
:102460000010014080B588B000AF786039607A68AC
:102470002A4B9A4206D14FF400104FF0010101F0AF
:1024800099FE05E04FF480004FF0010101F092FE4B
:102490004FF008004FF0010101F06AFE78684FF03C
:1024A000000102F07BF9786802F056F84FF0000363
:1024B000BB823B683B614FF48043BB834BF6FF73A9
:1024C000FB824FF480637B834FF000033B8378688B
:1024D0004FF0010102F062F907F110037868194624
:1024E00002F062F84FF01C03FB734FF00303BB7361
:1024F0007A680A4B9A4203D14FF0C003BB8102E0D5
:102500004FF44063BB8107F10C030548194600F006
:102510000DFB07F12007BD4680BD00BF0054004001
:10252000000C014080B584B000AF7860F970BA70DB
:102530003B8078684FF0010102F090F93B88FB8105
:1025400003E0FB8903F1FF33FB8178682B4902F03C
:10255000F7FB0346002B02D1FB89002BF1D1FB894D
:10256000002B02D14FF0FD0341E0BB78002B1BD0C4
:10257000FB784FEA4303DBB2786819464FF001025B
:1025800002F072FA3B88FB8103E0FB8903F1FF3321
:10259000FB8178681A4902F0D3FB0346002B1ED159
:1025A000FB89002BF1D11AE0FB784FEA4303DBB241
:1025B000786819464FF0000202F056FA3B88FB811A
:1025C00003E0FB8903F1FF33FB8178680D4902F0DA
:1025D000B7FB0346002B02D1FB89002BF1D1FB890D
:1025E000002B02D14FF0FF0301E04FF000035BB27C
:1025F000184607F11007BD4680BD00BF010003006B
:10260000020003008200070080B584B000AF78604C
:102610000B467B8078684FF0010102F03FF97B8820
:10262000FB8100BF78680B4902F0EAFB0346002BF0
:1026300002D0FB89002BF5D1FB89002B02D14FF092
:10264000FD0301E04FF000035BB2184607F11007ED
:10265000BD4680BD1000001080B586B000AFF860A8
:10266000B960FA80BB8020E0BB681B78BA6802F1D1
:102670000102BA60F868194602F0D8F9BB88FB82FB
:1026800003E0FB8A03F1FF33FB82F868114902F093
:10269000B7FB0346002B02D0FB8A002BF1D1FB8A4B
:1026A000002B02D14FF0FF030DE0FB88002B0CBF85
:1026B00000230123DBB2FA8802F1FF32FA80002BFB
:1026C000D2D14FF000035BB2184607F11807BD46A0
:1026D00080BD00BF0400001080B586B000AFF86078
:1026E000B960FA80BB80F8684FF0010102F0F6F89B
:1026F000FB88012B2AD1F8684FF0000102F0EEF8B8
:1027000072B6FB681B8BF8684FF0010102F0C6F847
:1027100062B6BB88FB8203E0FB8A03F1FF33FB82D6
:10272000F868754902F06CFB0346002B02D1FB8A66
:10273000002BF1D1F86802F089F903461A46BB680C
:102740001A70BB6803F10103BB60BAE0FB88022B7F
:102750003AD1F8684FF4006102F0E0F972B6FB6814
:102760001B8BF8684FF0000102F0B8F862B6BB8826
:10277000FB8203E0FB8A03F1FF33FB82F8685F49C9
:1027800002F03EFB0346002B02D1FB8A002BF1D165
:1027900072B6F8684FF0010102F080F8FB681B8AFE
:1027A0009BB2DAB2BB681A70BB6803F10103BB606D
:1027B00062B6FB681B8A9BB2DAB2BB681A70BB6850
:1027C00003F10103BB607CE0FB681B8B1BE0BB8853
:1027D000FB8203E0FB8A03F1FF33FB82F868474981
:1027E00002F00EFB0346002B02D1FB8A002BF1D135
:1027F000F86802F02BF903461A46BB681A70BB68EA
:1028000003F10103BB60FB88032B0CBF00230123F2
:10281000DBB2FA8802F1FF32FA80002BD7D1BB88F5
:10282000FB8203E0FB8A03F1FF33FB82F868334944
:1028300002F0E6FA0346002B02D1FB8A002BF1D10D
:1028400072B6F86802F002F903461A46BB681A70BD
:10285000BB6803F10103BB60F8684FF0010102F0AF
:102860001DF862B6F86802F0F1F803461A46BB6834
:102870001A70BB6803F10103BB60F8684FF00001F8
:1028800002F02CF8BB88FB8203E0FB8A03F1FF33E4
:10289000FB82F8681A4902F053FA0346002B02D172
:1028A000FB8A002BF1D1F86802F0D0F803461A46F3
:1028B000BB681A70BB6803F10103BB604FF00003F3
:1028C000FB80BB88FB8200BFF8680E4902F098FAD3
:1028D0000346002B02D0FB8A002BF5D1FB8A002B8C
:1028E00002D14FF0FD0301E04FF000035BB2184648
:1028F00007F11807BD4680BD40000010040000101D
:10290000400003001000001080B400AF064B1B68AD
:10291000002B05D0044B1B6803F1FF32024B1A60F9
:10292000BD4680BC704700BFA805002080B483B0BE
:1029300000AF7860064B7A681A6000BF044B1B68D2
:10294000002BFBD107F10C07BD4680BC704700BFD0
:10295000A805002080B483B000AF78607B684FF496
:102960007A7202FB03F2064B1A6000BF044B1B682D
:10297000002BFBD107F10C07BD4680BC704700BFA0
:10298000A805002080B582B000AF134B7B60134BCD
:102990003B600BE07B681A683B681A603B6803F198
:1029A00004033B607B6803F104037B603A680C4BD3
:1029B0009A42EFD30D480E494FF000028842B8BF4B
:1029C00040F8042BFADB00F07BFB02F011FB07F16F
:1029D0000807BD4680BD00BF60B5000800000020AC
:1029E000A805002080B400AFFEE70000A805002085
:1029F0001806002080B582B000AF78607A683C4B42
:102A00009A420CD14FF004004FF0010101F0F4FBA9
:102A10004FF004004FF0000101F0EEFB64E07A6833
:102A2000344B9A420CD14FF008004FF0010101F0F5
:102A3000E3FB4FF008004FF0000101F0DDFB53E035
:102A40007A682D4B9A420CD14FF010004FF00101E3
:102A500001F0D2FB4FF010004FF0000101F0CCFB71
:102A600042E07A68254B9A420CD14FF020004FF09B
:102A7000010101F0C1FB4FF020004FF0000101F017
:102A8000BBFB31E07A681E4B9A420CD14FF04000FC
:102A90004FF0010101F0B0FB4FF040004FF000019A
:102AA00001F0AAFB20E07A68164B9A420CD14FF055
:102AB00080004FF0010101F09FFB4FF080004FF0CC
:102AC000000101F099FB0FE07A680F4B9A420BD19D
:102AD0004FF480704FF0010101F08EFB4FF48070D5
:102AE0004FF0000101F088FB07F10807BD4680BDEB
:102AF00000080140000C014000100140001401409A
:102B000000180140001C01400020014080B500AFCA
:102B10004FF001004FF0010101F06EFB4FF001009A
:102B20004FF0000101F068FB80BD00BF80B489B0A8
:102B300000AF786039604FF00003FB614FF0000395
:102B40003B614FF00003BB614FF00003FB604FF0AF
:102B500000037B614FF00003BB603B68DB7803F050
:102B60000F03FB613B68DB7803F01003002B05D0FB
:102B70003B689B78FA6942EA0303FB613B681B8868
:102B800003F0FF03002B51D07B681B687B614FF083
:102B90000003BB6144E0BB694FF0010202FA03F39A
:102BA000FB603B681B881A46FB6802EA03033B6133
:102BB0003A69FB689A422FD1BB694FEA8303FB60F5
:102BC000FB684FF00F0202FA03F3BB60BB686FEAC9
:102BD00003037A6902EA03037B61FB68FA6902FA7C
:102BE00003F37A6942EA03037B613B68DB78282BB5
:102BF00007D1BB694FF0010202FA03F27B685A6108
:102C00000AE03B68DB78482B06D1BB694FF0010234
:102C100002FA03F27B681A61BB6903F10103BB612D
:102C2000BB69072BB7D97B687A691A603B681B8838
:102C3000FF2B56D97B685B687B614FF00003BB615B
:102C400049E0BB6903F108034FF0010202FA03F304
:102C5000FB603B681B881A46FB6802EA03033B6182
:102C60003A69FB689A4232D1BB694FEA8303FB6041
:102C7000FB684FF00F0202FA03F3BB60BB686FEA18
:102C800003037A6902EA03037B61FB68FA6902FACB
:102C900003F37A6942EA03037B613B68DB78282B04
:102CA00008D1BB6903F108034FF0010202FA03F2F5
:102CB0007B685A613B68DB78482B08D1BB6903F11C
:102CC00008034FF0010202FA03F27B681A61BB6944
:102CD00003F10103BB61BB69072BB2D97B687A6939
:102CE0005A6007F12407BD4680BC704780B483B0AA
:102CF00000AF78607B684FF6FF721A807B684FF0F8
:102D000002029A707B684FF00402DA7007F10C0738
:102D1000BD4680BC704700BF80B485B000AF78600E
:102D20000B467B804FF00003FB737B689A687B88BF
:102D300002EA0303002B03D04FF00103FB7302E010
:102D40004FF00003FB73FB7B184607F11407BD46E9
:102D500080BC704780B483B000AF78607B689B68AC
:102D60009BB2184607F10C07BD4680BC704700BFF8
:102D700080B485B000AF78600B467B804FF00003D5
:102D8000FB737B68DA687B8802EA0303002B03D0BD
:102D90004FF00103FB7302E04FF00003FB73FB7B7A
:102DA000184607F11407BD4680BC704780B483B055
:102DB00000AF78607B68DB689BB2184607F10C07B0
:102DC000BD4680BC704700BF80B483B000AF786060
:102DD0000B467B807A887B681A6107F10C07BD4639
:102DE00080BC704780B483B000AF78600B467B80B6
:102DF0007A887B685A6107F10C07BD4680BC704732
:102E000080B483B000AF786013460A467A807B7046
:102E10007B78002B03D07A887B681A6102E07A887D
:102E20007B685A6107F10C07BD4680BC704700BF44
:102E300080B483B000AF78600B467B807A887B6873
:102E4000DA6007F10C07BD4680BC704780B485B0DE
:102E500000AF78600B467B804FF48033FB607B884B
:102E6000FA6842EA0303FB607B68FA689A617A8831
:102E70007B689A617B68FA689A617B689B69FB60F2
:102E80007B689B69FB6007F11407BD4680BC7047F7
:102E900080B485B000AF02460B46FA71BB714FF0AB
:102EA0000003FB600E4B1B68FB60FA684FF68073F3
:102EB00002EA0303FB60FB794FEA0313FA6842EA74
:102EC0000303FB60BB79FA6842EA0303FB60044B2F
:102ED000FA681A6007F11407BD4680BC704700BF4E
:102EE0000000014080B483B000AF0346FB71044B87
:102EF000FA791A6007F10C07BD4680BC704700BF25
:102F00001C00204280B487B000AF78600B46FB7095
:102F10004FF000033B614FF00003FB604FF00003F4
:102F20007B614FF00003BB607B68002B03DA354BFD
:102F3000DB697B6102E0334B5B687B617B6803F498
:102F400070234FEA1343BB607B684FEA03434FEAA9
:102F500013433B617B6803F44013B3F5401F0AD170
:102F60007B6923F070637B61264B264A526822F00E
:102F700070625A6028E07B6803F48013002B11D044
:102F8000BB684FF0030202FA03F3FB60FB686FEAD1
:102F900003037A6902EA03037B617B6943F0706390
:102FA0007B6111E07B684FEA53534FEA03133A69A0
:102FB00002FA03F36FEA03037A6902EA03037B610F
:102FC0007B6943F070637B61FB78002B0BD07B68DF
:102FD0004FEA53534FEA03133A6902FA03F37A694B
:102FE00042EA03037B617B68002B03DA054B7A69B5
:102FF000DA6102E0034B7A695A6007F11C07BD46AB
:1030000080BC70470000014090B484B000AF02461D
:103010000B46FA71BB714FF00003FB60BB7903F004
:1030200003034FEA83034FF00F0202FA03F3FB603E
:103030001B4BBA794FEA9202D2B21949B8794FEADA
:103040009000C0B200F1020051F82000F9686FEA68
:10305000010100EA010102F1020243F82210104BC3
:10306000BA794FEA9202D2B20D49B8794FEA90008C
:10307000C0B200F1020051F82000FC79B97901F0EA
:1030800003014FEA810104FA01F140EA010102F172
:10309000020243F8221007F11007BD4690BC7047AA
:1030A0000000014080B483B000AF7860034B7A68C1
:1030B0001A6007F10C07BD4680BC7047DC00204257
:1030C00080B500AF174B174A126842F001021A6030
:1030D000144A144B5968144B01EA03035360114A14
:1030E000104B1B6823F0847323F4803313600D4B63
:1030F0000C4A126822F480221A600A4B094A52686C
:1031000022F4FE025A60074B4FF41F029A60054BEF
:103110004FF00002DA6200F07DF8044B4FF00062DD
:103120009A6080BD001002400000FFF800ED00E052
:1031300080B485B000AF4FF00003FB604FF0000398
:10314000BB604FF000037B604FF000033B602C4BF3
:103150005B6803F00C03FB60FB68042B07D0082BB3
:1031600009D0002B32D1274B274A1A6032E0254B79
:10317000254A1A602EE0224B5B6803F47013BB6093
:103180001F4B5B6803F480337B60BB684FEA93435B
:1031900003F10203BB607B68002B06D1BB681B4AAE
:1031A00002FB03F2174B1A6014E0154BDB6A03F0C5
:1031B0000F0303F101033B60134A3B68B2FBF3F3D7
:1031C000BA6802FB03F20F4B1A6003E00D4B0E4A84
:1031D0001A6000BF0A4B5B6803F0F0034FEA131359
:1031E0000B4AD35CDBB2FB60064B1A68FB6822FA21
:1031F00003F2044B1A6007F11407BD4680BC704708
:10320000001002400000002000127A0000093D007A
:103210000400002080B500AF00F002F880BD00BFC0
:1032200080B483B000AF4FF000037B604FF0000329
:103230003B60314B304A126842F480321A602E4BA8
:103240001B6803F400333B607B6803F101037B6080
:103250003B68002B03D17B68B3F5A06FEFD1264B01
:103260001B6803F40033002B03D04FF001033B60D5
:1032700002E04FF000033B603B68012B37D11E4B4F
:103280001D4A52685A601C4B1B4A52685A601A4BBE
:10329000194A52685A60184B174A526822F47C1235
:1032A0005A60154B144A526842F498125A60124BF5
:1032B000114A126842F080721A6000BF0E4B1B6800
:1032C00003F00073002BF9D00B4B0B4A526822F02D
:1032D00003025A60084B084A526842F002025A60E0
:1032E00000BF054B5B6803F00C03082BF9D107F115
:1032F0000C07BD4680BC70470010024080B584B00A
:1033000000AF78600B467B807B88BB814FF0030366
:10331000BB734FF02803FB7307F10C037868194661
:10332000FFF704FC07F11007BD4680BD80B584B0EF
:1033300000AF78600B467B807B88BB814FF0030336
:10334000BB734FF01003FB7307F10C037868194649
:10335000FFF7ECFB07F11007BD4680BD80B584B0D8
:1033600000AF0346FB714FF00003FB7397F9073082
:10337000002B0FD0524B1B7823F00103DAB2504BD5
:103380001A704F4B1B784F484FF027011A4601F037
:1033900095F80EE04A4B1B7843F00103DAB2484B34
:1033A0001A70474B1B7847484FF027011A4601F027
:1033B00085F8434B1B7843F00203DAB2404B1A7096
:1033C0003F4B1B783F484FF027011A4601F076F833
:1033D0003B4B1B7843F00403DAB2394B1A70384B7D
:1033E0001B7838484FF027011A4601F067F84FF074
:1033F0000100FFF79BFA33484FF0270100F0F0FF80
:1034000003464FEA1313DBB24FEA0313FB732C4B53
:103410001B7823F00403DAB2294B1A70284B1B786F
:1034200028484FF027011A4601F048F84FF00100F4
:10343000FFF77CFA224B1B7843F00403DAB2204BEF
:103440001A701F4B1B781F484FF027011A4601F0D6
:1034500035F84FF00100FFF769FA1A484FF02701DD
:1034600000F0BEFF03464FEA1313DBB2DAB2FB7B78
:1034700042EA0303DBB2FB73114B1B7823F0040316
:10348000DAB20F4B1A700E4B1B780E484FF0270123
:103490001A4601F013F80A4B1B7823F00203DAB244
:1034A000074B1A70064B1B7806484FF027011A4647
:1034B00001F004F8FB7B184607F11007BD4680BDFC
:1034C000AC0500200054004080B582B000AF024639
:1034D0000B46FA71BB7197F90630002B0FD05A4B8F
:1034E0001B7823F00103DAB2574B1A70564B1B7846
:1034F00056484FF027011A4600F0E0FF0EE0524B0D
:103500001B7843F00103DAB24F4B1A704E4B1B7815
:103510004E484FF027011A4600F0D0FF4A4B1B7867
:1035200003F00F03DAB2484B1A70FB794FEA13131A
:10353000DBB24FEA0313DAB2434B1B78DBB242EA49
:103540000303DBB2DAB2404B1A703F4B1B783F48A3
:103550004FF027011A4600F0B1FF3B4B1B7843F0B8
:103560000403DAB2384B1A70374B1B7837484FF0E8
:1035700027011A4600F0A2FF4FF00100FFF7D6F92D
:10358000314B1B7823F00403DAB22F4B1A702E4B09
:103590001B782E484FF027011A4600F08FFF4FF09E
:1035A0000100FFF7C3F9284B1B7803F00F03DAB2D1
:1035B000254B1A70FB794FEA0313DAB2224B1B78C2
:1035C000DBB242EA0303DBB2DAB21F4B1A701E4BC6
:1035D0001B781E484FF027011A4600F06FFF1A4B68
:1035E0001B7843F00403DAB2174B1A70164B1B78A2
:1035F00016484FF027011A4600F060FF4FF0010017
:10360000FFF794F9104B1B7823F00403DAB20E4B4A
:103610001A700D4B1B780D484FF027011A4600F029
:103620004DFF094B1B7863F00F03DAB2064B1A709B
:10363000054B1B7805484FF027011A4600F03EFF66
:1036400007F10807BD4680BDAC05002000540040CE
:1036500080B582B000AF0346FB71FB7918464FF08E
:103660000101FFF731FF4FF03200FFF75FF907F17B
:103670000807BD4680BD00BF80B582B000AF0346DD
:10368000FB71FB7918464FF00001FFF71DFF4FF06B
:103690003200FFF74BF907F10807BD4680BD00BFB8
:1036A00080B582B000AF78607A68274B9A4206D125
:1036B0004FF004004FF0010100F05AFD40E07A683D
:1036C000224B9A4206D14FF008004FF0010100F062
:1036D0004FFD35E07A681E4B9A4206D14FF010003C
:1036E0004FF0010100F044FD2AE07A68194B9A423C
:1036F00006D14FF020004FF0010100F039FD1FE02E
:103700007A68154B9A4206D14FF040004FF0010104
:1037100000F02EFD14E07A68104B9A4206D14FF06B
:1037200080004FF0010100F023FD09E07A680C4BA6
:103730009A4205D14FF480704FF0010100F018FD5E
:1037400007F10807BD4680BD00080140000C01409C
:10375000001001400014014000180140001C01400D
:103760000020014080B582B000AF0346FB71FB79B9
:10377000002B0FD0114B1B7843F00803DAB20F4B2C
:103780001A700E4B1B780E484FF027011A4600F0B6
:1037900095FE0EE0094B1B7823F00803DAB2074BC5
:1037A0001A70064B1B7806484FF027011A4600F0A6
:1037B00085FE07F10807BD4680BD00BFAC050020AF
:1037C0000054004080B500AF014800F0B7FE80BD56
:1037D0000054004080B582B000AF4FF00200FFF708
:1037E00037FF4FF02003FB71FB7943F00803FB71B7
:1037F000FB791846FFF72CFF4FF00A00FFF7AAF8F5
:103800004FF00C00FFF724FF4FF00A00FFF7A2F87B
:103810004FF00600FFF71CFF00F03EF807F1080725
:10382000BD4680BD80B500AFFFF7CCFF4FF0640010
:10383000FFF790F8FFF7CEFF80BD00BF80B584B0E2
:1038400000AF02460B46FA71BB714FF00003FB73E9
:10385000FB7903F00103DBB2002B02D04FF04003F1
:10386000FB73FB79012B03D9FB7B03F11003FB7383
:10387000FA7BBB79D318FB73FB7B63F07F03DBB26E
:103880001846FFF7E5FE034BFA791A7007F11007A7
:10389000BD4680BDAD05002080B500AF4FF00100F2
:1038A000FFF7D6FE4FF00200FFF754F880BD00BFCF
:1038B00080B582B000AF78600B46FB7008E07B6893
:1038C0001B787A6802F101027A601846FFF7D4FE8D
:1038D000FB78002B0CBF00230123DBB2FA7802F146
:1038E000FF32FA70002BEAD107F10807BD4680BD10
:1038F00080B584B000AF786039E07B681B780A2B14
:1039000004D00D2B11D0092B17D026E01C4B1B78AF
:1039100003F10103DAB21A4B1A70194B1B781846DF
:103920004FF00001FFF78AFF1DE0154B1B7818468A
:103930004FF00001FFF782FF15E04FF00003FB732B
:1039400007E04FF02000FFF797FEFB7B03F1010338
:10395000FB73FB7B032BF4D905E07B681B781846CF
:10396000FFF78AFE00BF7B6803F101037B607B6881
:103970001B78002BC1D107F11007BD4680BD00BFE9
:10398000AD0500200FB480B582B000AF07F114037D
:103990007B6008484FF028013A697B6801F062FCBF
:1039A0000448FFF7A5FF07F10807BD46BDE88040C2
:1039B00004B07047EC05002080B584B000AF03462A
:1039C0003960FB71FB794FEAC303DBB2DBB243F032
:1039D0004003DBB2DBB21846FFF73AFE4FF00003BC
:1039E000FB730AE0FB7B3A68D3181B781846FFF795
:1039F00043FEFB7B03F10103FB73FB7B072BF1D938
:103A00004FF08000FFF724FE07F11007BD4680BD90
:103A100080B485B000AF78600B4B1B68002B02D1DF
:103A20000A4A094B1A60084B1B68FB60064B1A6870
:103A30007B68D218044B1A60FB68184607F114071C
:103A4000BD4680BC704700BFB005002018060020AE
:103A500080B483B000AF786039604FF0FF33184610
:103A600007F10C07BD4680BC704700BF80B483B02F
:103A700000AF78604FF0FF33184607F10C07BD46E2
:103A800080BC704780B483B000AF786039603B6819
:103A90004FF400525A604FF00003184607F10C072C
:103AA000BD4680BC704700BF80B483B000AF786073
:103AB0004FF00103184607F10C07BD4680BC704764
:103AC00080B485B000AFF860B9607A604FF0000351
:103AD000184607F11407BD4680BC704780B485B016
:103AE00000AFF860B9607A607B68184607F1140788
:103AF000BD4680BC704700BF80B485B000AFF860A1
:103B0000B9607A607B68184607F11407BD4680BC2F
:103B1000704700BF80B400AFFEE700BF80B400AFC5
:103B2000154B154A126842F001021A60124A124BF4
:103B30005968124B01EA030353600F4A0E4B1B688E
:103B400023F0847323F4803313600B4B0A4A12680A
:103B500022F480221A60084B074A526822F4FE02BF
:103B60005A60054B4FF41F029A60034B4FF000025E
:103B7000DA62BD4680BC7047001002400000FFF8CA
:103B800080B483B000AF7860134B134A126822F4FC
:103B900080321A60104B104A126822F480221A6098
:103BA0007B68B3F5803F03D0B3F5802F07D00DE0DD
:103BB000094B094A126842F480321A6006E0064B4B
:103BC000054A126842F4A0221A6000BF07F10C07F0
:103BD000BD4680BC704700BF0010024080B582B077
:103BE00000AF4FF000033B604FF00003FB714FF05C
:103BF0000003BB714FF0310000F072FB0346BB7154
:103C00003B6803F101033B603B68B3F5A06F02D052
:103C1000BB79002BEED04FF0310000F061FB034682
:103C2000002B03D04FF00103FB7102E04FF00003C3
:103C3000FB71FB79184607F10807BD4680BD00BF40
:103C400080B485B000AF0346FB714FF00003FB600A
:103C50000A4B1B68FB60FB6823F0F803FB60FB79F1
:103C60004FEAC303FA6842EA0303FB60034BFA68B6
:103C70001A6007F11407BD4680BC7047001002406F
:103C800080B483B000AF0346FB71044BFA791A602D
:103C900007F10C07BD4680BC704700BF00004242E0
:103CA00080B485B000AF786039604FF00003FB60EE
:103CB0000B4B5B68FB60FB6823F47413FB607A6852
:103CC0003B6842EA0303FA6842EA0303FB60044BE1
:103CD000FA685A6007F11407BD4680BC704700BF00
:103CE0000010024080B483B000AF0346FB71044B68
:103CF000FA791A6007F10C07BD4680BC704700BF17
:103D00006000424280B485B000AF786039604FF007
:103D10000003FB600C4BDB6AFB60FB6823F4803321
:103D200023F00F03FB607A683B6842EA0303FA68FA
:103D300042EA0303FB60044BFA68DA6207F11407F6
:103D4000BD4680BC704700BF0010024080B485B003
:103D500000AF78604FF00003FB600A4B5B68FB60CC
:103D6000FB6823F00303FB60FA687B6842EA030305
:103D7000FB60044BFA685A6007F11407BD4680BC2B
:103D8000704700BF0010024080B400AF044B5B6876
:103D9000DBB203F00C03DBB21846BD4680BC7047B3
:103DA0000010024080B485B000AF78604FF000038F
:103DB000FB600A4B5B68FB60FB6823F0F003FB6071
:103DC000FA687B6842EA0303FB60044BFA685A60B6
:103DD00007F11407BD4680BC704700BF00100240C9
:103DE00080B485B000AF78604FF00003FB600A4BF1
:103DF0005B68FB60FB6823F4E063FB60FA687B6848
:103E000042EA0303FB60044BFA685A6007F11407A7
:103E1000BD4680BC704700BF0010024080B485B032
:103E200000AF78604FF00003FB600B4B5B68FB60FA
:103E3000FB6823F46053FB607B684FEAC303FA68B6
:103E400042EA0303FB60044BFA685A6007F1140767
:103E5000BD4680BC704700BF0010024080B483B0F4
:103E600000AF02460B46FA71BB71BB79002B09D03B
:103E70000D4B0D4A1278D1B2FA7941EA0202D2B260
:103E80001A700BE0084B084A1278D1B2FA796FEA3F
:103E90000202D2B201EA0202D2B21A7007F10C0792
:103EA000BD4680BC704700BF0910024080B483B09B
:103EB00000AF7860034B7A681A6007F10C07BD46C3
:103EC00080BC7047D800424280B485B000AF7860B3
:103ED0004FF00003FB600A4B5B68FB60FB6823F458
:103EE0004043FB60FA687B6842EA0303FB60044BD3
:103EF000FA685A6007F11407BD4680BC704700BFDE
:103F00000010024080B483B000AF0346FB710E4B3B
:103F10004FF000021A700C4B4FF000021A70FB7940
:103F2000012B02D0042B05D009E0074B4FF0010212
:103F30001A7004E0044B4FF005021A7000BF07F13D
:103F40000C07BD4680BC70472010024080B483B08F
:103F500000AF0346FB71044BFA791A6007F10C07B6
:103F6000BD4680BC704700BF8004424280B483B02D
:103F700000AF7860054B054A116A7A6841EA02028F
:103F80001A6207F10C07BD4680BC70470010024062
:103F900080B483B000AF0346FB71044BFA791A601A
:103FA00007F10C07BD4680BC704700BF3C0442428D
:103FB00080B489B000AF78604FF00003FB614FF030
:103FC0000003BB614FF000037B614FF000033B61D6
:103FD0004FF00003FB60504B5B6803F00C03FB6188
:103FE000FB69042B07D0082B09D0002B32D17B684A
:103FF0004A4A1A6032E07B68484A1A602EE0464B13
:104000005B6803F47013BB61434B5B6803F480335C
:104010007B61BB694FEA934303F10203BB617B6998
:10402000002B06D1BB693E4A02FB03F27B681A6093
:1040300014E0394BDB6A03F00F0303F10103FB606B
:10404000364AFB68B2FBF3F3BA6902FB03F27B6802
:104050001A6003E07B68314A1A6000BF2E4B5B6830
:1040600003F0F003FB61FB694FEA1313FB612D4A78
:10407000FB69D3181B78DBB23B617B681A683B692C
:1040800022FA03F27B685A60234B5B6803F4E06317
:10409000FB61FB694FEA1323FB61224AFB69D318DA
:1040A0001B78DBB23B617B685A683B6922FA03F2FA
:1040B0007B689A60184B5B6803F46053FB61FB6993
:1040C0004FEAD323FB61174AFB69D3181B78DBB295
:1040D0003B617B685A683B6922FA03F27B68DA60CD
:1040E0000D4B5B6803F44043FB61FB694FEA93337C
:1040F000FB610D4AFB69D3181B78DBB23B617B681F
:10410000DA683B69B2FBF3F27B681A6107F12407B6
:10411000BD4680BC704700BF0010024000127A000C
:1041200000093D00140000202400002080B483B06A
:1041300000AF78600B46FB70FB78002B07D00B4B71
:104140000A4A51697A6841EA02025A6108E0074B5B
:10415000064A51697A686FEA020201EA02025A616C
:1041600007F10C07BD4680BC704700BF001002403D
:1041700080B483B000AF78600B46FB70FB78002BF7
:1041800007D00B4B0A4A91697A6841EA02029A61A8
:1041900008E0074B064A91697A686FEA020201EA71
:1041A00002029A6107F10C07BD4680BC704700BF50
:1041B0000010024080B483B000AF78600B46FB7003
:1041C000FB78002B07D00B4B0A4AD1697A6841EA89
:1041D0000202DA6108E0074B064AD1697A686FEAA1
:1041E000020201EA0202DA6107F10C07BD4680BC57
:1041F000704700BF0010024080B483B000AF786009
:104200000B46FB70FB78002B07D00B4B0A4AD1689A
:104210007A6841EA0202DA6008E0074B064AD16890
:104220007A686FEA020201EA0202DA6007F10C071B
:10423000BD4680BC704700BF0010024080B483B010
:1042400000AF78600B46FB70FB78002B07D00B4B60
:104250000A4A11697A6841EA02021A6108E0074BCA
:10426000064A11697A686FEA020201EA02021A61DB
:1042700007F10C07BD4680BC704700BF001002402C
:1042800080B483B000AF0346FB71044BFA791A6027
:1042900007F10C07BD4680BC704700BF4004424296
:1042A00080B483B000AF0346FB71044BFA791A6007
:1042B00007F10C07BD4680BC704700BF4C0042426E
:1042C00080B483B000AF0346FB71044BFA791A70D7
:1042D00007F10C07BD4680BC704700BF07100240C5
:1042E00080B487B000AF0346FB714FF00003FB6062
:1042F0004FF000037B614FF00003FB74FB794FEA42
:104300005313DBB2FB60FB68012B03D1144B1B681A
:104310007B6109E0FB68022B03D1114B1B6A7B61B7
:1043200002E00F4B5B6A7B61FB7903F01F03FB60CC
:10433000FB687A6922FA03F303F00103DBB2002B76
:1043400003D04FF00103FB7402E04FF00003FB7455
:10435000FB7C184607F11C07BD4680BC704700BFB8
:104360000010024080B400AF044B044A526A42F08D
:1043700080725A62BD4680BC704700BF0010024088
:1043800080B485B000AF0346FB714FF00003FB73B0
:104390000A4B9A68FB7902EA0303002B03D04FF023
:1043A0000103FB7302E04FF00003FB73FB7B184635
:1043B00007F11407BD4680BC704700BF00100240E3
:1043C00080B483B000AF0346FB71044BFA791A70D6
:1043D00007F10C07BD4680BC704700BF0A100240C1
:1043E00080B584B000AF78600B46FB704FF00003DF
:1043F000FB73FB78786819464FF001024FF47A732B
:10440000FEF790F80346002B0AD078684FF47A71D3
:10441000FEF7FAF8786800F091F84FF0000310E02A
:1044200007F10F03786819464FF001024FF47A73D1
:10443000FEF752F90346002B02D04FF0000300E0D4
:10444000FB7B184607F11007BD4680BD80B586B0DE
:1044500000AFF8600B467A60FB72FB7AF868194689
:104460004FF001024FF47A73FEF75CF80346FB75D8
:1044700097F91730002B09D0F8684FF47A71FEF7DE
:10448000C3F8F86800F05AF8FB7D11E0F868796825
:104490004FF001024FF47A73FEF71EF90346FB75E5
:1044A00097F91730002B01D0FB7D01E04FF000039E
:1044B000184607F11807BD4680BD00BF80B584B01F
:1044C00000AF786013460A46FA70BB70FB787868D4
:1044D00019464FF000024FF47A73FEF723F80346B3
:1044E000FB7397F90F30002B09D078684FF47A717D
:1044F000FEF78AF8786800F021F8FB7B18E007F1F6
:104500000203786819464FF001024FF47A73FEF700
:10451000A3F80346FB7378684FF47A71FEF774F8DA
:1045200097F90F30002B01D0FB7B01E04FF0000327
:10453000184607F11007BD4680BD00BF80B582B0A8
:1045400000AF786078680349FDF78CFF07F1080732
:10455000BD4680BDA086010080B582B000AF786006
:104560007A68104B9A420CD14FF400104FF00101C1
:10457000FFF764FE4FF400104FF00001FFF75EFEFE
:104580000BE04FF480004FF00101FFF757FE4FF4AE
:1045900080004FF00001FFF751FE07F10807BD460C
:1045A00080BD00BF0054004080B58AB000AF786085
:1045B00039604FF00003FB844FF000037B844FF021
:1045C0000403BB84604BFB617B689B88FB84FB8C92
:1045D00023F03F03FB8407F108031846FFF7E8FCCC
:1045E0003B69FB61FA69594BA3FB02134FEA934302
:1045F0007B84FA8C7B8C42EA0303FB847B68FA8C15
:104600009A807B681B889BB223F001039AB27B6877
:104610001A804FF00003FB843B681A684C4B9A42A7
:1046200019D83B681B684FEA4303FA69B2FBF3F3FE
:10463000BB84BB8C032B02D84FF00403BB84FA8CE1
:10464000BB8C42EA0303FB847B8C03F101039AB227
:104650007B681A8449E03B68DA884BF6FF739A421C
:104660000AD13B681A6813464FEA43039B18FA695C
:10467000B2FBF3F3BB8410E03B681A6813464FEAC1
:1046800083039B184FEA83029B18FA69B2FBF3F38A
:10469000BB84BB8C43F48043BB84BB8C4FEA035385
:1046A0004FEA1353002B03D1BB8C43F00103BB84AF
:1046B000BA8CFB8C42EA03039BB26FEA43436FEA76
:1046C0005343FB847B8C4FF4967202FB03F3214A25
:1046D00082FB03124FEAA2124FEAE373D31A9BB292
:1046E00003F101039AB27B681A847B68FA8C9A837F
:1046F0007B681B889BB243F001039AB27B681A80E7
:104700007B681B88FB84FB8C23F4806323F00A0303
:10471000FB843B689A883B685B8942EA03039AB250
:10472000FB8C42EA0303FB847B68FA8C1A803B68AB
:104730009A893B681B8942EA03039AB27B681A8113
:1047400007F12807BD4680BD00127A0083DE1B43B7
:10475000A0860100D34D621080B483B000AF7860B2
:104760007B6841F288321A607B684FF000029A80C1
:104770007B684BF6FF72DA807B684FF000021A818B
:104780007B684FF000025A817B684FF480429A8127
:1047900007F10C07BD4680BC704700BF80B483B0F2
:1047A00000AF78600B46FB70FB78002B08D07B686D
:1047B0001B889BB243F001039AB27B681A8007E022
:1047C0007B681B889BB223F001039AB27B681A8036
:1047D00007F10C07BD4680BC704700BF80B483B0B2
:1047E00000AF78600B46FB70FB78002B08D07B682D
:1047F0009B889BB243F400639AB27B689A8007E07F
:104800007B689B889BB223F400639AB27B689A8092
:1048100007F10C07BD4680BC704700BF80B483B071
:1048200000AF78600B46FB70FB78002B08D07B68EC
:104830009B889BB243F480539AB27B689A8007E0CE
:104840007B689B889BB223F480539AB27B689A80E2
:1048500007F10C07BD4680BC704700BF80B483B031
:1048600000AF78600B46FB70FB78002B08D07B68AC
:104870001B889BB243F480739AB27B681A8007E06E
:104880007B681B889BB223F480739AB27B681A8082
:1048900007F10C07BD4680BC704700BF80B483B0F1
:1048A00000AF78600B46FB70FB78002B08D07B686C
:1048B0001B889BB243F400739AB27B681A8007E0AE
:1048C0007B681B889BB223F400739AB27B681A80C2
:1048D00007F10C07BD4680BC704700BF80B483B0B1
:1048E00000AF78600B46FB70FB78002B08D07B682C
:1048F0001B889BB243F480639AB27B681A8007E0FE
:104900007B681B889BB223F480639AB27B681A8011
:1049100007F10C07BD4680BC704700BF80B485B06E
:1049200000AF78600B46FB704FF00003FB817B68A3
:104930009B89FB81FB8923F0FE03FB81FB789BB203
:1049400003F0FE039AB2FB8942EA03039BB2FB81A8
:104950007B68FA899A8107F11407BD4680BC7047CD
:1049600080B483B000AF78600B46FB70FB78002BFF
:1049700008D07B689B899BB243F001039AB27B68A5
:104980009A8107E07B689B899BB223F001039AB26E
:104990007B689A8107F10C07BD4680BC704700BF59
:1049A00080B483B000AF78600B46FB70FB78002BBF
:1049B00008D07B681B889BB243F040039AB27B68A7
:1049C0001A8007E07B681B889BB223F040039AB2F1
:1049D0007B681A8007F10C07BD4680BC704700BF9A
:1049E00080B483B000AF786013460A467A807B704B
:1049F0007B78002B09D07B689B889AB27B8842EA3F
:104A000003039AB27B689A800BE07B689B889AB21A
:104A10007B886FEA03039BB202EA03039AB27B68C6
:104A20009A8007F10C07BD4680BC704780B483B004
:104A300000AF78600B46FB70FB789AB27B681A82F5
:104A400007F10C07BD4680BC704700BF80B483B03F
:104A500000AF78607B681B8A9BB2DBB2184607F117
:104A60000C07BD4680BC704780B483B000AF78604F
:104A700013460A46FA70BB70BB78002B04D0FB7853
:104A800043F00103FB7003E0FB7823F00103FB70AC
:104A9000FB789AB27B681A8207F10C07BD4680BC8E
:104AA000704700BF80B485B000AF78600B46FB70E4
:104AB0004FF00003FB607B68FB60FA78FB68D3185B
:104AC000FB60FB681B889BB2184607F11407BD46C4
:104AD00080BC704780B483B000AF78600B46FB7039
:104AE000FB78002B0AD07B681B889BB26FEA43439C
:104AF0006FEA53439AB27B681A8009E07B681B888F
:104B00009BB24FEA43434FEA53439AB27B681A8001
:104B100007F10C07BD4680BC704700BF80B483B06E
:104B200000AF78600B467B807B88B3F5006F08D1BF
:104B30007B681B889BB243F400639AB27B681A803F
:104B400007E07B681B889BB223F400639AB27B6802
:104B50001A8007F10C07BD4680BC704780B483B053
:104B600000AF78600B467B807B88B3F5005F08D18F
:104B70007B681B889BB243F400539AB27B681A800F
:104B800007E07B681B889BB223F400539AB27B68D2
:104B90001A8007F10C07BD4680BC704780B483B013
:104BA00000AF78600B46FB70FB78002B08D07B6869
:104BB0001B889BB243F480539AB27B681A8007E04B
:104BC0007B681B889BB223F480539AB27B681A805F
:104BD00007F10C07BD4680BC704700BF80B483B0AE
:104BE00000AF78600B467B807B88B3F5006F08D1FF
:104BF0007B681B889BB243F400639AB27B681A807F
:104C000007E07B681B889BB223F400639AB27B6841
:104C10001A8007F10C07BD4680BC704780B483B092
:104C200000AF78600B46FB70FB78002B08D07B68E8
:104C30001B889BB243F020039AB27B681A8007E07E
:104C40007B681B889BB223F020039AB27B681A8092
:104C500007F10C07BD4680BC704700BF80B483B02D
:104C600000AF78607B681B8B9BB24FEA13239BB22B
:104C7000DBB2184607F10C07BD4680BC704700BF89
:104C800080B483B000AF78600B46FB70FB78002BDC
:104C900008D07B681B889BB243F010039AB27B68F4
:104CA0001A8007E07B681B889BB223F010039AB23E
:104CB0007B681A8007F10C07BD4680BC704700BFB7
:104CC00080B483B000AF78600B46FB70FB78002B9C
:104CD00008D17B681B889BB243F080039AB27B6843
:104CE0001A8007E07B681B889BB223F080039AB28E
:104CF0007B681A8007F10C07BD4680BC704700BF77
:104D000080B483B000AF78600B467B807B88B3F5BE
:104D1000804F08D07B689B8B9BB223F480439AB270
:104D20007B689A8307E07B689B8B9BB243F480434C
:104D30009AB27B689A8307F10C07BD4680BC704726
:104D400080B487B000AF786039604FF000033B61FA
:104D50004FF00003FB604FF00003BB604FF0000317
:104D6000FB757B689B8A9BB2FB607B681B8B9BB24D
:104D7000BB60BB684FEA0343BB60FA68BB6842EAAA
:104D8000030323F07F433B613A693B681A403B6869
:104D90009A4203D14FF00103FB7502E04FF000038C
:104DA000FB75FB7D184607F11C07BD4680BC7047AC
:104DB00080B487B000AF78604FF000037B614FF0A4
:104DC00000033B614FF00003FB607B689B8A9BB252
:104DD0003B617B681B8B9BB2FB60FB684FEA034324
:104DE000FB603A69FB6842EA030323F07F437B617F
:104DF0007B69184607F11C07BD4680BC704700BFA1
:104E000080B487B000AF786039604FF00003FB7565
:104E10004FF000033B614FF00003FB607B68FB60D9
:104E20003B684FEA13733B613B6823F07F433B6071
:104E30003B69002B04D0FB6803F11403FB6007E01F
:104E40003B684FEA13433B60FB6803F11803FB60C8
:104E5000FB681A683B6802EA0303002B03D04FF09B
:104E60000103FB7502E04FF00003FB75FB7D184664
:104E700007F11C07BD4680BC704700BF80B485B0F9
:104E800000AF786039604FF00003FB603B6823F0AF
:104E90007F43FB60FB689BB26FEA03039AB27B68B7
:104EA0009A8207F11407BD4680BC704780B485B074
:104EB00000AF786039604FF00003FB734FF00003E0
:104EC000BB603B6803F0E0634FEA13427B689B885A
:104ED0009BB202EA0303BB603B6823F07F433B6065
:104EE0007B689B8A9BB21A463B6802EA0303002B4D
:104EF00006D0BB68002B03D04FF00103FB7302E028
:104F00004FF00003FB73FB7B184607F11407BD4607
:104F100080BC704780B485B000AF786039604FF0D6
:104F20000003FB603B6823F07F43FB60FB689BB2A0
:104F30006FEA03039AB27B689A8207F11407BD46B1
:104F400080BC704780B483B000AF03463960FB710A
:104F500097F90730002B0DDA0E49FB7903F00F03A8
:104F6000A3F104033A68D2B24FEA0212D2B2CB18CC
:104F70001A760AE0084997F907303A68D2B24FEA40
:104F80000212D2B2CB1883F8002307F10C07BD46FA
:104F900080BC704700ED00E000E100E080B582B029
:104FA00000AF78607A686FF07F439A4202D94FF081
:104FB000010316E00D4B7A6822F07F4202F1FF32C6
:104FC0005A604FF0FF304FF00F01FFF7BBFF074B68
:104FD0004FF000029A60054B4FF007021A604FF045
:104FE0000003184607F10807BD4680BD10E000E049
:104FF00080B500AF00F09AF84FF000004FF00001CC
:10500000FEF71CFC1D484FF001014FF482724FF077
:105010000803FEF7B7FC1A48FEF7B4FC194B9B686F
:1050200003F00103DBB2002B14D017484FF05701F7
:10503000FEF7A8FC4FF001004FF00A01FEF7FEFB5F
:1050400012484FF014014FF09B024FF00803FEF797
:1050500099FC02E00E48FEF795FC0A4B9B6803F0B2
:105060000103DBB2002B01D000F014F84FF0320046
:10507000FDF770FC00F022F8BEE700BF4CB300085B
:1050800060B300080008014068B3000870B300086E
:1050900078B3000880B500AF07484FF00001FBF778
:1050A000A3FD05484FF00101FBF79EFD4FF0010005
:1050B000FEF758FB80BD00BF0010004080B500AF78
:1050C000174800F091F80346002B06D0154B154AFF
:1050D000126942F480721A6105E0124B114A12699A
:1050E00042F080721A61104B1B7803F00103DBB2AF
:1050F000002B06D10B4B0B4A126942F400721A6165
:1051000005E0084B074A126942F000721A61064B2B
:105110001B7803F10103DAB2034B1A7080BD00BFA4
:105120000010004000100140B405002080B582B09E
:1051300000AFFDF7C5FF00BF294B1A68294BA3FB41
:1051400002134FEA13431846FFF728FF0346002BCC
:10515000F2D1FDF7B5F8FEF765FB4FF018033B7091
:105160004FF018037B704FF00003BB704FF0060345
:10517000FB704FF009033B714FF008037B714FF058
:105180000903BB714FF00603FB713B464FF0000073
:105190001946FEF711FC4FF000033B704FF004037B
:1051A0007B704FF00E03BB704FF01503FB704FF098
:1051B00004033B714FF004037B714FF00403BB7198
:1051C0004FF00003FB713B464FF001001946FEF71C
:1051D000F3FBFCF7E9FF07F10807BD4680BD00BF00
:1051E0000000002073B2E74580B483B000AF786060
:1051F0007B681B889BB2DBB203F00103DBB218466D
:1052000007F10C07BD4680BC704700BFF0B5141E07
:105210009BB0054620DB4FF402720091ADF80C20E4
:105220001A4604916946209B08BF26464FF0FF3777
:1052300018BF661EADF80E700296059600F024F8B1
:10524000B0F1FF3F05DB14B1009B00221A701BB0C8
:10525000F0BD8B232B60F6E78B234FF0FF302B60E4
:10526000F5E700BFF0B540F2280483B0C2F20004B5
:1052700007460E46154600932068394632462B46AF
:10528000FFF7C4FF03B0F0BD2DE9F04FC5B01446E1
:1052900012930C91119002F04BFB0068199003F0EF
:1052A000EFFC1C900C98838913F0800F03D00369E6
:1052B000002B01F06F810DF17C0A002356460DF1A1
:1052C000F7010E9309941A931B9317931D930F9351
:1052D0000791CDF8E4A03B933A93099A1378B3F180
:1052E000250218BF0122002B0CBF002302F001038E
:1052F000002B00F0BD80099B5A1C174601323B78F9
:10530000191E18BF0121252B0CBF002301F001033A
:10531000002BF2D1099CB7EB040810D03A9C0998F5
:1053200001343B9D072CC6F80480306045443A9414
:105330003B9500F3818008360F9941440F913B78EB
:10534000002B00F081807C1C002200230D928DF840
:105350000F31202509942B217B784FF0FF370892DD
:1053600022460132A3F12000582800F21C83DFE816
:1053700010F02D031A031A0336031A031A031A0333
:105380001A031A031A03C70381001A035D0085007C
:105390001A039F00A500A500A500A500A500A50073
:1053A000A500A500A5001A031A031A031A031A037D
:1053B0001A031A031A031A031A03B70041021A0345
:1053C00041021A031A031A031A037F021A031A036B
:1053D00085021A031A031A031A031A03A3021A03F3
:1053E0001A03B2021A031A031A031A031A031A033E
:1053F0001A031A031A031A0354033C03410241021D
:1054000041024E033C031A031A030B031A039A03C7
:1054100068037E03DD021A03E3021A03AB031A03D7
:105420001A03D2030D9B12905B420D93089C44F02B
:1054300004040894137894E7119839AA0C9903F09E
:105440004FFC40B9564677E73B9B23B1119839AAE8
:105450000C9903F045FC0C990F9A8B8913F0400FBF
:1054600018BF4FF0FF320F920F9845B0BDE8F08F94
:10547000099F64E78DF80F11137872E712F8013B6A
:105480002A2B01F0FC81A3F13000092801F2AC8144
:105490001446002714F8013B07EB870700EB47078A
:1054A000A3F1300009282246F4D947EAE77759E703
:1054B000089B43F080030893137852E714460020BA
:1054C000A3F1300814F8013B00EB8000A3F1300C8D
:1054D0002246BCF1090F08EB4000F1D90D9041E7DD
:1054E0000992089A169342F010020892089B13F052
:1054F000200F00F08182129CE31D23F0070303F1CB
:1055000008001290D3E90045002C75F10002C0F2AA
:10551000CD8554EA05034FF001030CBF00220122A0
:10552000002FA2BF089921F080010891002F18BF19
:1055300042F00102002A00F0AC83012B00F0FE844F
:10554000022B00F0DE840DF1BC0B0BF12703EA08FF
:105550004FEAD40848EA457804F00704114604F1FC
:1055600030020D4644469C461A70013B54EA050041
:10557000EDD10899CDF84CC011F0010F40F08885AD
:105580000BF1280BCCEB0B0210929DF80F210020A1
:10559000109C1497BC42B8BF3C4618900A9412B1B4
:1055A0000A9801300A90089911F0020B02D00A9B68
:1055B00002330A93089C14F08404159440F0CD82C1
:1055C0000D980A99471A002F40F3C782102F41F314
:1055D00065803B9D4BF28C383A9CC0F6000829460A
:1055E0004FF0100922460C9D4446DDF8448002E04D
:1055F000103F102F1BDD01323460C6F804901031CB
:105600000836072A3A9206F108033B91F0DD40463E
:10561000294639AA564603F063FB0AF1080300281D
:105620007FF419AF103F3B99102F3A9AE3DCA04664
:105630000D4614460134C6F80080072C77603D44BF
:105640003A943B9500F37E829DF80F211E466AB185
:105650003A9C43AB0333336001340123072C73605E
:105660001D443A943B9500F3E9830836BBF1000FE3
:105670000CD03A9C43AB3360022301347360072C97
:105680001D443A943B9500F3CE830836159A802A40
:1056900000F01083149910980F1A002F40F35B83C9
:1056A000102F40F3EB853A9C2A46DFF8988A4FF09A
:1056B000100B23460C9D4446DDF8448002E0103F69
:1056C000102F1BDD01333460C6F804B010320836E9
:1056D000072B3A9306F108093B92F0DD4046294634
:1056E00039AA0AF1080903F0FBFA564600287FF4AC
:1056F000B2AE103F3B9A102F3A9BE3DCA046154612
:105700001C460134C6F80080072C77603D443A946B
:105710003B9500F37D83089A12F4807F40F04E821F
:105720003A9C109B01341398072C1D44C9F804308F
:10573000C9F800003B953A9400F3358209F1080955
:10574000089C14F0040F46D00D980A99461A002EB2
:1057500041DD102E40F3DA873A9C4BF28C38C0F6CC
:10576000000810272346DDF830B04446DDF84480B9
:1057700002E0103E102E19DD01331035072BC9F859
:105780000040C9F8047009F108093A933B95F0DD2F
:105790004046594639AAD14603F0A2FA00287FF4C0
:1057A0005AAE103E3B9D102E3A9BE5DCA0461C46AF
:1057B0000134C9F80080072CC9F8046035443A94D4
:1057C0003B9508DD119839AA0C9903F089FA002855
:1057D0007FF441AE3B9D0F9A0A9C0D9B9C42ACBF4F
:1057E0001219D2180F92002D40F003830020564664
:1057F0003A9072E508991D46099211F0080F169328
:1058000000F08784129AD31D23F0070303F10804E4
:10581000129418681A905B681B931A981B9903F0EE
:10582000E5F8012840F050841A98002200231B99C3
:1058300005F0C2F9002840F01C879DF80F210320D5
:105840004BF2B0334BF2AC310A901698C0F600011F
:10585000C0F6000300244728D8BF0B4608991393CD
:10586000032321F08001149408911093189496E674
:10587000089C44F008040894137872E5089909928A
:1058800041F010010891089A169312F0200300F0DD
:10589000DF80129BDA1D002322F0070202F10804C8
:1058A0001294D2E9004554EA05000CBF00220122FF
:1058B00000208DF80F0133E6089C099244F0100493
:1058C00008940898169310F0200F00F004811299A4
:1058D0000123CA1DE0E709924BF2BC31089AC0F6D9
:1058E0000001169312F0200F179100F02081129CF6
:1058F000E31D23F0070303F108001290D3E90045EC
:1059000054EA0502089B0CBF00220122134200F05A
:10591000698316983023089901228DF80C310223EF
:1059200041F002018DF80D010891C1E7089840F09F
:1059300020000890137814E509920021129A16931A
:105940008DF80F11141D13681393002B00F0F086CF
:10595000002FC0F29386139800213A4602F0C6FA4F
:10596000002800F03687139BC01A1090B84240F30D
:10597000F484002027EAE77114900A919DF80F2122
:105980001294109718900AE613786C2B0BBF089BA3
:10599000089C43F0200344F010040ABF08930894C5
:1059A00012F8013FDDE409921693002B3FF44CAD51
:1059B000002201218DF8BC302FAC00230A911091F8
:1059C0008DF80F31149218921394ECE59DF80F3175
:1059D000002B40F09B838DF80F511378C1E4089899
:1059E00040F0010008901378BBE41693089B0992DD
:1059F00013F0200F7FF47FAD089911F0100F00F025
:105A0000A383129A146804321292E5177CE5089871
:105A100040F0400008901378A3E416930121129BF4
:105A20000020099200221C1D0A911B6812941091FB
:105A30002FA98DF80F011492189213918DF8BC3094
:105A4000B1E50992089A169312F020037FF421AF72
:105A5000089911F0100200F09183129C226804341E
:105A6000002512941446003A18BF012220E7129B29
:105A70007821089C002509924BF2D0301A6844F036
:105A8000020404330894129314463023003A8DF82C
:105A90000C3118BF0122C0F600008DF80D111790CF
:105AA0000223169104E70992089A12F0200F00F0E1
:105AB0005883129B0F9C129819682246E3170430F2
:105AC0001290C1E9002308E40898099210F0200F11
:105AD00016937FF4FCAE089911F0100F40F09182FC
