:020000040800F2
:10000000300A0020F51000085D1100085D1100089D
:100010005D1100085D1100085D110008000000007E
:100020000000000000000000000000005D1100085A
:100030005D110008000000005D1100086504000863
:100040005D1100085D1100085D1100085D110008D8
:100050005D1100085D1100085D1100085D110008C8
:100060005D1100085D1100085D1100085D110008B8
:100070005D1100085D1100085D1100085D110008A8
:100080005D1100085D1100085D1100085D11000898
:100090005D1100085D1100085D1100085D11000888
:1000A0005D1100085D1100085D1100085D11000878
:1000B0005D1100085D1100085D1100085D11000868
:1000C0005D1100085D1100085D1100085D11000858
:1000D0005D1100085D1100085D1100085D11000848
:1000E0005D1100085D1100085D11000800000000AE
:1000F0000000000000000000000000000000000000
:1001000000000000000000005FF808F180B500AFBB
:100110004FF002004FF0010101F078FB4FF00500B5
:100120004FF0010101F050FB4FF008004FF00101CA
:1001300001F04AFB4FF010004FF0010101F044FBC9
:10014000954B9B6903F00403002B05D1924B924A17
:10015000926942F004029A61904B904A126822F030
:10016000F0021A608D4B8D4A12681A608A4B9B69A7
:1001700003F00403002B05D1874B874A926942F0B4
:1001800004029A61854B854A126822F470621A60F3
:10019000824B824A12681A607F4B9B6903F0080306
:1001A000002B05D17C4B7C4A926942F008029A618F
:1001B0007B4B7B4A126822F070621A60784B784A57
:1001C000126842F080721A60734B9B6903F0080357
:1001D000002B05D1704B704A926942F008029A6177
:1001E0006F4B6F4A526822F00F025A606C4B6C4A98
:1001F000526842F001025A60674B9B6903F00803A2
:10020000002B05D1644B644A926942F008029A615E
:10021000634B634A126822F470021A60604B604AB2
:10022000126842F480121A605B4B9B6903F008036A
:10023000002B05D1584B584A926942F008029A6146
:10024000574B574A526822F0F0025A60544B544AB6
:10025000526842F010025A604F4B9B6903F008034A
:10026000002B05D14C4B4C4A926942F008029A612E
:100270004B4B4B4A526822F470025A60484B484A32
:10028000526842F480125A60434B9B6903F00803A2
:10029000002B05D1404B404A926942F008029A6116
:1002A0003F4B3F4A526822F00F025A603C4B3C4A97
:1002B000526842F001025A60374B9B6903F0080311
:1002C000002B05D1344B344A926942F008029A61FE
:1002D000334B334A126822F070621A60304B304A56
:1002E000126842F080721A602B4B9B6903F0100376
:1002F000002B05D1284B284A926942F010029A61DE
:10030000284B284A526822F070425A60254B254AF1
:10031000526842F000425A60224B224A126942F46B
:1003200000421A611C4B9B6903F00403002B05D1AA
:10033000194B194A926942F004029A61174B174A05
:10034000526822F070425A60144B144A526842F0CC
:1003500000425A60114B114A126942F400421A617C
:100360000D4B9B6903F00803002B05D10A4B0A4A89
:10037000926942F008029A61094B094A126822F414
:1003800070221A60064B064A126842F400221A6074
:10039000034B034A126907E00010024000080140C5
:1003A000000C01400010014042F010021A612A4B7B
:1003B0009B6903F00403002B05D1274B264A926961
:1003C00042F004029A61254B244A126822F07062BE
:1003D0001A60224B214A126842F000621A601F4BD9
:1003E0001E4A126942F040021A611B4B9B6903F0DE
:1003F0000403002B05D1184B174A926942F00402FE
:100400009A61164B154A126822F070421A60134B1B
:10041000124A126842F000421A60104B0F4A1269E9
:1004200042F080021A610C4B9B6903F01003002B11
:1004300005D1094B084A926942F010029A61084BB3
:10044000074A526822F470025A60054B044A526807
:1004500042F480125A6080BD001002400008014042
:100460000010014080B400AF184B1B68002B05D072
:10047000164B1B6803F1FF32144B1A60144B1B8898
:1004800003F101039AB2124B1A80114B1A884CF2F5
:100490004F339A4216D90E4B4FF000021A800D4B83
:1004A0009B6803F40053002B06D00A4B094A1269DB
:1004B00042F000521A6105E0064B064A126942F406
:1004C00000521A61BD4680BC704700BFA8050020DD
:1004D000AC0500200010014080B483B000AF78600C
:1004E000064B7A681A6000BF044B1B68002BFBD1D7
:1004F00007F10C07BD4680BC704700BFA80500206F
:1005000080B483B000AF78607B684FF0640202FB78
:1005100003F2064B1A6000BF044B1B68002BFBD193
:1005200007F10C07BD4680BC704700BFA80500203E
:1005300080B485B000AF786039604FF00003FB8174
:100540007B681B88FB817A682F4B9A4213D07A68AC
:100550002E4B9A420FD07B68B3F1804F0BD07A6854
:100560002B4B9A4207D07A682A4B9A4203D07A687A
:10057000294B9A4209D1FB8923F07003FB813B6828
:100580005A88FB8942EA0303FB817A68234B9A422B
:100590000DD07A68224B9A4209D0FB8923F440732C
:1005A000FB813B68DA88FB8942EA0303FB817B68B5
:1005B000FA891A803B689A887B689A853B681A8812
:1005C0007B681A857A68104B9A420FD07A680F4B75
:1005D0009A420BD07A68134B9A4207D07A68124B32
:1005E0009A4203D07A68114B9A4204D13B681B7A35
:1005F0001A467B681A867B684FF001029A8207F1DF
:100600001407BD4680BC7047002C014000340140F7
:100610000004004000080040000C004000100040B2
:1006200000140040004001400044014000480140E7
:1006300080B485B000AF786039604FF000037B81F3
:100640004FF00003FB814FF00003BB817B681B8CE4
:100650009BB223F480739AB27B681A847B681B8CEC
:10066000FB817B689B88BB817B689B8B7B817B89C3
:1006700023F070037B817B8923F003037B813B683C
:100680001A887B8942EA03037B81FB8923F4007388
:10069000FB813B681B894FEA03239AB2FB8942EA3C
:1006A0000303FB813B685B884FEA03239AB2FB8913
:1006B00042EA0303FB817A68264B9A4203D07A68A8
:1006C000254B9A4233D1FB8923F40063FB813B68BD
:1006D0005B894FEA03239AB2FB8942EA0303FB8159
:1006E000FB8923F48063FB813B689B884FEA0323EB
:1006F0009AB2FB8942EA0303FB81BB8923F480534E
:10070000BB81BB8923F40053BB813B689B894FEAC3
:1007100003139AB2BB8942EA0303BB813B68DB89BE
:100720004FEA03139AB2BB8942EA0303BB817B6899
:10073000BA899A807B687A899A833B68DA887B6871
:100740009A877B68FA891A8407F11407BD4680BC32
:10075000704700BF002C01400034014080B483B0DA
:1007600000AF78607B684FF6FF729A807B684FF02D
:1007700000021A807B684FF00002DA807B684FF03D
:1007800000025A807B684FF000021A7207F10C07D2
:10079000BD4680BC704700BF80B483B000AF7860B6
:1007A0000B46FB70FB78002B08D07B681B889BB244
:1007B00043F001039AB27B681A8007E07B681B88CC
:1007C0009BB223F001039AB27B681A8007F10C07F1
:1007D000BD4680BC704700BF80B483B000AF786076
:1007E00013460A467A807B707B78002B09D07B68A1
:1007F0009B899AB27B8842EA03039AB27B689A810A
:100800000BE07B689B899AB27B886FEA03039BB2FB
:1008100002EA03039AB27B689A8107F10C07BD468E
:1008200080BC704780B483B000AF78600B467B809B
:100830007B687A889A8207F10C07BD4680BC7047B6
:1008400080B487B000AFF86079813A81FB804FF0C7
:100850000003FB824FF00003BB824FF000037B825A
:10086000FB681B89FB82FB681B8BBB82FB681B8CB4
:100870007B82FB8A23F00703FB82FA8A7B8942EAA8
:100880000303FB82BB8A23F4407323F00303BB8280
:10089000BB8A43F4807343F00103BB827B8A23F05D
:1008A00022037B82FB884FEA03139AB23B8942EA18
:1008B00003039AB27B8A42EA03037B82FB68FA8ACB
:1008C0001A81FB68BA8A1A83FB687A8A1A8407F14C
:1008D0001C07BD4680BC704780B483B000AF786011
:1008E0000B467B807B681B889BB223F008039AB27F
:1008F0007B681A807B681B889AB27B8842EA030374
:100900009AB27B681A8007F10C07BD4680BC70471D
:1009100080B483B000AF78600B467B807B886FEA41
:1009200003039AB27B681A8207F10C07BD4680BCAC
:10093000704700BF80B483B000AF0346FB71094B22
:1009400097F907204FEA5212F97901F01F014FF091
:10095000010000FA01F143F8221007F10C07BD462F
:1009600080BC704700E100E080B483B000AF034674
:100970003960FB7197F90730002B0DDA0E49FB79CE
:1009800003F00F03A3F104033A68D2B24FEA021254
:10099000D2B2CB181A760AE0084997F907303A68BC
:1009A000D2B24FEA0212D2B2CB1883F8002307F179
:1009B0000C07BD4680BC704700ED00E000E100E0A0
:1009C00080B588B000AF07F114031846FFF7C6FEE4
:1009D0004FF400733B834FF00003FB8207F11403D5
:1009E00042481946FFF7A4FD40484FF003014FF07D
:1009F00000024FF00003FFF723FF3C4B4FF01602BD
:100A00009A843A484FF00101FFF7C6FE4FF06003A9
:100A1000BB804FF00103FB804FF4FA737B814FF0F2
:100A20000203BB8107F104034FF080401946FFF732
:100A3000FFFD4FF080404FF00001FFF7ADFE4FF09B
:100A40001E004FF00201FFF78FFF4FF01E00FFF76F
:100A500071FF45F6BF53BB824EF660233B8307F11F
:100A6000140323481946FFF763FD21484FF00101A5
:100A70004FF00102FFF7B0FE1D484FF00001FFF7F5
:100A80008BFE4FF036004FF00301FFF76DFF4FF084
:100A90003600FFF74FFF45F6BF53BB8241F2883364
:100AA0003B8307F1140313481946FFF741FD114832
:100AB0004FF00101FFF7B6FE0E484FF00101FFF7BE
:100AC00027FF0C484FF001014FF00102FFF784FEB1
:100AD00008484FF00801FFF7FFFE06484FF00001FD
:100AE000FFF75AFE07F12007BD4680BD0004004015
:100AF000000800400010004080B588B000AF78606A
:100B000039607A682A4B9A4206D14FF400104FF0B0
:100B1000010100F07BFE05E04FF480004FF0010181
:100B200000F074FE4FF008004FF0010100F04CFEA1
:100B300078684FF0000101F045FB786801F042FA57
:100B40004FF00003BB823B683B614FF48043BB83A3
:100B50004BF6FF73FB824FF480637B834FF00003FF
:100B60003B8378684FF0010101F02CFB07F1100383
:100B70007868194601F04EFA4FF01C03FB734FF0F2
:100B80000303BB737A680A4B9A4203D14FF0C00348
:100B9000BB8102E04FF44063BB8107F10C030548C1
:100BA000194600F0DFFA07F12007BD4680BD00BFFF
:100BB00000540040000C014080B584B000AF786064
:100BC000F970BA703B8078684FF0010101F01AFBB0
:100BD0003B88FB8103E0FB8903F1FF33FB817868ED
:100BE0002B4901F0CBFB0346002B02D1FB89002BE4
:100BF000F1D1FB89002B02D14FF0FD0341E0BB781E
:100C0000002B1BD0FB784FEA4303DBB27868194610
:100C10004FF0010201F074FB3B88FB8103E0FB898C
:100C200003F1FF33FB8178681A4901F0A7FB034603
:100C3000002B1ED1FB89002BF1D11AE0FB784FEA83
:100C40004303DBB2786819464FF0000201F058FB0D
:100C50003B88FB8103E0FB8903F1FF33FB8178686C
:100C60000D4901F08BFB0346002B02D1FB89002BC1
:100C7000F1D1FB89002B02D14FF0FF0301E04FF0CF
:100C800000035BB2184607F11007BD4680BD00BFE8
:100C900001000300020003008200070080B584B059
:100CA00000AF78600B467B8078684FF0010101F05F
:100CB000C9FA7B88FB8100BF78680B4901F096FB7D
:100CC0000346002B02D0FB89002BF5D1FB89002BBA
:100CD00002D14FF0FD0301E04FF000035BB2184674
:100CE00007F11007BD4680BD1000001080B586B02A
:100CF00000AFF860B960FA80BB8020E0BB681B7869
:100D0000BA6802F10102BA60F868194601F0DAFA2D
:100D1000BB88FB8203E0FB8A03F1FF33FB82F868A8
:100D2000114901F063FB0346002B02D0FB8A002B24
:100D3000F1D1FB8A002B02D14FF0FF030DE0FB88BD
:100D4000002B0CBF00230123DBB2FA8802F1FF3233
:100D5000FA80002BD2D14FF000035BB2184607F1A6
:100D60001807BD4680BD00BF0400001080B586B0E6
:100D700000AFF860B960FA80BB80F8684FF00101FD
:100D800001F080FAFB88012B2AD1F8684FF00001AE
:100D900001F078FA72B6FB681B8BF8684FF001011E
:100DA00001F050FA62B6BB88FB8203E0FB8A03F1D4
:100DB000FF33FB82F868754901F018FB0346002BEE
:100DC00002D1FB8A002BF1D1F86801F08BFA0346BF
:100DD0001A46BB681A70BB6803F10103BB60BAE036
:100DE000FB88022B3AD1F8684FF4006101F0A6FAB3
:100DF00072B6FB681B8BF8684FF0000101F042FAF5
:100E000062B6BB88FB8203E0FB8A03F1FF33FB82FF
:100E1000F8685F4901F0EAFA0346002B02D1FB8A29
:100E2000002BF1D172B6F8684FF0010101F00AFA17
:100E3000FB681B8A9BB2DAB2BB681A70BB6803F10D
:100E40000103BB6062B6FB681B8A9BB2DAB2BB6867
:100E50001A70BB6803F10103BB607CE0FB681B8B6D
:100E60001BE0BB88FB8203E0FB8A03F1FF33FB82BC
:100E7000F868474901F0BAFA0346002B02D1FB8A11
:100E8000002BF1D1F86801F02DFA03461A46BB6831
:100E90001A70BB6803F10103BB60FB88032B0CBF16
:100EA00000230123DBB2FA8802F1FF32FA80002B23
:100EB000D7D1BB88FB8203E0FB8A03F1FF33FB82BF
:100EC000F868334901F092FA0346002B02D1FB8AFD
:100ED000002BF1D172B6F86801F004FA03461A4605
:100EE000BB681A70BB6803F10103BB60F8684FF080
:100EF000010101F0A7F962B6F86801F0F3F90346C1
:100F00001A46BB681A70BB6803F10103BB60F8683E
:100F10004FF0000101F0B6F9BB88FB8203E0FB8AC9
:100F200003F1FF33FB82F8681A4901F027FA034600
:100F3000002B02D1FB8A002BF1D1F86801F0D2F925
:100F400003461A46BB681A70BB6803F10103BB6015
:100F50004FF00003FB80BB88FB8200BFF8680E499E
:100F600001F044FA0346002B02D0FB8A002BF5D196
:100F7000FB8A002B02D14FF0FD0301E04FF000038C
:100F80005BB2184607F11807BD4680BD400000104F
:100F900004000010400003001000001080B500AFF6
:100FA000174B174A126842F001021A60144A144B98
:100FB0005968144B01EA03035360114A104B1B6834
:100FC00023F0847323F4803313600D4B0C4A1268B2
:100FD00022F480221A600A4B094A526822F4FE0267
:100FE0005A60074B4FF41F029A60054B4FF0000206
:100FF000DA6200F00BF8044B4FF000629A6080BD9B
:10100000001002400000FFF800ED00E080B500AFE6
:1010100000F002F880BD00BF80B483B000AF4FF095
:1010200000037B604FF000033B60314B304A126895
:1010300042F480321A602E4B1B6803F400333B608D
:101040007B6803F101037B603B68002B03D17B6865
:10105000B3F5A06FEFD1264B1B6803F40033002BD0
:1010600003D04FF001033B6002E04FF000033B6010
:101070003B68012B37D11E4B1D4A52685A601C4BEE
:101080001B4A52685A601A4B194A52685A60184BE8
:10109000174A526822F47C125A60154B144A52685F
:1010A00042F498125A60124B114A126842F0807250
:1010B0001A6000BF0E4B1B6803F00073002BF9D0C1
:1010C0000B4B0B4A526822F003025A60084B084A45
:1010D000526842F002025A6000BF054B5B6803F0A1
:1010E0000C03082BF9D107F10C07BD4680BC7047F3
:1010F0000010024080B582B000AF134B7B60134BF1
:101100003B600BE07B681A683B681A603B6803F140
:1011100004033B607B6803F104037B603A680C4B7B
:101120009A42EFD30B480C494FF000028842B8BFF7
:1011300040F8042BFADBFFF731FF00F049F907F123
:101140000807BD4680BD00BFF088000800000020F1
:10115000A8050020A80500202C06002080B400AFC0
:10116000FEE700BF80B489B000AF786039604FF00F
:101170000003FB614FF000033B614FF00003BB61D4
:101180004FF00003FB604FF000037B614FF0000362
:10119000BB603B68DB7803F00F03FB613B68DB78E7
:1011A00003F01003002B05D03B689B78FA6942EAF4
:1011B0000303FB613B681B8803F0FF03002B51D046
:1011C0007B681B687B614FF00003BB6144E0BB6937
:1011D0004FF0010202FA03F3FB603B681B881A46DA
:1011E000FB6802EA03033B613A69FB689A422FD12C
:1011F000BB694FEA8303FB60FB684FF00F0202FA02
:1012000003F3BB60BB686FEA03037A6902EA030376
:101210007B61FB68FA6902FA03F37A6942EA030325
:101220007B613B68DB78282B07D1BB694FF001025B
:1012300002FA03F27B685A610AE03B68DB78482BCC
:1012400006D1BB694FF0010202FA03F27B681A6112
:10125000BB6903F10103BB61BB69072BB7D97B688D
:101260007A691A603B681B88FF2B56D97B685B68DC
:101270007B614FF00003BB6149E0BB6903F10803E8
:101280004FF0010202FA03F3FB603B681B881A4629
:10129000FB6802EA03033B613A69FB689A4232D178
:1012A000BB694FEA8303FB60FB684FF00F0202FA51
:1012B00003F3BB60BB686FEA03037A6902EA0303C6
:1012C0007B61FB68FA6902FA03F37A6942EA030375
:1012D0007B613B68DB78282B08D1BB6903F10803ED
:1012E0004FF0010202FA03F27B685A613B68DB7837
:1012F000482B08D1BB6903F108034FF0010202FA41
:1013000003F27B681A61BB6903F10103BB61BB692E
:10131000072BB2D97B687A695A6007F12407BD466A
:1013200080BC704780B483B000AF03463960FB7166
:1013300097F90730002B0DDA0E49FB7903F00F0304
:10134000A3F104033A68D2B24FEA0212D2B2CB1828
:101350001A760AE0084997F907303A68D2B24FEA9C
:101360000212D2B2CB1883F8002307F10C07BD4656
:1013700080BC704700ED00E000E100E080B582B085
:1013800000AF78607A686FF07F439A4202D94FF0DD
:10139000010316E00D4B7A6822F07F4202F1FF3222
:1013A0005A604FF0FF304FF00F01FFF7BBFF074BC4
:1013B0004FF000029A60054B4FF007021A604FF0A1
:1013C0000003184607F10807BD4680BD10E000E0A5
:1013D00080B582B000AF4FF00003FB804FF00003F8
:1013E000BB804FF00003FB7000F0D2F8594B594A14
:1013F000126942F040021A61564B564A126942F491
:1014000080721A6100F0BCF84FF000004FF000014C
:1014100000F090FC504800F001FD40F6B830FFF7B6
:101420006FF800F0B5FC4FF000004FF0000100F045
:1014300081FC00F039FD0346BB80484B1B88BA880D
:101440009A4202D94FF0010301E04FF01403FB7000
:10145000FA78BB88424811461A464FF0080300F05C
:10146000DDFC00F02BFD0346FB803E4800F0D6FC7F
:101470003D4B9B6803F40043002B21D000F028FD76
:1014800003463A48194600F0C9FC4FF001004FF0FE
:101490000A0100F04FFC364B1B88FA889A4202D9A9
:1014A0004FF0010301E04FF01403FB70FA78FB8862
:1014B000304811461A464FF0080300F0AFFC02E036
:1014C0002D4800F0ABFC00F05BF8224B9B6803F06A
:1014D0001003002B0CD11F4B1E4A126942F48002EC
:1014E0001A611C4B1B4A126942F020021A610BE080
:1014F000184B184A126942F400121A61154B154A2A
:10150000126942F040021A611C4B9B6803F40043CD
:10151000002B0CD10F4B0F4A126942F080721A61F6
:101520000C4B0C4A126942F400721A610BE0094B31
:10153000084A126942F000721A61064B054A1269A4
:1015400042F480721A61054BBA881A80084BFA88F7
:101550001A8068E7000C0140B4860008B00500203E
:10156000D8860008EC86000800100140F4860008C8
:10157000B2050020FC86000808870008000801402A
:1015800080B500AF4FF0010000F048FB80BD00BF08
:1015900080B582B000AFFFF701FD00BF294B1A688C
:1015A000294BA3FB02134FEA13431846FFF7E6FE4D
:1015B0000346002BF2D1FEF7A9FD00F0AFFB4FF080
:1015C00018033B704FF018037B704FF00003BB70A3
:1015D0004FF00603FB704FF009033B714FF0080317
:1015E0007B714FF00903BB714FF00603FB713B4663
:1015F0004FF00000194600F02BFC4FF000033B7049
:101600004FF004037B704FF00E03BB704FF01503D7
:10161000FB704FF004033B714FF004037B714FF0FC
:101620000403BB714FF00003FB713B464FF0010018
:10163000194600F00DFCFFF7C3F907F10807BD4696
:1016400080BD00BF0000002073B2E74580B489B0C0
:1016500000AF78604FF00003FB614FF00003BB6107
:101660004FF000037B614FF000033B614FF000033C
:10167000FB60504B5B6803F00C03FB61FB69042BC0
:1016800007D0082B09D0002B32D17B684A4A1A6058
:1016900032E07B68484A1A602EE0464B5B6803F4F0
:1016A0007013BB61434B5B6803F480337B61BB69A0
:1016B0004FEA934303F10203BB617B69002B06D120
:1016C000BB693E4A02FB03F27B681A6014E0394BA7
:1016D000DB6A03F00F0303F10103FB60364AFB688A
:1016E000B2FBF3F3BA6902FB03F27B681A6003E012
:1016F0007B68314A1A6000BF2E4B5B6803F0F00331
:10170000FB61FB694FEA1313FB612D4AFB69D31898
:101710001B78DBB23B617B681A683B6922FA03F2F3
:101720007B685A60234B5B6803F4E063FB61FB69F1
:101730004FEA1323FB61224AFB69D3181B78DBB203
:101740003B617B685A683B6922FA03F27B689A60C6
:10175000184B5B6803F46053FB61FB694FEAD323CA
:10176000FB61174AFB69D3181B78DBB23B617B68CE
:101770005A683B6922FA03F27B68DA600D4B5B68BA
:1017800003F44043FB61FB694FEA9333FB610D4A6D
:10179000FB69D3181B78DBB23B617B68DA683B6975
:1017A000B2FBF3F27B681A6107F12407BD4680BCE7
:1017B000704700BF0010024000127A0000093D008F
:1017C000140000202400002080B483B000AF7860B3
:1017D0000B46FB70FB78002B07D00B4B0A4A916934
:1017E0007A6841EA02029A6108E0074B064A916969
:1017F0007A686FEA020201EA02029A6107F10C07B5
:10180000BD4680BC704700BF0010024080B483B06A
:1018100000AF78600B46FB70FB78002B07D00B4BBA
:101820000A4AD1697A6841EA0202DA6108E0074BA4
:10183000064AD1697A686FEA020201EA0202DA61B5
:1018400007F10C07BD4680BC704700BF0010024086
:1018500080B483B000AF78600B46FB70FB78002B40
:1018600007D00B4B0A4A11697A6841EA02021A61F1
:1018700008E0074B064A11697A686FEA020201EA3A
:1018800002021A6107F10C07BD4680BC704700BF19
:101890000010024080B584B000AF0346FB714FF0EA
:1018A0000003FB7397F90730002B0FD0524B1B78C6
:1018B00023F00103DAB2504B1A704F4B1B784F489C
:1018C0004FF027011A4600F005FE0EE04A4B1B7848
:1018D00043F00103DAB2484B1A70474B1B78474874
:1018E0004FF027011A4600F0F5FD434B1B7843F0FB
:1018F0000203DAB2404B1A703F4B1B783F484FF05F
:1019000027011A4600F0E6FD3B4B1B7843F0040329
:10191000DAB2394B1A70384B1B7838484FF0270130
:101920001A4600F0D7FD4FF00100FEF7D5FD334811
:101930004FF0270100F098FD03464FEA1313DBB286
:101940004FEA0313FB732C4B1B7823F00403DAB22A
:10195000294B1A70284B1B7828484FF027011A464C
:1019600000F0B8FD4FF00100FEF7B6FD224B1B78EA
:1019700043F00403DAB2204B1A701F4B1B781F4848
:101980004FF027011A4600F0A5FD4FF00100FEF7C9
:10199000A3FD1A484FF0270100F066FD03464FEA09
:1019A0001313DBB2DAB2FB7B42EA0303DBB2FB7355
:1019B000114B1B7823F00403DAB20F4B1A700E4B55
:1019C0001B780E484FF027011A4600F083FD0A4BA2
:1019D0001B7823F00203DAB2074B1A70064B1B7810
:1019E00006484FF027011A4600F074FDFB7B1846AD
:1019F00007F11007BD4680BDB40500200058004027
:101A000080B582B000AF02460B46FA71BB7197F900
:101A10000630002B0FD05A4B1B7823F00103DAB2AB
:101A2000574B1A70564B1B7856484FF027011A46F1
:101A300000F050FD0EE0524B1B7843F00103DAB288
:101A40004F4B1A704E4B1B784E484FF027011A46E9
:101A500000F040FD4A4B1B7803F00F03DAB2484B0D
:101A60001A70FB794FEA1313DBB24FEA0313DAB2B1
:101A7000434B1B78DBB242EA0303DBB2DAB2404BE2
:101A80001A703F4B1B783F484FF027011A4600F071
:101A900021FD3B4B1B7843F00403DAB2384B1A703C
:101AA000374B1B7837484FF027011A4600F012FDDC
:101AB0004FF00100FEF710FD314B1B7823F00403BB
:101AC000DAB22F4B1A702E4B1B782E484FF027019D
:101AD0001A4600F0FFFC4FF00100FEF7FDFC284B1A
:101AE0001B7803F00F03DAB2254B1A70FB794FEA2B
:101AF0000313DAB2224B1B78DBB242EA0303DBB2F8
:101B0000DAB21F4B1A701E4B1B781E484FF027018C
:101B10001A4600F0DFFC1A4B1B7843F00403DAB2DC
:101B2000174B1A70164B1B7816484FF027011A46B0
:101B300000F0D0FC4FF00100FEF7CEFC104B1B78FC
:101B400023F00403DAB20E4B1A700D4B1B780D48CC
:101B50004FF027011A4600F0BDFC094B1B7863F0DB
:101B60000F03DAB2064B1A70054B1B7805484FF08D
:101B700027011A4600F0AEFC07F10807BD4680BDFC
:101B8000B40500200058004080B582B000AF034685
:101B9000FB7103E0FB7903F1FF33FB714FF00100B0
:101BA000FFF778FE0346DBB25BB2002B02DAFB796B
:101BB000002BEFD1FB79002B14BF00230123DBB2F4
:101BC000184607F10807BD4680BD00BF80B582B04A
:101BD00000AF0346FB714FF06400FFF7D5FFFB79C0
:101BE00018464FF00101FFF70BFF07F10807BD464C
:101BF00080BD00BF80B582B000AF0346FB714FF0DF
:101C00006400FFF7C1FFFB7918464FF00001FFF7B2
:101C1000F7FE07F10807BD4680BD00BF80B582B062
:101C200000AF0346FB71FB79002B0FD0114B1B78E3
:101C300043F00803DAB20F4B1A700E4B1B780E48B4
:101C40004FF027011A4600F045FC0EE0094B1B78C7
:101C500023F00803DAB2074B1A70064B1B780648CC
:101C60004FF027011A4600F035FC07F10807BD4682
:101C700080BD00BFB40500200058004080B500AF13
:101C8000014800F067FC80BD0058004080B582B07C
:101C900000AF4FF00F00FEF71FFC4FF03000FFF7D2
:101CA00095FF4FF00500FEF717FC4FF03000FFF7EF
:101CB0008DFF4FF00100FEF70FFC4FF03000FFF7F3
:101CC00085FF4FF00100FEF707FC4FF00200FFF721
:101CD0007DFF4FF02003FB71FB7943F00803FB719C
:101CE000FB791846FFF772FF4FF00A00FEF7F4FB8E
:101CF0004FF00C00FFF76AFF4FF00A00FEF7ECFB15
:101D00004FF00600FFF762FF4FF00A00FEF7E4FB1A
:101D100000F03EF807F10807BD4680BD80B500AF72
:101D2000FFF7ACFF4FF06400FEF7EAFBFFF7AEFFF2
:101D300080BD00BF80B584B000AF02460B46FA718B
:101D4000BB714FF00003FB73FB7903F00103DBB2BF
:101D5000002B02D04FF04003FB73FB79012B03D91A
:101D6000FB7B03F11003FB73FA7BBB79D318FB7386
:101D7000FB7B63F07F03DBB21846FFF727FF034BC3
:101D8000FA791A7007F11007BD4680BDB50500202D
:101D900080B500AF4FF00100FFF718FF80BD00BF16
:101DA00080B584B000AF78602EE07B681B78092B8B
:101DB00010D00A2B1ED1184B1B7803F10103DAB2A5
:101DC000154B1A70144B1B7818464FF00001FFF7A3
:101DD000B1FF15E04FF00003FB7307E04FF0200068
:101DE000FFF708FFFB7B03F10103FB73FB7B032B76
:101DF000F4D905E07B681B781846FFF7FBFE00BFAF
:101E00007B6803F101037B607B681B78002BCCD1DE
:101E100007F11007BD4680BDB50500200FB480B5A1
:101E200082B000AF07F114037B6008484FF028012F
:101E30003A697B6800F0C8FB0448FFF7B1FF07F17F
:101E40000807BD46BDE8804004B07047000600208A
:101E500080B584B000AF03463960FB71FB794FEA6F
:101E6000C303DBB2DBB243F04003DBB2DBB21846A4
:101E7000FFF7ACFE4FF00003FB730AE0FB7B3A6810
:101E8000D3181B781846FFF7B5FEFB7B03F101035F
:101E9000FB73FB7B072BF1D94FF08000FFF796FE19
:101EA00007F11007BD4680BD80B500AF4FF00200BE
:101EB00000F030F80346184680BD00BF80B500AF83
:101EC0004FF0010000F026F80346184680BD00BF21
:101ED00090B583B000AF40F6BC73FB804FF00003B9
:101EE000BB80FC884FF0000000F014F80346E31AB2
:101EF0004FF0640202FB03F2F988BB88CB1A92FB15
:101F0000F3F39BB2C3F164039BB2184607F10C07CD
:101F1000BD4690BD80B483B000AF0346FB71FA7933
:101F2000164B33F812309BB21A46F979144B33F83A
:101F3000113003F132039A420CDCFA79104B33F87A
:101F40001230A3F13202F9790C4B33F811309BB205
:101F50009A4208DDFA79F979084B33F8113099B2D1
:101F6000074B23F81210FA79054B33F81230184654
:101F700007F10C07BD4680BC704700BFB8050020C4
:101F8000C005002080B485B000AF78600B4B1B68A3
:101F9000002B02D10A4A094B1A60084B1B68FB60F0
:101FA000064B1A687B68D218044B1A60FB68184607
:101FB00007F11407BD4680BC704700BFC80500206C
:101FC0002C06002080B582B000AF78607A68104B94
:101FD0009A420CD14FF400104FF00101FFF738FC8A
:101FE0004FF400104FF00001FFF732FC0BE04FF40C
:101FF00080004FF00101FFF72BFC4FF480004FF001
:102000000001FFF725FC07F10807BD4680BD00BFB2
:102010000054004080B58AB000AF786039604FF05E
:102020000003FB844FF000037B844FF00403BB8468
:10203000604BFB617B689B88FB84FB8C23F03F0338
:10204000FB8407F108031846FFF700FB3B69FB61BF
:10205000FA69594BA3FB02134FEA93437B84FA8C32
:102060007B8C42EA0303FB847B68FA8C9A807B6852
:102070001B889BB223F001039AB27B681A804FF051
:102080000003FB843B681A684C4B9A4219D83B68A2
:102090001B684FEA4303FA69B2FBF3F3BB84BB8CC2
:1020A000032B02D84FF00403BB84FA8CBB8C42EAAA
:1020B0000303FB847B8C03F101039AB27B681A84CF
:1020C00049E03B68DA884BF6FF739A420AD13B68D5
:1020D0001A6813464FEA43039B18FA69B2FBF3F3FD
:1020E000BB8410E03B681A6813464FEA83039B18D1
:1020F0004FEA83029B18FA69B2FBF3F3BB84BB8CF3
:1021000043F48043BB84BB8C4FEA03534FEA135321
:10211000002B03D1BB8C43F00103BB84BA8CFB8C36
:1021200042EA03039BB26FEA43436FEA5343FB84E3
:102130007B8C4FF4967202FB03F3214A82FB03125D
:102140004FEAA2124FEAE373D31A9BB203F10103E1
:102150009AB27B681A847B68FA8C9A837B681B88A6
:102160009BB243F001039AB27B681A807B681B889C
:10217000FB84FB8C23F4806323F00A03FB843B681D
:102180009A883B685B8942EA03039AB2FB8C42EA75
:102190000303FB847B68FA8C1A803B689A893B684E
:1021A0001B8942EA03039AB27B681A8107F1280768
:1021B000BD4680BD00127A0083DE1B43A08601006D
:1021C000D34D621080B483B000AF78600B46FB70D3
:1021D000FB78002B08D07B681B889BB243F001037F
:1021E0009AB27B681A8007E07B681B889BB223F059
:1021F00001039AB27B681A8007F10C07BD4680BCC8
:10220000704700BF80B483B000AF78600B46FB70AE
:10221000FB78002B08D07B681B889BB243F480734B
:102220009AB27B681A8007E07B681B889BB223F414
:1022300080739AB27B681A8007F10C07BD4680BC98
:10224000704700BF80B483B000AF78600B46FB706E
:10225000FB78002B08D07B681B889BB243F400738B
:102260009AB27B681A8007E07B681B889BB223F4D4
:1022700000739AB27B681A8007F10C07BD4680BCD8
:10228000704700BF80B483B000AF78600B46FB702E
:10229000FB78002B08D07B681B889BB243F48063DB
:1022A0009AB27B681A8007E07B681B889BB223F494
:1022B00080639AB27B681A8007F10C07BD4680BC28
:1022C000704700BF80B483B000AF78600B46FB70EE
:1022D000FB789AB27B681A8207F10C07BD4680BC76
:1022E000704700BF80B483B000AF78607B681B8A02
:1022F0009BB2DBB2184607F10C07BD4680BC7047A5
:1023000080B483B000AF786013460A46FA70BB70A1
:10231000BB78002B04D0FB7843F00103FB7003E093
:10232000FB7823F00103FB70FB789AB27B681A827A
:1023300007F10C07BD4680BC704700BF80B483B076
:1023400000AF78600B467B807B88B3F5006F08D1C7
:102350007B681B889BB243F400639AB27B681A8047
:1023600007E07B681B889BB223F400639AB27B680A
:102370001A8007F10C07BD4680BC704780B487B057
:1023800000AF786039604FF000033B614FF000030D
:10239000FB604FF00003BB604FF00003FB757B68F0
:1023A0009B8A9BB2FB607B681B8B9BB2BB60BB684C
:1023B0004FEA0343BB60FA68BB6842EA030323F0B9
:1023C0007F433B613A693B681A403B689A4203D1BC
:1023D0004FF00103FB7502E04FF00003FB75FB7D3E
:1023E000184607F11C07BD4680BC704780B487B013
:1023F00000AF786039604FF00003FB754FF00003C9
:102400003B614FF00003FB607B68FB603B684FEA79
:1024100013733B613B6823F07F433B603B69002BB8
:1024200004D0FB6803F11403FB6007E03B684FEA4C
:1024300013433B60FB6803F11803FB60FB681A68F9
:102440003B6802EA0303002B03D04FF00103FB7546
:1024500002E04FF00003FB75FB7D184607F11C07F7
:10246000BD4680BC704700BF80B584B000AF7860C7
:102470000B46FB704FF00003FB73FB78786819463E
:102480004FF001024FF06403FEF796FB0346002B6A
:102490000AD078684FF06401FEF700FC786800F01D
:1024A00059F84FF0000310E007F10F037868194660
:1024B0004FF001024FF06403FEF758FC0346002B77
:1024C00002D04FF0000300E0FB7B184607F1100735
:1024D000BD4680BD80B584B000AF786013460A4623
:1024E000FA70BB70FB78786819464FF000024FF025
:1024F0006403FEF761FB0346FB7397F90F30002B73
:1025000009D078684FF06401FEF7C8FB786800F0E6
:1025100021F8FB7B18E007F10203786819464FF0B9
:1025200001024FF06403FEF7E1FB0346FB7378689A
:102530004FF06401FEF7B2FB97F90F30002B01D08A
:10254000FB7B01E04FF00003184607F11007BD4682
:1025500080BD00BF80B582B000AF78607868034965
:10256000FEF7CAFA07F10807BD4680BDE0930400F4
:10257000F0B5141E9BB0054620DB4FF402720091AB
:10258000ADF80C201A4604916946209B08BF2646E8
:102590004FF0FF3718BF661EADF80E700296059615
:1025A00000F024F8B0F1FF3F05DB14B1009B0022DE
:1025B0001A701BB0F0BD8B232B60F6E78B234FF016
:1025C000FF302B60F5E700BFF0B540F2280483B080
:1025D000C2F2000407460E461546009320683946AD
:1025E00032462B46FFF7C4FF03B0F0BD2DE9F04F94
:1025F000C5B0144612930C91119002F04DFB006887
:10260000199003F0F1FC1C900C98838913F0800F53
:1026100003D00369002B01F06F810DF17C0A0023C8
:1026200056460DF1F7010E9309941A931B931793D5
:102630001D930F930791CDF8E4A03B933A93099A29
:102640001378B3F1250218BF0122002B0CBF002321
:1026500002F00103002B00F0BD80099B5A1C1746B5
:1026600001323B78191E18BF0121252B0CBF002316
:1026700001F00103002BF2D1099CB7EB040810D044
:102680003A9C099801343B9D072CC6F804803060C1
:1026900045443A943B9500F3818008360F994144B4
:1026A0000F913B78002B00F081807C1C00220023DE
:1026B0000D928DF80F31202509942B217B784FF056
:1026C000FF37089222460132A3F12000582800F279
:1026D0001C83DFE810F02D031A031A0336031A03D4
:1026E0001A031A031A031A031A03C70381001A03F1
:1026F0005D0085001A039F00A500A500A500A500A8
:10270000A500A500A500A500A5001A031A031A0339
:102710001A031A031A031A031A031A031A03B70037
:1027200041021A0341021A031A031A031A037F0211
:102730001A031A0385021A031A031A031A031A0347
:10274000A3021A031A03B2021A031A031A031A0382
:102750001A031A031A031A031A031A0354033C0335
:102760004102410241024E033C031A031A030B03C8
:102770001A039A0368037E03DD021A03E3021A03B5
:10278000AB031A031A03D2030D9B12905B420D9305
:10279000089C44F004040894137894E7119839AA2B
:1027A0000C9903F051FC40B9564677E73B9B23B1A7
:1027B000119839AA0C9903F047FC0C990F9A8B8950
:1027C00013F0400F18BF4FF0FF320F920F9845B033
:1027D000BDE8F08F099F64E78DF80F11137872E759
:1027E00012F8013B2A2B01F0FC81A3F130000928EB
:1027F00001F2AC811446002714F8013B07EB870770
:1028000000EB4707A3F1300009282246F4D947EA34
:10281000E77759E7089B43F080030893137852E762
:1028200014460020A3F1300814F8013B00EB8000AF
:10283000A3F1300C2246BCF1090F08EB4000F1D99E
:102840000D9041E70992089A169342F010020892FF
:10285000089B13F0200F00F08182129CE31D23F0EF
:10286000070303F108001290D3E90045002C75F12D
:102870000002C0F2CD8554EA05034FF001030CBFFE
:1028800000220122002FA2BF089921F080010891A7
:10289000002F18BF42F00102002A00F0AC83012B88
:1028A00000F0FE84022B00F0DE840DF1BC0B0BF176
:1028B0002703EA084FEAD40848EA457804F00704F9
:1028C000114604F130020D4644469C461A70013B05
:1028D00054EA0500EDD10899CDF84CC011F0010F74
:1028E00040F088850BF1280BCCEB0B0210929DF881
:1028F0000F210020109C1497BC42B8BF3C46189092
:102900000A9412B10A9801300A90089911F0020B4A
:1029100002D00A9B02330A93089C14F08404159495
:1029200040F0CD820D980A99471A002F40F3C782D4
:10293000102F41F365803B9D48F21C783A9CC0F60D
:10294000000829464FF0100922460C9D4446DDF848
:10295000448002E0103F102F1BDD01323460C6F8C6
:10296000049010310836072A3A9206F108033B9189
:10297000F0DD4046294639AA564603F065FB0AF1C8
:10298000080300287FF419AF103F3B99102F3A9AA3
:10299000E3DCA0460D4614460134C6F80080072C3F
:1029A00077603D443A943B9500F37E829DF80F2179
:1029B0001E466AB13A9C43AB0333336001340123B2
:1029C000072C73601D443A943B9500F3E983083665
:1029D000BBF1000F0CD03A9C43AB336002230134AF
:1029E0007360072C1D443A943B9500F3CE83083660
:1029F000159A802A00F01083149910980F1A002F4E
:102A000040F35B83102F40F3EB853A9C2A46DFF8B6
:102A1000988A4FF0100B23460C9D4446DDF8448005
:102A200002E0103F102F1BDD01333460C6F804B004
:102A300010320836072B3A9306F108093B92F0DD75
:102A40004046294639AA0AF1080903F0FDFA56461C
:102A500000287FF4B2AE103F3B9A102F3A9BE3DC84
:102A6000A04615461C460134C6F80080072C776046
:102A70003D443A943B9500F37D83089A12F4807F9D
:102A800040F04E823A9C109B01341398072C1D4451
:102A9000C9F80430C9F800003B953A9400F3358238
:102AA00009F10809089C14F0040F46D00D980A9902
:102AB000461A002E41DD102E40F3DA873A9C48F288
:102AC0001C78C0F6000810272346DDF830B04446D5
:102AD000DDF8448002E0103E102E19DD0133103580
:102AE000072BC9F80040C9F8047009F108093A93A6
:102AF0003B95F0DD4046594639AAD14603F0A4FA89
:102B000000287FF45AAE103E3B9D102E3A9BE5DC28
:102B1000A0461C460134C9F80080072CC9F804609F
:102B200035443A943B9508DD119839AA0C9903F085
:102B30008BFA00287FF441AE3B9D0F9A0A9C0D9BB7
:102B40009C42ACBF1219D2180F92002D40F00383A3
:102B5000002056463A9072E508991D46099211F0F8
:102B6000080F169300F08784129AD31D23F00703F1
:102B700003F10804129418681A905B681B931A9862
:102B80001B9903F0E7F8012840F050841A980022BE
:102B900000231B9905F0C4F9002840F01C879DF81C
:102BA0000F21032048F2407348F23C710A901698B6
:102BB000C0F60001C0F6000300244728D8BF0B462A
:102BC00008991393032321F0800114940891109322
:102BD000189496E6089C44F008040894137872E56B
:102BE0000899099241F010010891089A169312F081
:102BF000200300F0DF80129BDA1D002322F0070281
:102C000002F108041294D2E9004554EA05000CBF11
:102C10000022012200208DF80F0133E6089C099262
:102C200044F0100408940898169310F0200F00F058
:102C3000048112990123CA1DE0E7099248F24C7100
:102C4000089AC0F60001169312F0200F179100F0B9
:102C50002081129CE31D23F0070303F1080012906A
:102C6000D3E9004554EA0502089B0CBF002201226B
:102C7000134200F0698316983023089901228DF8D9
:102C80000C31022341F002018DF80D010891C1E7DA
:102C9000089840F020000890137814E5099200216C
:102CA000129A16938DF80F11141D13681393002BAD
:102CB00000F0F086002FC0F29386139800213A4668
:102CC00002F0C8FA002800F03687139BC01A109053
:102CD000B84240F3F484002027EAE77114900A9187
:102CE0009DF80F211294109718900AE613786C2B18
:102CF0000BBF089B089C43F0200344F010040ABF5C
:102D00000893089412F8013FDDE409921693002B12
:102D10003FF44CAD002201218DF8BC302FAC0023D4
:102D20000A9110918DF80F31149218921394ECE5DA
:102D30009DF80F31002B40F09B838DF80F511378D5
:102D4000C1E4089840F0010008901378BBE41693A2
:102D5000089B099213F0200F7FF47FAD089911F0C2
:102D6000100F00F0A383129A146804321292E51730
:102D70007CE5089840F0400008901378A3E416938F
:102D80000121129B0020099200221C1D0A911B6840
:102D9000129410912FA98DF80F011492189213918B
:102DA0008DF8BC30B1E50992089A169312F0200311
:102DB0007FF421AF089911F0100200F09183129C6A
:102DC00022680434002512941446003A18BF0122E8
:102DD00020E7129B7821089C0025099248F2607038
:102DE0001A6844F002040433089412931446302302
:102DF000003A8DF80C3118BF0122C0F600008DF8A2
:102E00000D1117900223169104E70992089A12F007
:102E1000200F00F05883129B0F9C129819682246CD
:102E2000E31704301290C1E9002308E408980992DE
:102E300010F0200F16937FF4FCAE089911F0100FDC
:102E400040F09182089810F0400F00F08C821299A7
:102E5000012300250A88043112911446003A18BF54
:102E60000122D7E6129B129C1B68201D002B0D939C
:102E7000FFF68AAC1378129025E4099248F260704C
:102E8000089AC0F60000169312F0200F17907FF4F6
:102E9000E0AE089911F0100F00F0FA82129A0025A6
:102EA000146804321292DDE6119839AA0C9903F0E5
:102EB000CBF800287FF481AC9DF80F2156463B9D4E
:102EC00077E5089A12F0010F40F0FD803A9C013539
:102ED000139A01230134C9F80430072CC9F80020E3
:102EE0003B953A9400F31F8509F1080B0BF1080993
:102EF0001D9B0134072C1D44CBF804303EABCBF8AE
:102F000000303B953A947FF7CDAD119839AA0C99D2
:102F100003F09AF800287FF450ACD1463B9DC1E500
:102F20001699652940F3CB801A98002200231B993B
:102F300004F0ECFF002800F03E813A9C48F27C73DC
:102F4000C0F60003C9F8003001340123072CC9F88A
:102F500004301D443A943B95D8BF09F1080900F3A9
:102F60004683429B0E9A934204DB089B13F0010FA9
:102F70003FF498AD3A9C1C9801341999072C0544EC
:102F8000C9F80400D8BF09F10803C9F800103B953F
:102F90003A9400F3BC830E9A561E002E40F31D8314
:102FA000102E40F3E8853A9C1027DFF8FC84224677
:102FB000DDF830B04446DDF8448003E0103E102ECA
:102FC00040F3C48101321C605F6010350833072A6A
:102FD0003A9203F108093B95F0DD4046594639AA7B
:102FE0000AF1080903F030F8534600287FF4E5ABF6
:102FF0003B9D3A9AE2E7002B40F0B780089C14F022
:10300000010F00F02B81012030230DF1E30110901E
:103010008DF8E33013916AE40D9B0A9C1F1B002F6F
:103020007FF7EAAC102F40F369853A9C3346DFF80E
:1030300078844FF010092246DDF830B04446DDF8C0
:10304000448002E0103F102F1BDD01321C60C3F8EA
:10305000049010350833072A3A9203F108063B958D
:10306000F0DD4046594639AA0AF1080602F0ECFFA5
:10307000534600287FF4A1AB103F3B9D102F3A9A96
:10308000E3DCA04614460134C3F80080072C5F60DF
:103090003D443A943B957FF7AFAC119839AA0C990F
:1030A00002F0D2FF00287FF488AB1499564610989E
:1030B0003B9D0F1A002F3FF7A5ACB146DDE40E99FA
:1030C00001297FF7FEAE3A9C0135139B0134C9F804
:1030D00000300123072CC9F80430D8BF09F10809D2
:1030E0003B953A94D8BF09F1080600F341810134B9
:1030F0001C991998072C0D44D8BF06F1080BC9F884
:103100000410C9F800003A943B9500F33F811A98E7
:10311000002200231B9904F0F9FE002840F0CE8025
:103120000E9B013413985A1E7260431C072C3360A7
:1031300015443A943B957FF7D9AE119839AA0C996A
:1031400002F082FF00287FF438AB0AF10809D34669
:103150003B9D3A9CCCE6119839AA0C9902F074FF79
:1031600000283FF4F5ACFFF728BB109239AA139260
:10317000FFF7BDBB119839AA0C9902F065FF002832
:103180007FF41BABD1463B9D77E4119839AA0C998B
:1031900002F05AFF00287FF410AB3B9D564627E40F
:1031A000119839AA0C9902F04FFF00287FF405AB63
:1031B0003B9D56460CE4429E002E40F323820E9E19
:1031C000189C1398A642A8BF26460E99002E00EB25
:1031D000010B0EDD3A9CAD19C9F800000134C9F8A5
:1031E0000460072C3B953A94D8BF09F1080900F315
:1031F0001184189A26EAE676961B002E40F3E9839E
:10320000102E40F3E1843A9C2946DFF89C82102777
:1032100022460C9D4446DDF8448003E0103E102E0B
:1032200040F3708101321031072AC9F80040C9F813
:10323000047009F108093A9209F108033B91EDDDA8
:103240004046294639AAD14602F0FEFE0AF108039B
:1032500000287FF4B2AA3B993A9ADFE7109339AB82
:103260001393FFF744BB0DF1BC0B17990BF127002B
:1032700004F00F02230943EA05734FEA151C8A5C28
:103280001C460346654601381A7054EA0502EFD120
:103290000BF1280B1393C3EB0B031093FFF727BB22
:1032A0000A2C75F100017FD2303401220DF1E303C5
:1032B00010928DF8E3401393FFF719BB0E994F1E40
:1032C000002FDCBF06F10809B3467FF711AE102FBF
:1032D000D8BFDFF8D4812CDDDFF8CC8123462A4625
:1032E0004FF0100944460C9DDDF8448002E0103F89
:1032F000102F1BDD01333460C6F8049010320836FD
:10330000072B3A9306F1080B3B92F0DD4046294625
:1033100039AA0AF1080B02F097FE564600287FF4FE
:103320004CAA103F3B9A102F3A9BE3DCA04615466F
:103330001C460134C6F80080072C77603D443A945F
:103340003B957FF7D3ADF8E6022363E4A04614462D
:103350000134C3F80080072C5E6035443A943B95F5
:103360007FF7A0ABD1E5129B129C1A68012328E5D8
:10337000119839AA0C9902F067FE00287FF41DAA63
:103380003B9D0AF108063A9CD146B0E6119839AA4D
:103390000C9902F059FE00287FF40FAA3B9D0AF118
:1033A000080B3A9C5646B2E60DF1BC0BB1460BF148
:1033B0002708204629460A22002304F001FE46463B
:1033C00020462946002308F1FF3802F130040A2282
:1033D000347004F0F5FD04460D4654EA0500E8D1CA
:1033E00013960BF1280B13994E46C1EB0B0110916C
:1033F000FFF77DBA302A00F0338313930BF1280BCB
:103400001398C3EB0B04302310940370FFF76FBACB
:10341000644265EB45052D2354EA05008DF80F3114
:103420000CBF002201220123FFF72CBA1A981B9926
:1034300002F090FC002840F07581149048F2487327
:1034400048F244721698C0F60002C0F600034728FE
:10345000D8BF13461393149B032408990A9421F0B0
:1034600080019DF80F21089110941893FFF749BA35
:103470001378FFF728B91299CB1D23F0070303F146
:10348000080212921C681A945B681B93FFF777BBC3
:10349000089B13F0400F00F0268112980025048845
:1034A00004301290FFF7DEBB2C870008089B13F056
:1034B000400F00F011811298B0F9004004301290D2
:1034C000E517FFF7D3B9089911F0100F00F012813A
:1034D000129A0F9C1368043212921C60FFF7AFB867
:1034E000089810F0400300F0FC81129B0025129C0C
:1034F00019880434134612940A1E0C4618BF012280
:10350000FFF788BBA0460D4614460134C9F8008079
:10351000072CC9F8046035443A943B9500F3AF8218
:10352000429A0E9CA2424ADB089810F0010F46D145
:10353000139C189821180E9CC1EB0B07A21ABA42D3
:10354000B8BF1746002F0ADD3A9CED191960013407
:103550005F60072C3B953A9400F37482083327EAA6
:10356000E776961B002E38DD102E40F304833A9C3C
:103570001027DFF8B4862246DDF830B04446DDF887
:10358000448003E0103E102E7FF7E0AE01321C6055
:103590005F6010350833072A3A9203F108093B951A
:1035A000F0DD4046594639AA0AF1080902F04CFDFF
:1035B000534600287FF401A93B9D3A9AE2E73A9CE2
:1035C0001C9901341998072C0D44596018603B95DB
:1035D0003A9400F32B820833AAE79946FFF762BAC0
:1035E00006F108093A9CDFF84086FFF73CBA1198CB
:1035F00039AA0C9902F028FD00287FF4DEA83B9D33
:10360000D146AEE43A9C48F27C73C0F60003C9F898
:10361000003001340123072CC9F804301D443A94CA
:103620003B95D8BF09F1080900F38C8136B90E9B90
:1036300023B9089C14F0010F3FF434AA3A9C1C985B
:1036400001341999072C0544C9F80400C9F8001081
:10365000D8BF09F108093B953A9400F3AB81764253
:10366000002E40F39881102ED8BFDFF8BC8540F3C0
:103670007A81DFF8B48523461027DDF830B0444660
:10368000DDF8448003E0103E102E40F36A810133E0
:103690001035072BC9F80040C9F8047009F1080972
:1036A0003A933B95EFDD4046594639AAD14602F0A0
:1036B000CBFC00287FF481A83B9D3A9BE3E7109B5D
:1036C000002212940024149223EAE3739DF80F2140
:1036D0000A931894FFF715B912990C6804311291E6
:1036E000E517FFF7C3B8129900250C680431129151
:1036F000FFF7B8BA089810F0400F00F00C8112994B
:103700000F9A0B68043112911A80FEF798BF119836
:1037100039AA0C9902F098FC00287FF44EA83B9D32
:10372000534638E4B7F1FF3F00F05181169CA4F1F5
:10373000670EDEF1000343EB0E03472C08BF43F096
:10374000010313B1002F08BF01271B9B0898002B12
:1037500040F480700890C0F20182DDF86C90002285
:103760001492169BA3F16604D4F1000B4BEB040BEF
:10377000462B08BF4BF0010BBBF1000F40F0BB81A3
:10378000452B02D0652B40F0E68107F101080223AA
:103790001A9C42A9CDF82C9000930A94DDE90A23E3
:1037A0001198029141A9CDF80480039140A9049198
:1037B00000F0D4FA169AB2F1670318BF0123472A22
:1037C0000CBF002303F00103139023B9089B13F0EF
:1037D000010F00F0E181139800EB0804BBF1000F2A
:1037E00005D00378302B00F0E281429BE4181A9850
:1037F00000220023494604F089FB002800F085815F
:10380000234640941699139CA1F167004242C4EBF1
:10381000030342EB00020E93472914BF134642F004
:103820000103002B00F04881429B13F1030F10931A
:1038300002DB9F4280F27481169802381690013B99
:10384000169A002B42938DF8F820C0F2C3812B22E8
:103850008DF8F920092B40F3868146F267640DF15B
:10386000F600C6F2666484FB0321DA170546C2EB54
:10387000A10202EB8201A3EB410113463031092A78
:1038800000F80119EFDC30336A1E05F8013C0DF138
:10389000F7039A4280F0C4810DF1FA0312F8011B7C
:1038A00003F8011B1946079C9442F7D83EAB0E98CB
:1038B000CB1A0E9918181D930129109040F36E81B0
:1038C000109B0024189401331093149B002B40F09C
:1038D0000781109C9DF80F2124EAE4740A94FFF7F5
:1038E00010B8129800250268043012901446003A6D
:1038F00018BF0122FFF78EB94021119801F0ECF9B1
:103900000C9908600861002800F082810C9840231F
:103910004361FEF782BE129C0F9823680434129410
:103920001860FEF78CBE119839AA0C9902F08CFB36
:1039300000287EF442AF3B9D0DF184093A9CD346AA
:10394000FFF7D6BA119839AA0C9902F07DFB00282E
:103950007EF433AF429ED1463B9D002E7FF46EAE87
:1039600065E6A0461C460134C9F80080072CC9F85A
:10397000046035443A943B95D8BF09F108090ADD43
:10398000119839AA0C9902F05FFB00287EF415AF5C
:103990003B9DD1463A9C01340E9B139A072C1D4443
:1039A000C9F80430C9F800203A943B957FF778A80D
:1039B000FFF7ABBA119839AA0C9902F045FB002821
:1039C0007EF4FBAE429ED1463B9D3A9C47E60627DD
:1039D000BBE64B46A4E52D228DF80F21FFF7E1B899
:1039E00013980021149102F0FFFA149B129418937B
:1039F00020EAE07210900A929DF80F21FEF781BF35
:103A000048F21C7806F108033B9DC0F600083A9C7A
:103A1000FEF7C2BF119839AA0C9902F015FB0028D5
:103A20007EF4CBAE3B9DD146FFF7E3BB119839AA9C
:103A30000C9902F009FB00287EF4BFAE429A53466F
:103A40003B9D75E5119839AA0C9902F0FDFA002802
:103A50007EF4B3AE429A53460E983B9D821A7EE5A1
:103A6000139B0BF1280BC3EB0B031093FEF73FBF27
:103A700048F21C783A9CC0F60008FFF74BB8119842
:103A800039AA0C9902F0E0FA00287EF496AE53466B
:103A90003B9D45E5062F28BF062748F2747027EAAC
:103AA000E771C0F600001A4610970A911294149319
:103AB00018931390FEF725BF1699662940F08F8062
:103AC000429B002B109340F398801FB9089810F088
:103AD000010F02D05A1CD219109218931695F4E6D1
:103AE00010982D2200218DF80F2120EAE07014910A
:103AF0000A90FEF707BFB846032349E633463A9CCF
:103B00000836DFF82481FFF7BEBA409B9C427FF65F
:103B100079AE302203F8012BA3424093FAD171E62B
:103B20000E9A93422EDB089C14F0010F3DD0581CD6
:103B300067251090D1E727EAE77214900A92129451
:103B40009DF80F2110971890FEF7DBBE002747EA7B
:103B5000E777FEF7B9BDB846022319E62D2103F138
:103B600000491491FDE5303330223FA98DF8FA2049
:103B70008DF8FB309AE603F108093A9CDFF8A8803B
:103B8000FFF7E6BB002B0E99D4BFC3F1020201225E
:103B9000521867251092A0E7409B33E6089A12F06E
:103BA00001037FF48DAE18938FE6672595E71A9889
:103BB00000220023494604F0A9F900287FF415AE3D
:103BC000C8F10103429310E609F108033A9CDFF8BB
:103BD00058809AE42D225B428DF8F9203AE6429B08
:103BE0002DE6129807680430002FBFF643A913781A
:103BF0004FF0FF371290FEF766BD1FB9089911F01C
:103C0000010F02D00237109767E70122109264E794
:103C1000119C4FF0FF320C230F922360FEF7D6BDAC
:103C20000DF1FA0142E600BF2C87000800000000F9
:103C30002DE9F04F83B0036981460D6901919D42E2
:103C400000F38980EA1C01F1140400F11408013D1D
:103C500092008B1882181F1D59685068013103F0BB
:103C6000F7FB064600283CD0002042462346864605
:103C700053F804CB11681FFA8CFB4FEA1C4C1FFA57
:103C800081FA0BFB060BD6440CFB06F000EB1B4045
:103C90001FFA8BFBCBEB0E0A1FFA80FE000CCEEB5B
:103CA000114E9F420EEB2A4E1FFA8AFC4CEA0E413F
:103CB0004FEA2E4E42F8041BDAD22A1D09EB82038A
:103CC000596871B998450AD259F822203AB9043B8B
:103CD00002E053F8042912B9013D9845F9D3C9F817
:103CE00010504846019901F01DFE00282FDB0136D7
:103CF00043464FF0000C54F8040B19681FFA80FA81
:103D0000000C8AB2C0EB1141CAEB0202A7429444F4
:103D100001EB2C421FFA8CFC4CEA02414FEA224C88
:103D200043F8041BE7D22A1D09EB8203596871B9D5
:103D300098450AD259F822203AB9043B02E053F8D8
:103D4000042912B9013D9845F9D3C9F810503046FD
:103D500003B0BDE8F08F0020FAE700BF2DE9F04F77
:103D60009FB0456A0446904699462B9E002D00F070
:103D700090832B6853B16A680125194695409D6070
:103D80005A6001F08DFB636A00221A60B9F10005E8
:103D9000C0F2D3800023336000231A46C7F6F073C5
:103DA000C7F6F07205EA0303934200F0AF800022E9
:103DB000002340464946CDE90289012604F0A6F8D1
:103DC00088B916F0FF0F12D12A9801232C990360AD
:103DD00048F27C70C0F6000011B17B4B581E0B609E
:103DE0001FB0BDE8F08F002616F0FF0FECD0204684
:103DF000DDE902231CA900911DA9019101F0A6FE95
:103E0000C5F30A568246002E00F0AC800398A6F552
:103E10007E761D9F073E20F07F43002123F4700330
:103E2000169143F07E5343F4E00303930023DDE94E
:103E300002010022C3F6F87303F04CFC5CA3D3E943
:103E4000002303F0FBFD5CA3D3E9002303F044FC53
:103E5000CDE90201304603F08BFD59A3D3E90023DD
:103E600003F0ECFD02460B46DDE9020103F034FCF1
:103E7000CDE9020104F07CF8002200230546DDE9CB
:103E8000020104F04DF840B1284603F071FDDDE970
:103E9000022304F03BF800B9013D162D00F25582D3
:103EA00048F2B0714246C0F600014B4601EBC50135
:103EB000D1E9000104F052F8002800F00083013D30
:103EC00000201590013FBE1B00F1F48200200B96EC
:103ED0000D90002DC0F2E6820B9900221195491930
:103EE0000F920B91289A092A70D8052A40F39086E0
:103EF0000027043A28922898831E032B00F20A8494
:103F0000DFE813F00204EC03CC0305042A9842F224
:103F10000F73036048F28C70C0F60000B8F1000F18
:103F200011D02C9900293FF45BAFC278C31C0AB1B1
:103F300000F108032C9A136052E725F00045012395
:103F4000A946336028E748F2807248F28C73C5F3C3
:103F50001300C0F60002C0F6000300280CBF104694
:103F60001846DEE71D9F1C9BFB1803F586639E1C0D
:103F7000202EDCBFC6F1200008FA00F007DDC6F1F4
:103F800040001E3B854028FA03F345EA0300012266
:103F9000169203F0DDFCA6F58666033E0B4602464C
:103FA000CDE90223039BA3F1F87303933EE700BF1F
:103FB00061436F63A787D23FB3C8608B288AC63F2F
:103FC000FB799F501344D33F7D87000800204FF0BA
:103FD000FF310746012228900E9110920A912990F4
:103FE000666A002373602046716801F025FA636AEF
:103FF00030601B680C93002F00F0DE80002D4046DF
:104000004946CDE90889CDE9020140F32E8448F202
:10401000B07305F00F02C0F600032E1103EBC203CC
:1040200016F0100F08BF4FF00208D3E90001CDE9E8
:10403000120140F04782BEB148F67807DDE912234D
:10404000C0F6000716F0010F1046194607D0D7E951
:10405000002308F1010803F0F1FC02460B46083783
:104060007610EFD1CDE91223DDE90801DDE9122355
:1040700003F00EFECDE908011599002938D0002380
:10408000DDE908010022C3F6F073012603F048FFC2
:10409000002800F001830A9A002AD4BF002606F007
:1040A00001062EB30E9B002B40F3828000230022DA
:1040B000C4F22403DDE9080103F0C0FCCDE90801E6
:1040C00008F10100691E129103F052FC02460B46F2
:1040D000DDE9080103F0B2FC00230022C4F21C0356
:1040E00003F0FAFADDF838B08046A1F150793CE2ED
:1040F000404603F03DFCDDE9082303F09FFC00236C
:104100000022C4F21C0303F0E7FA0A9AA1F15076E8
:104110008046B146002A40F0258200230022C4F2E6
:104120001403DDE9080103F0D5FA42463346CDE930
:10413000080103F013FF002840F00F824246DDE93A
:10414000080106F1004303F0EBFE002830D0DDF853
:1041500028B0CDF820B0299B00270C9EDD4359469E
:10416000204601F09DF9089971B13B1E18BF01234B
:104170008F420CBF002303F00103002B40F05E834D
:104180002046089901F08CF92046514601F088F943
:104190000023337001352A9A2C9B1560002B00F008
:1041A00018841E600C981BE6189DDDF85CA0089C26
:1041B000DDE90201804689461C9BDF43FF0F0E2D7F
:1041C000CCBF002707F00107002F00F0C18048F2A4
:1041D000B0732999C0F600030A9A03EBC503CF0F09
:1041E000D3E90001002ACCBF002707F00107CDE981
:1041F0000201002F40F09E8102460B464046494690
:10420000CDE9048903F044FD03F0B2FE0C9E814623
:1042100003F0AEFBDDE9022303F010FC02460B467F
:10422000DDE9040103F056FA09F13003CDE9040198
:1042300006F8013B0A9A012A56D000230022C4F254
:1042400024034FF0010803F0F9FB00220023CDE91D
:10425000040103F05BFE00B1B84618F0FF0F93D0E5
:104260000A9937460C98A046079500EB010BCDF84C
:1042700028A05D46DDE904AB0DE003F0DFFB002282
:10428000002382468B4603F041FE00B1002414F067
:10429000FF0F00F00F84DDE9022350465946012448
:1042A00003F0F6FC03F064FE814603F061FBDDE9F8
:1042B000022309F1300603F0C1FB02460B465046CB
:1042C000594603F007FA002307F8016B0022AF42BA
:1042D000C4F224033E4682468B46CED1CDE904ABE0
:1042E0004446079DDDF828A0DDE9040102460B469F
:1042F00003F0F2F9CDE90401DDE90423DDE902016F
:1043000003F00EFE60B9DDE90201DDE9042303F0EC
:10431000FDFD00283FF438AF19F0010F3FF434AF32
:1043200012950C98334613F8011C5A1E1E4613466C
:10433000392940F0E1838342F5D10C983121129B59
:104340005D1C3023037011701EE701211591B9E542
:104350001099002940F0C780109B0F9F0D9E089375
:10436000002E0B98D4BF002301230028D4BF0023C4
:1043700003F001034BB103460D99B342A8BF334686
:10438000F61AC91AC01A0D910B900F9A002A1ADD5D
:10439000109B002B00F09483002F10DD08993A4603
:1043A000204601F017FA524608902046089901F07D
:1043B0007DF951468346204601F072F8DA460F989F
:1043C000C21B40F084830121204601F065F9119958
:1043D0000029834605DD59462046119A01F0FAF975
:1043E0008346289A012A40F39E81002711990029CB
:1043F00040F0F28201230B9A9B1813F01F0300F088
:104400002282C3F12003042B40F3F683043B0D9872
:10441000F618D218C0180B920D900D9B002B05DDDD
:10442000514620461A4601F027FA82460B9800288A
:1044300005DD594620460B9A01F01EFA8346159970
:10444000002940F0D38228990A9A0229D4BF002378
:104450000123002ACCBF002303F00103002B00F04E
:104460007C81002A7FF477AE594605220A9B2046BC
:1044700001F032F883465046594601F053FA0028BD
:104480007FF769AE0C9E31230135002706F8013B0A
:1044900065E6102000F010FC6062456085600560F4
:1044A000C56073E40D9B684200210F905B1B119166
:1044B0000D9317E5764200230D960B9309E5002234
:1044C0001592FFE448F678034046C0F600034946DB
:1044D00006F00F064FF00308D3E9082303F0D8FBDA
:1044E000CDE90801A7E5289A012A40F3F6820A9946
:1044F0000F9A4B1E9A42A8BFC3EB02070A9ABFBF8E
:104500000F981199C0EB0303C918BEBFC0181191D1
:104510000F90002AC0F2F9820D9E0A9B0D9A204648
:104520000121D2180D920B9AD2180B9201F0B4F817
:10453000089015E70A9B002B40F0D8820023002248
:10454000C4F21403DDE9020103F078FA42464B4657
:1045500003F0FAFC00287FF4FAADDDF828B0CDF8BE
:1045600020B08FE7DDF828B01295109B002B00F0EB
:10457000AF8148F2B0730021C0F60003002003EBC6
:10458000CB03C3F6E0710C9E53E9022303F080FBDA
:1045900042464B4603F09EF880468946DDE9080115
:1045A00003F0E6FC074603F0E3F902460B46DDE9BB
:1045B000080103F08FF807F13003CDE90801404608
:1045C00006F8013B4946DDE9082303F0C7FC002853
:1045D00040F0FC810021DDE908230020C3F6F071E2
:1045E00003F078F802460B464046494603F0B6FC15
:1045F00000287FF496AEBBF1010F7FF7D9AD0C9880
:10460000374618958344CDF85CA05D46DDE908ABDC
:1046100008940FE000210020C3F6F07103F05AF86F
:1046200042464B4603F07CFC002840F06A82AF42D1
:104630003FF4BAAD00230022C4F2240340464946A9
:1046400003F0FCF900230022C4F2240380468946CB
:104650005046594603F0F2F98B46824603F088FC37
:10466000044603F085F9303402460B46504659465D
:1046700003F030F842464B4607F8014B3E4682466F
:104680008B4603F04DFC52465B460028C2D0DDF855
:104690005CA0089C129D77E50026FCE401231093A2
:1046A00029990029C2BF8B460E910A9140F3B4812B
:1046B000666A0022BBF1170F726040F2A1820423E8
:1046C0005B00013203F114015945F9D90A9B72606C
:1046D0000E2B8CBF002707F0010784E40023109302
:1046E000299828180E9000F1010BBBF1000FC8BFEC
:1046F000CDF828B0DCDCBBF10E0F8CBF002707F033
:104700000107CDF828B06BE400201090C8E7012223
:104710001092E5E74FF0FF33002701200E93109031
:104720000A9329975CE4B8F1000F7FF45EAEC9F3F9
:1047300013034746002B7FF459AEC7F6F07309EA1E
:1047400003031F46002B3FF451AE0D9B01270B982E
:1047500001330D9301300B9048E61098002800F0CB
:104760006181002E05DD20460899324601F084F86B
:104770000890002F40F0ED81089802900A9908F007
:1047800001020C9E089F71180A920B9108955946D8
:104790005046FFF74DFA39464FF001093030079087
:1047A000504601F0BFF85946029A0546204601F0EE
:1047B000D7F8C3688046002B3AD02046414600F027
:1047C0006FFE289B59EA030303D10A98002800F0E2
:1047D000F381002DC0F29D812898284303D10A99C6
:1047E000002900F09681B9F1000F00F3D281079AF9
:1047F00006F8012BB0460B9B9E4200F0C681514645
:104800000A220023204600F067FE82460298874273
:1048100022D039460A220023204600F05DFE02998C
:104820000A2200230746204600F056FE0290AEE71B
:104830005046414601F076F88146BEE720463946AB
:1048400000F02EFE9CE41C230D99F6180B9AC91853
:104850000D91D2180B92E0E5394620460A2200233A
:1048600000F03AFE0746029091E76E42002E00F0FB
:104870001D8106F00F0348F2B072C0F60002DDE9B8
:10488000080102EBC303D3E9002303F0D7F8361184
:10489000CDE9080100F00A8148F678074FF00208D8
:1048A000C0F6000702460B4616F0010F10461946E7
:1048B00007D0D7E9002308F1010803F0BFF802464A
:1048C0000B4608377610EFD1CDE90823FFF7D4BBAC
:1048D0000BF1FF321792179848F2B071C0F6000141
:1048E00042464B460C9E01EBC001D1E9000103F0AA
:1048F000A5F8CDE91801DDE9080103F039FB074609
:1049000003F036F80B460246DDE9080102F0E2FE4C
:10491000BBF1010F07F13003CDE9080106F8013BB7
:104920002BD00C991B9501F1FF390F46D944DDE9D5
:104930000801D3464D46B246264600230022C4F263
:10494000240303F07BF88946804603F011FB0446FC
:1049500003F00EF8303402460B464046494602F05A
:10496000B9FE07F8014FAF42E7D1179A34461B9DB5
:104970005646B618DA46CDE9080100230022C3F6F0
:10498000E073DDE9180102F0A7FE02460B46DDE9FF
:10499000080103F0E3FA00287FF4C3AC0021DDE94D
:1049A00018230020C3F6E07102F094FE02460B4685
:1049B000DDE9080103F0B4FA00283FF4F9AB33460F
:1049C0001E46013B16F8012C302AF9D0129DFFF744
:1049D000DBBB0C98FFF704BADBF810300BEB83035A
:1049E000186900F007FEC0F1200304E5504659465F
:1049F00000F098FF0028BFF626AD51460A22204657
:104A0000002300F069FD109A013D8246002A40F023
:104A1000E9800E980A9016E501220E920A922992D8
:104A2000FFF7DEBA0C9E0127DDF82890029502E020
:104A300000F052FD824659465046FFF7F9F80A2227
:104A400000234F45514607F1010700F1300520468C
:104A500006F8015BB046EBDB07950027029D514647
:104A60000122204600F008FF5946824600F05AFF16
:104A700000280FDD0C9A464608F1FF3816F8013C75
:104A8000392B61D19045F6D10C9831230135037053
:104A9000FFF765BB03D1079A12F0010FEAD1464632
:104AA00018F8013D302BFAD0FFF759BB4FF0020840
:104AB000FFF7E2BA079D4446DDF828A0FFF764BB84
:104AC000514620460F9A00F085FE82467BE451460F
:104AD000204600F07FFE824675E4169800284ED0EE
:104AE00003F586630F9F03330D9E17E54FF0000B10
:104AF000CDF820B0FFF72FBB0131129D1170FFF7E9
:104B000043BBDDF85CA0089C0BE40D9B9E1A0023C0
:104B100004E5B9F1000F089D0FDD51460122204642
:104B200000F0AAFE5946824600F0FCFE002853DD44
:104B3000079B392B39D001330793029807990890C6
:104B400006F8011BFFF70BBB013388F80030FFF7B5
:104B500006BB089A2046516800F06EFC089B03F1E2
:104B60000C011A690232920006460C3000F0B8FBC4
:104B700020463146012200F07FFE0290FEE51D9B9B
:104B80000F9F0D9EC3F13603C8E40299089D08915A
:104B900065E7079A089D392A07D002990798089176
:104BA000431C06F8013BFFF7DABA029BB0460893B4
:104BB000392308F8013B5DE707992B46089D392901
:104BC000F3D0002B01DD01310791029A079B089277
:104BD00006F8013BFFF7C3BAAFD1079A12F0010FF5
:104BE000ABD0A5E70023204608990A2200F074FC08
:104BF0000E9B0A93089026E43FF40FAC1C3323E687
:104C00000A990E298CBF002707F00107FFF7EBB9BF
:104C10000127FFF770B900BF10B514463AB148F24A
:104C200090711046C0F6000101F0F0F820B948F28A
:104C30001870C0F6000010BD48F218712046C0F68A
:104C4000000101F0E3F820B948F21870C0F6000046
:104C500010BD48F25C712046C0F6000101F0D6F8A4
:104C600048F21873C0F6000300280CBF1846002055
:104C700010BD00BF40F21C10C2F20000704700BF20
:104C800040F21C13C2F20003186A704700487047D4
:104C9000400100200020704700487047600100205C
:104CA00040F228030A46C2F2000301461868B3E73F
:104CB000004870476001002040F228030146C2F21C
:104CC0000003186800F008B840F228030146C2F259
:104CD0000003186802F02EB82DE9F04F01F10B0423
:104CE000162C83B0064631D924F00704E30F8C421A
:104CF0002CBF194643F00101002930D1304600F0A5
:104D000097FBB4F5FC7F2FD24FEAD40C40F29815F4
:104D1000C2F2000505EBCC022F46D368934200F0A7
:104D20002D825C6803F10808DA68304624F0030439
:104D300099681B195C68CA6044F0010491605C606A
:104D400000F078FB404603B0BDE8F08F002310244C
:104D50008C422CBF194643F001010029CED00C2310
:104D60004FF000083360EDE75FEA542C04BF4FEAD0
:104D7000D40C4FEACC0040F0868040F29815C2F285
:104D8000000528182F46C368984206D10DE0002977
:104D900080F27981DB68984207D05A6822F00302DA
:104DA000111B0F29F3DD0CF1FF3C0CF1010CBD4A86
:104DB00093689A4208BF786824D0586820F00300AE
:104DC000011B0F2900F3C0810029D260926080F29C
:104DD0009480B0F5007F80F07781C0084FF0010E1D
:104DE000D7F8048007EBC00180100EFA00F0D960FC
:104DF000D1F808E040EA08007860C3F808E0CEF88F
:104E00000C308B604FF0010E4FEAAC030EFA03FE3C
:104E100086457DD810EA0E0F08D12CF0030C4FEA1E
:104E20004E0E0CF1040C10EA0E0FF8D007EBCC0A72
:104E3000E146D046D8F80C00804507D196E1002B1A
:104E400080F2A681C068804500F09081416821F021
:104E500003010B1B0F2BF2DD8046C568011944F0DE
:104E6000010E58F8087F43F00104C0F804E0304612
:104E70004C60FD60AF60D1609160CA608A60CB50C9
:104E800000F0D8FA5EE7BCF1040F9EBF4FEA941C15
:104E90000CF1380C4FEACC007FF66FAFBCF1140F69
:104EA0009CBF0CF15B0C4FEACC007FF666AFBCF107
:104EB000540F9EBF4FEA143C0CF16E0C4FEACC002D
:104EC0007FF65BAFBCF5AA7F9EBF4FEAD43C0CF1E6
:104ED000770C4FEACC007FF650AF40F254539C451C
:104EE00095BF4FEA944C4FF47C700CF17C0C4FF062
:104EF0007E0C98BF4FEACC003FE71A1803F1080870
:104F00003046536843F00103536000F093FA19E709
:104F1000D7F80880D8F8043023F003094C45C4EBD7
:104F2000090294BF002301230F2AD8BF43F00103D5
:104F3000002B00F0B98040F2CC5AD5F80834C2F208
:104F4000000A3046B3F1FF3FDAF8002002F1100BFF
:104F5000A3441FBF0BF57E6B0BF11F0B2BF47E6B75
:104F60002BF01F0B594600F03DFFB0F1FF3F034609
:104F700000F0188108EB0901814200F21081DAF893
:104F8000042081425A44CAF8042000F03E81D5F83A
:104F900008E440F29815C2F20005BEF1FF3F17BFCA
:104FA0008218C5F80804C1EB0201CAF8041010F019
:104FB000070517BFC5F108054FF48055431905F5DE
:104FC000805503EB0B02304601931205120DAD1A0A
:104FD000294600F007FF019BB0F1FF3F00F02C8154
:104FE000C11A491941F00101DAF80420B84540F22C
:104FF000CC5BBB602A44C2F2000B5960CAF80420A3
:1050000017D0B9F10F0F40F2E180A9F10C03D8F8E5
:10501000045023F00703052008EB03010F2B05F0D4
:10502000010543EA0505C8F804504860886000F2AD
:10503000FB80DAF82C1040F2CC53C2F200038A4213
:10504000DAF8301088BFDA6240F2CC538A42C2F2FA
:10505000000340F2A780D7F808801A63D8F804301C
:1050600023F003039C42C4EB030294BF00230123FB
:105070000F2AD8BF43F00103B3B130464FF0000808
:1050800000F0D8F95EE69A18D9689C6803F1080820
:105090005568304645F00103E1608C60536000F0D4
:1050A000C9F94FE6A001002008EB040342F0010219
:1050B00044F001043046C8F8044008F108085A607A
:1050C000BB6000F0B7F93DE6410A04299CBF4FEAF6
:1050D000901E0EF1380E1DD9142998BF01F15B0EF8
:1050E00018D954299CBF4FEA103E0EF16E0E11D90B
:1050F000B1F5AA7F9CBF4FEAD03E0EF1770E09D9D9
:1051000040F2545E714596BF4FEA904E4FF07E0ECE
:105110000EF17C0E07EBCE08D8F80810414503D1FC
:1051200047E08968884505D0D1F804E02EF0030EE9
:105130007045F6D3D1F80CE0C3F80CE099607868BC
:10514000CB60CEF808305DE61D1941F00107D5604F
:1051500044F00104956030465C6003F10808EA60A1
:10516000AA606F60695000F065F9EBE509F101098B
:1051700019F0030F2FD008F108085BE603F10802CD
:105180005B699A4208BF0CF1020C3FF410AEC8E50F
:1051900080464318C268304658F8081FCAE5B8452B
:1051A0003FF4EDAED7F80880D8F8043023F00303BD
:1051B00058E74FF00109D7F804804FEAAE008E4659
:1051C00009FA00F048EA00007860B5E79846012245
:1051D0005A60002346E751461CF0030F0B460CF1C2
:1051E000FF3C2CD053F808199942F5D07B684FEA60
:1051F0004E0E9E453FF68CAEBEF1000F3FF488AEDA
:105200001EEA030F20D0CC4610E64FEA015E4FEABB
:105210001E5EBEF1000F7FF4BAAEBB680BEB090156
:1052200041F00101596004E7304608F1080101F03E
:1052300081FDDBF80420FCE601210025D4E67B6833
:1052400023EA0E037B60D1E74FEA4E0E09F1040911
:10525000D6E700BF10F0030F034670B4C9B211D0F7
:10526000002A22D003788B421DD0013A013005E09C
:10527000DAB110F8014B013A8C4218D010F0030F4C
:105280000346F5D1032A14D87AB1187888420ED093
:10529000541E5D1C03E015F8016B8E4203D0013CE7
:1052A0002846F8D2002070BC70471046FBE718462D
:1052B000F9E741EA012646EA0646184653F8044B48
:1052C00086EA0404A4F1013525EA040414F0803FC1
:1052D00003D1043A1846032AEFD80346D4E700BFA7
:1052E000032A2DE9F00109D82AB10023CC5CC4546B
:1052F00001339342FAD1BDE8F00170470B468218A2
:10530000014603E02478013301F8014B11F0030F4B
:105310001C46F7D113F003055DD06E42C5F1040CB5
:10532000ED009B594FEACC0C08E00434A7593B46EA
:1053300007FA0CF748EA070741F8047B571A23FAE3
:1053400005F8032FF1DC03E014F8013B01F8013B01
:105350008A42F9D8CFE753F8404C41F8404C53F813
:105360003C4C41F83C4C53F8384C41F8384C53F81D
:10537000344C41F8344C53F8304C41F8304C53F82D
:105380002C4C41F82C4C53F8284C41F8284C53F83D
:10539000244C41F8244C53F8204C41F8204C53F84D
:1053A0001C4C41F81C4C53F8184C41F8184C53F85D
:1053B000144C41F8144C53F8104C41F8104C53F86D
:1053C0000C4C41F80C4C53F8084C41F8084C53F87D
:1053D000044C41F8044C561A1D460C4640334031EB
:1053E0003F2EB8DC2B460FE053F8101C44F8101C7D
:1053F00053F80C1C44F80C1C53F8081C44F8081C07
:1054000053F8041C44F8041C161B21461D46103496
:1054100010330F2EE8DC2B4602E0246841F8044BE1
:10542000551A1C46032D03F10403F6DC90E700BF78
:10543000704700BF704700BF70B50646446A0D460E
:105440005CB1E3689BB153F82500E0B1026843F812
:10545000252000230361C36070BD1020FFF72CFCE2
:10546000002304467062436083600360C36030467B
:105470000421212201F0DCFB736AE060DB68002B71
:10548000E1D1184670BD012430462146AC40621D72
:10549000920001F0CDFB0028F4D045608460D8E78D
:1054A00030B50446456A83B055B139B1636A4A687C
:1054B000DB6853F82200086043F8221003B030BDC7
:1054C00010200191FFF7F8FB01996062456085604B
:1054D0000560C560E9E700BF2DE9F0410C460546CF
:1054E0000E6901F1140082B00021076801311FFA32
:1054F00087FC3F0C0CFB023307FB02F707EB13475B
:105500001FFA83FC3B0C8E424FEA074808EB0C075E
:1055100040F8047BE9DC3BB1A268964208DA04EB70
:105520008602013626615361204602B0BDE8F08153
:105530006168284601930131FFF77EFF226904F17B
:105540000C010232920007460C30FFF7C9FE2146DB
:1055500028463C46FFF7A4FF019BE0E72DE9F8430E
:1055600048F639651F46C3F6E30508330E46044680
:10557000904685FB0315DB17C3EB6503012B37DD75
:1055800001220021520001319342FBDC2046FFF74B
:1055900053FF089B43610123B8F1090F01460361E2
:1055A00022DD06F1090946444D4615F8013B0A2261
:1055B0002046303BFFF790FFB5420146F5D109EB9D
:1055C0000806083E47450CDDF719C8EB070716F833
:1055D000013B0A222046303BFFF77EFFBE420146D8
:1055E000F5D10846BDE8F8830A364FF00908E9E727
:1055F0000021CBE7020C034619D10304102013F05D
:105600007F4F01D108301B0213F0704F01D10430DD
:105610001B0113F0404F01D102309B00002B05DB32
:1056200013F0804F01D001307047202070470020D8
:10563000E5E700BF0368024613F0070009D013F046
:10564000010F21D113F0020F22D19B080220136019
:10565000704799B209B91B0C102013F0FF0F01D14C
:1056600008301B0A13F00F0F01D104301B0913F08F
:10567000030F01D102309B0813F0010F02D15B0828
:1056800004D001301360704700207047202070471D
:105690005B0801201360704710B50C460121FFF72D
:1056A000CBFE01224461026110BD00BF2DE9F04F25
:1056B00090460F690D46166985B0B742BFBF454693
:1056C0003A4637461646AB68B8BF8846F41969684B
:1056D0009C42C8BF0131FFF7AFFE00EB840300F12D
:1056E000140C143301909C45029306D20299634630
:1056F000002243F8042B9942FBD808EB860605EB01
:10570000870708F11408143614351437B04500958E
:105710004DD2039458F8044BA0B2F0B1009A6346FE
:10572000002452F8045B19681FFA85FA2D0C1FFA41
:1057300081F9090C00FB0A9900FB0511A14401EB5A
:1057400019411FFA89F90C0C974249EA014543F8BF
:10575000045BE6D81C6058F8044C240C21D0DCF81B
:1057600000206046009BE14611460025B3F800A0EA
:105770001FFA82FB0AFB045505EB11454BEA054273
:1057800040F8042B53F8042B59F8041F120C1FFA8D
:1057900081FA02FB04A202EB1542150C9F42E5D8E8
:1057A0000260464502D90CF1040CB3E7039C002CBF
:1057B0000ADD02990B1F51F8042C1AB104E053F8CA
:1057C000042D0AB9013CFAD1019A1046146105B0C2
:1057D000BDE8F08F12F003032DE9F04115460446B1
:1057E000884628D1AD101AD0666A002E2FD0B7682F
:1057F0002FB936E06D1012D03E689EB1374615F0D5
:10580000010FF7D041463A462046FFF74FFF414689
:1058100006462046FFF744FE6D10B046ECD14046E8
:10582000BDE8F08139463A462046FFF73FFF386031
:1058300007460660E3E748F2A0725E1EC0F600026B
:10584000002352F82620FFF747FE8046CAE71020C3
:10585000FFF732FA0023064660624360836003600C
:10586000C360204640F27121FFF716FF0023B060AD
:1058700007460360C3E700BF2DE9F84356110D69E1
:105880000C468B68904601358146AD1949689D42AA
:1058900003DD5B0001319D42FBDC4846FFF7CCFD98
:1058A000002E074600F114020ADD002319460133D9
:1058B00042F8041BB342FAD107EB830303F114024D
:1058C000266904F1140104EB8606143618F01F084B
:1058D0001AD0C8F1200E00200B6803FA08F3184311
:1058E00042F8040B51F8040B8E4220FA0EF0F3D864
:1058F000106000B101354846013D21463D61FFF78A
:10590000CFFD3846BDE8F88351F8043B8E4242F89B
:10591000043BF0D951F8043B8E4242F8043BF3D8E3
:10592000E9E700BF03460A69006930B4801A0FD165
:10593000043203F1140592009B18891804330431D2
:1059400053F8044D51F8042D944203D19D42F7D3EE
:1059500030BC704738BF4FF0FF30F9D30120F7E774
:105960002DE9F84F89460446114648469046FFF710
:10597000D9FF051E64D0BCBF4B46C1462046B8BF08
:105980009846D9F80410ACBF4FF0000A4FF0010A56
:10599000FFF752FDD9F8106009F11405D8F810305E
:1059A00008F11407002409EB860909F1140983465C
:1059B0001430CBF80CA008EB830A0AF1140A55F84E
:1059C000041B034657F8040B2A461FFA81F81FFAF6
:1059D00080FC000CCCEB080CC0EB1140644400EBE5
:1059E0002440A4B244EA00410414BA4543F8041B1D
:1059F0001846E4D8A9451F4614D952F8041B88B2AA
:105A0000090C241801EB2441A4B244EA01400C140F
:105A1000914543F8040BF0D8EB434B4423F00303C8
:105A20000433FB1853F8042C043B22B953F8042D1B
:105A3000013E002AFAD0CBF810605846BDE8F88F36
:105A400020462946FFF7F8FC0123834645610361A0
:105A50005846BDE8F88F00BF0023C7F6F07301EA8F
:105A60000303A3F15073002B02DD19460020704799
:105A70005B421B15132B0DDD143B00211E2B02DD99
:105A80000123184670470122C3F11F0312FA03F3E2
:105A9000184670474FF40022002052FA03F1704775
:105AA0002DE9F04100F1140604690F46043450F862
:105AB000245000EB8404A0462846FFF79BFD0A28EB
:105AC000C0F120033B6015DCC0F10B0135FA01F792
:105AD000A64247F07E5747F4E00333D254F8044C13
