:020000040800F2
:10000000600400208D120008F5120008F5120008A7
:10001000F5120008F5120008F512000800000000B3
:10002000000000000000000000000000F5120008C1
:10003000F512000800000000F51200083D05000858
:10004000F5120008F5120008F5120008F512000874
:10005000F5120008F5120008F5120008F512000864
:10006000F5120008F512000865350008F5120008C1
:10007000F5120008F5120008F5120008F512000844
:10008000F5120008F5120008F5120008F512000834
:10009000F5120008F5120008F5120008E92C000816
:1000A000F5120008F5120008F5120008F512000814
:1000B00001160008F5120008F5120008F5120008F4
:1000C000F5120008F5120008F5120008F5120008F4
:1000D000F5120008F5120008F5120008F5120008E4
:1000E000452D0008F5120008F51200080000000078
:1000F0000000000000000000000000000000000000
:1001000000000000000000005FF808F180B500AFBB
:100110004FF400604FF0010101F036FC4FF0010098
:100120004FF0010101F052FC4FF002004FF00101CD
:1001300001F04CFC4FF004004FF0010101F046FCCF
:100140004FF005004FF0010101F01EFC4FF00800D8
:100150004FF0010101F018FC4FF010004FF00101C9
:1001600001F012FC954B9B6903F00403002B05D1B1
:10017000924B924A926942F004029A61904B904AE3
:10018000126822F0F0021A608D4B8D4A12681A60D4
:100190008A4B9B6903F00403002B05D1874B874AE8
:1001A000926942F004029A61854B854A126822F4F2
:1001B00070621A60824B824A12681A607F4B9B6998
:1001C00003F00403002B05D17C4B7C4A926942F07A
:1001D00004029A617A4B7A4A126822F470421A60D9
:1001E000774B774A12681A60744B9B6903F00803D7
:1001F000002B05D1714B714A926942F008029A6155
:10020000704B704A126822F470021A606D4B6D4A8E
:10021000126842F480121A60684B9B6903F008036D
:10022000002B05D1654B654A926942F008029A613C
:10023000644B644A526822F0F0025A60614B614A92
:10024000526842F010025A605C4B9B6903F008034D
:10025000002B05D1594B594A926942F008029A6124
:10026000584B584A526822F470025A60554B554A0E
:10027000526842F480125A60504B9B6903F00803A5
:10028000002B05D14D4B4D4A926942F008029A610C
:100290004C4B4C4A526822F0F0025A60494B494A92
:1002A000526842F010025A60444B9B6903F0080305
:1002B000002B05D1414B414A926942F008029A61F4
:1002C000404B404A126822F470021A603D4B3D4A8E
:1002D000126842F480121A60384B9B6903F00803DD
:1002E000002B05D1354B354A926942F008029A61DC
:1002F000344B344A526822F070425A60314B314AD2
:10030000526842F000525A602C4B9B6903F008037C
:10031000002B05D1294B294A926942F008029A61C3
:10032000284B284A126822F070621A60254B254A31
:10033000126842F000721A60204B9B6903F00403BC
:10034000002B05D11D4B1D4A926942F004029A61AF
:100350001B4B1B4A526822F070425A60184B184AD5
:10036000526842F000525A60144B9B6903F0080334
:10037000002B05D1114B114A926942F008029A6193
:10038000104B104A126822F470221A600D4B0D4A6D
:10039000126842F400321A60084B9B6903F00403B0
:1003A000002B05D1054B054A926942F004029A617F
:1003B000034B034A126822F0706205E0001002400D
:1003C00000080140000C01401A602D4B2C4A1268B5
:1003D00042F000621A602A4B294A126942F0400238
:1003E0001A61284B9B6903F00403002B05D1254BB0
:1003F000244A926942F004029A61214B204A126811
:1004000022F070421A601E4B1D4A126842F00042F0
:100410001A601B4B1A4A126942F080021A61194B8A
:100420009B6903F00803002B05D1164B154A92690E
:1004300042F008029A61144B134A126822F070428B
:100440001A60114B104A126842F020421A600D4B9C
:100450009B6903F01003002B05D10A4B094A9269EE
:1004600042F010029A61094B084A526822F4700265
:100470005A60064B054A526842F480125A6080BDA9
:100480000008014000100240000C01400010014033
:1004900080B483B000AF03463960FB7197F9073031
:1004A000002B0DDA0E49FB7903F00F03A3F10403CF
:1004B0003A68D2B24FEA0212D2B2CB181A760AE0E8
:1004C000084997F907303A68D2B24FEA0212D2B21D
:1004D000CB1883F8002307F10C07BD4680BC70479A
:1004E00000ED00E000E100E080B582B000AF786090
:1004F0007A686FF07F439A4202D94FF0010316E009
:100500000D4B7A6822F07F4202F1FF325A604FF0C1
:10051000FF304FF00F01FFF7BBFF074B4FF000021A
:100520009A60054B4FF007021A604FF0000318461F
:1005300007F10807BD4680BD10E000E080B400AFC1
:10054000064B1B68002B05D0044B1B6803F1FF32E0
:10055000024B1A60BD4680BC704700BF28000020D7
:1005600080B483B000AF7860064B7A681A6000BF31
:10057000044B1B68002BFBD107F10C07BD4680BC68
:10058000704700BF2800002080B483B000AF7860BF
:100590007B684FF0640202FB03F2064B1A6000BF57
:1005A000044B1B68002BFBD107F10C07BD4680BC38
:1005B000704700BF2800002080B500AF00BF074B88
:1005C0001A68074BA3FB02134FEA13431846FFF7C1
:1005D0008BFF0346002BF2D180BD00BF000000203E
:1005E00073B2E74580B485B000AF786039604FF0F2
:1005F0000003FB817B681B88FB817A682F4B9A4242
:1006000013D07A682E4B9A420FD07B68B3F1804F9B
:100610000BD07A682B4B9A4207D07A682A4B9A42C1
:1006200003D07A68294B9A4209D1FB8923F07003E1
:10063000FB813B685A88FB8942EA0303FB817A68A5
:10064000234B9A420DD07A68224B9A4209D0FB89FB
:1006500023F44073FB813B68DA88FB8942EA030399
:10066000FB817B68FA891A803B689A887B689A8547
:100670003B681A887B681A857A68104B9A420FD0BB
:100680007A680F4B9A420BD07A68134B9A4207D084
:100690007A68124B9A4203D07A68114B9A4204D17D
:1006A0003B681B7A1A467B681A867B684FF001020A
:1006B0009A8207F11407BD4680BC7047002C0140A8
:1006C000003401400004004000080040000C0040DD
:1006D0000010004000140040004001400044014070
:1006E0000048014080B485B000AF786039604FF0B9
:1006F00000037B814FF00003FB814FF00003BB81BF
:100700007B681B8C9BB223F001039AB27B681A842E
:100710007B681B8CFB817B689B88BB817B681B8B08
:100720007B817B8923F070037B817B8923F003032A
:100730007B813B681A887B8942EA03037B81FB89C2
:1007400023F00203FB813B681A89FB8942EA030319
:10075000FB813B685A88FB8942EA0303FB817A6884
:10076000264B9A420FD07A68254B9A420BD07A6872
:10077000244B9A4207D07A68234B9A4203D07A6876
:10078000224B9A4227D1FB8923F00803FB813B6867
:100790005A89FB8942EA0303FB81FB8923F00403A6
:1007A000FB813B689A88FB8942EA0303FB81BB8992
:1007B00023F48073BB81BB8923F40073BB813B6846
:1007C0009A89BB8942EA0303BB813B68DA89BB890A
:1007D00042EA0303BB817B68BA899A807B687A8985
:1007E0001A833B68DA887B689A867B68FA891A8460
:1007F00007F11407BD4680BC704700BF002C0140C4
:1008000000340140004001400044014000480140E4
:1008100080B485B000AF786039604FF000037B8111
:100820004FF00003FB814FF00003BB817B681B8C02
:100830009BB223F010039AB27B681A847B681B8CEE
:10084000FB817B689B88BB817B681B8B7B817B8961
:1008500023F4E0437B817B8923F440737B813B68F5
:100860001B884FEA03239AB27B8942EA03037B8108
:10087000FB8923F02003FB813B681B894FEA0313AC
:100880009AB2FB8942EA0303FB813B685B884FEA2B
:1008900003139AB2FB8942EA0303FB817A68264B71
:1008A0009A4203D07A68254B9A4233D1FB8923F0D0
:1008B0008003FB813B685B894FEA03139AB2FB8993
:1008C00042EA0303FB81FB8923F04003FB813B6881
:1008D0009B884FEA03139AB2FB8942EA0303FB8128
:1008E000BB8923F48063BB81BB8923F40063BB8194
:1008F0003B689B894FEA83039AB2BB8942EA0303B0
:10090000BB813B68DB894FEA83039AB2BB8942EA29
:100910000303BB817B68BA899A807B687A891A83D2
:100920003B68DA887B681A877B68FA891A8407F142
:100930001407BD4680BC7047002C014000340140C4
:1009400080B483B000AF78607B684FF6FF729A8006
:100950007B684FF000021A807B684FF00002DA805B
:100960007B684FF000025A807B684FF000021A72D9
:1009700007F10C07BD4680BC704700BF80B483B050
:1009800000AF78600B46FB70FB78002B08D07B68CB
:100990001B889BB243F001039AB27B681A8007E080
:1009A0007B681B889BB223F001039AB27B681A8094
:1009B00007F10C07BD4680BC704700BF80B483B010
:1009C00000AF786013460A467A807B707B78002BF4
:1009D00009D07B689B899AB27B8842EA03039AB26A
:1009E0007B689A810BE07B689B899AB27B886FEA6F
:1009F00003039BB202EA03039AB27B689A8107F170
:100A00000C07BD4680BC704780B487B000AFF8606B
:100A100079813A81FB804FF00003FB824FF00003A5
:100A2000BB824FF000037B82FB681B89FB82FB6863
:100A30001B8BBB82FB681B8C7B82FB8A23F007032A
:100A4000FB82FA8A7B8942EA0303FB82BB8A23F496
:100A5000407323F00303BB82BB8A43F4807343F0EB
:100A60000103BB827B8A23F022037B82FB884FEA4F
:100A700003139AB23B8942EA03039AB27B8A42EAA1
:100A800003037B82FB68FA8A1A81FB68BA8A1A839D
:100A9000FB687A8A1A8407F11C07BD4680BC704740
:100AA00080B483B000AF78600B467B807B886FEAB0
:100AB00003039AB27B681A8207F10C07BD4680BC1B
:100AC000704700BF80B483B000AF0346FB71094B91
:100AD00097F907204FEA5212F97901F01F014FF000
:100AE000010000FA01F143F8221007F10C07BD469E
:100AF00080BC704700E100E080B483B000AF0346E3
:100B00003960FB7197F90730002B0DDA0E49FB793C
:100B100003F00F03A3F104033A68D2B24FEA0212C2
:100B2000D2B2CB181A760AE0084997F907303A682A
:100B3000D2B24FEA0212D2B2CB1883F8002307F1E7
:100B40000C07BD4680BC704700ED00E000E100E00E
:100B500080B58AB000AF07F11C031846FFF7F0FE1E
:100B60004FF400733B844FF00003FB8307F11C0339
:100B700042481946FFF736FD40484FF003014FF059
:100B800000024FF00003FFF73FFF3C484FF0010128
:100B9000FFF7F4FE4FF06003BB814FF00103FB81D0
:100BA0004FF4FA737B824FF00203BB8207F10C0310
:100BB00033481946FFF796FD31484FF00001FFF723
:100BC000DDFE4FF03003BB814FF00103FB814FF09E
:100BD0000203BB8207F10C032A481946FFF718FEEF
:100BE0004FF000037B804FF000033B804FF0000389
:100BF000FB804FF000033B72234B1B684FEA53020C
:100C0000224BA3FB02134FEAD3139BB203F1FF3332
:100C10009BB2BB803B461B481946FFF7E3FC1948D3
:100C20004FF00001FFF7AAFE4FF01C004FF0030148
:100C3000FFF762FF4FF01C00FFF744FF45F6BF537C
:100C4000BB834FF47A733B8407F11C034FF0804061
:100C50001946FFF7C7FC4FF080404FF001014FF0FD
:100C60000102FFF7ABFE4FF080404FF00101FFF7AC
:100C700085FE07F12807BD4680BD00BF0004004087
:100C8000002C0140000800400000002055B39B21CB
:100C900080B588B000AF786039607A682A4B9A4294
:100CA00006D14FF400104FF0010100F08FFE05E077
:100CB0004FF480004FF0010100F088FE4FF0080073
:100CC0004FF0010100F060FE78684FF0000102F083
:100CD000C5F9786802F0C2F84FF00003BB823B68A8
:100CE0003B614FF48043BB834BF6FF73FB824FF4B1
:100CF00080637B834FF000033B8378684FF00101F2
:100D000002F0ACF907F110037868194602F0CEF84A
:100D10004FF01C03FB734FF00303BB737A680A4B5D
:100D20009A4203D14FF0C003BB8102E04FF440630D
:100D3000BB8107F10C030548194600F0DFFA07F103
:100D40002007BD4680BD00BF00540040000C01409C
:100D500080B584B000AF7860F970BA703B80786875
:100D60004FF0010102F09AF93B88FB8103E0FB8917
:100D700003F1FF33FB8178682B4902F04BFA0346FD
:100D8000002B02D1FB89002BF1D1FB89002B02D172
:100D90004FF0FD0341E0BB78002B1BD0FB784FEAFE
:100DA0004303DBB2786819464FF0010202F0F4F910
:100DB0003B88FB8103E0FB8903F1FF33FB8178680B
:100DC0001A4902F027FA0346002B1ED1FB89002B9B
:100DD000F1D11AE0FB784FEA4303DBB27868194699
:100DE0004FF0000202F0D8F93B88FB8103E0FB8959
:100DF00003F1FF33FB8178680D4902F00BFA0346DB
:100E0000002B02D1FB89002BF1D1FB89002B02D1F1
:100E10004FF0FF0301E04FF000035BB2184607F10B
:100E20001007BD4680BD00BF0100030002000300A3
:100E30008200070080B584B000AF78600B467B80ED
:100E400078684FF0010102F049F97B88FB8100BF0F
:100E500078680B4902F016FA0346002B02D0FB8992
:100E6000002BF5D1FB89002B02D14FF0FD0301E0EF
:100E70004FF000035BB2184607F11007BD4680BD76
:100E80001000001080B586B000AFF860B960FA803D
:100E9000BB8020E0BB681B78BA6802F10102BA602F
:100EA000F868194602F05AF9BB88FB8203E0FB8A16
:100EB00003F1FF33FB82F868114902F0E3F90346BE
:100EC000002B02D0FB8A002BF1D1FB8A002B02D130
:100ED0004FF0FF030DE0FB88002B0CBF0023012324
:100EE000DBB2FA8802F1FF32FA80002BD2D14FF048
:100EF00000035BB2184607F11807BD4680BD00BF6E
:100F00000400001080B586B000AFF860B960FA80C8
:100F1000BB80F8684FF0010102F000F9FB88012B5B
:100F20002AD1F8684FF0000102F0F8F872B6FB68B9
:100F30001B8BF8684FF0010102F0D0F862B6BB8855
:100F4000FB8203E0FB8A03F1FF33FB82F8687549FB
:100F500002F098F90346002B02D1FB8A002BF1D155
:100F6000F86802F00BF903461A46BB681A70BB68B2
:100F700003F10103BB60BAE0FB88022B3AD1F868A9
:100F80004FF4006102F026F972B6FB681B8BF8681B
:100F90004FF0000102F0C2F862B6BB88FB8203E0AA
:100FA000FB8A03F1FF33FB82F8685F4902F06AF9BC
:100FB0000346002B02D1FB8A002BF1D172B6F868F0
:100FC0004FF0010102F08AF8FB681B8A9BB2DAB28B
:100FD000BB681A70BB6803F10103BB6062B6FB68B3
:100FE0001B8A9BB2DAB2BB681A70BB6803F10103BB
:100FF000BB607CE0FB681B8B1BE0BB88FB8203E0D3
:10100000FB8A03F1FF33FB82F868474902F03AF9A3
:101010000346002B02D1FB8A002BF1D1F86802F0C5
:10102000ADF803461A46BB681A70BB6803F10103AA
:10103000BB60FB88032B0CBF00230123DBB2FA88C3
:1010400002F1FF32FA80002BD7D1BB88FB8203E08C
:10105000FB8A03F1FF33FB82F868334902F012F98F
:101060000346002B02D1FB8A002BF1D172B6F8683F
:1010700002F084F803461A46BB681A70BB6803F195
:101080000103BB60F8684FF0010102F027F862B677
:10109000F86802F073F803461A46BB681A70BB681A
:1010A00003F10103BB60F8684FF0000102F036F86D
:1010B000BB88FB8203E0FB8A03F1FF33FB82F86805
:1010C0001A4902F0A7F80346002B02D1FB8A002B35
:1010D000F1D1F86802F052F803461A46BB681A705C
:1010E000BB6803F10103BB604FF00003FB80BB88CA
:1010F000FB8200BFF8680E4902F0C4F80346002BDB
:1011000002D0FB8A002BF5D1FB8A002B02D14FF0D5
:10111000FD0301E04FF000035BB2184607F118072A
:10112000BD4680BD400000100400001040000300D8
:101130001000001080B500AF174B174A126842F03C
:1011400001021A60144A144B5968144B01EA030354
:101150005360114A104B1B6823F0847323F48033CF
:1011600013600D4B0C4A126822F480221A600A4B5D
:10117000094A526822F4FE025A60074B4FF41F02DC
:101180009A60054B4FF00002DA6200F00BF8044B56
:101190004FF000629A6080BD001002400000FFF82E
:1011A00000ED00E080B500AF00F002F880BD00BFA8
:1011B00080B483B000AF4FF000037B604FF00003BA
:1011C0003B60314B304A126842F480321A602E4B39
:1011D0001B6803F400333B607B6803F101037B6011
:1011E0003B68002B03D17B68B3F5A06FEFD1264B92
:1011F0001B6803F40033002B03D04FF001033B6066
:1012000002E04FF000033B603B68012B37D11E4BDF
:101210001D4A52685A601C4B1B4A52685A601A4B4E
:10122000194A52685A60184B174A526822F47C12C5
:101230005A60154B144A526842F498125A60124B85
:10124000114A126842F080721A6000BF0E4B1B6890
:1012500003F00073002BF9D00B4B0B4A526822F0BD
:1012600003025A60084B084A526842F002025A6070
:1012700000BF054B5B6803F00C03082BF9D107F1A5
:101280000C07BD4680BC70470010024080B582B09C
:1012900000AF134B7B60134B3B600BE07B681A681D
:1012A0003B681A603B6803F104033B607B6803F111
:1012B00004037B603A680C4B9A42EFD30B480C490D
:1012C0004FF000028842B8BF40F8042BFADBFFF76A
:1012D00031FF00F0F3F807F10807BD4680BD00BFFD
:1012E000FC37000800000020280000202800002013
:1012F0005C00002080B400AFFEE700BF80B489B07E
:1013000000AF786039604FF00003FB614FF00003DD
:101310003B614FF00003BB614FF00003FB604FF0F7
:1013200000037B614FF00003BB603B68DB7803F098
:101330000F03FB613B68DB7803F01003002B05D043
:101340003B689B78FA6942EA0303FB613B681B88B0
:1013500003F0FF03002B51D07B681B687B614FF0CB
:101360000003BB6144E0BB694FF0010202FA03F3E2
:10137000FB603B681B881A46FB6802EA03033B617B
:101380003A69FB689A422FD1BB694FEA8303FB603D
:10139000FB684FF00F0202FA03F3BB60BB686FEA11
:1013A00003037A6902EA03037B61FB68FA6902FAC4
:1013B00003F37A6942EA03037B613B68DB78282BFD
:1013C00007D1BB694FF0010202FA03F27B685A6150
:1013D0000AE03B68DB78482B06D1BB694FF001027D
:1013E00002FA03F27B681A61BB6903F10103BB6176
:1013F000BB69072BB7D97B687A691A603B681B8881
:10140000FF2B56D97B685B687B614FF00003BB61A3
:1014100049E0BB6903F108034FF0010202FA03F34C
:10142000FB603B681B881A46FB6802EA03033B61CA
:101430003A69FB689A4232D1BB694FEA8303FB6089
:10144000FB684FF00F0202FA03F3BB60BB686FEA60
:1014500003037A6902EA03037B61FB68FA6902FA13
:1014600003F37A6942EA03037B613B68DB78282B4C
:1014700008D1BB6903F108034FF0010202FA03F23D
:101480007B685A613B68DB78482B08D1BB6903F164
:1014900008034FF0010202FA03F27B681A61BB698C
:1014A00003F10103BB61BB69072BB2D97B687A6981
:1014B0005A6007F12407BD4680BC704780B500AF75
:1014C00000F026F900E000BF02F094F8284B1B78EA
:1014D000002B08D0264B1B78184600F057F8244BF9
:1014E0004FF000021A704FF000004FF0000100F0C2
:1014F000BFFD204B1B79042B17D801A252F823F013
:1015000015150008231500081D1500081D150008F5
:101510001D150008184800F02DFF06E000F09AFAAB
:1015200003E0164800F026FF00BF4FF001004FF027
:10153000000100F09DFD124B1B79042BC3D801A2C2
:1015400052F823F0591500086715000861150008C6
:1015500061150008611500080A4800F00BFF06E05D
:1015600000F0ACFA03E0084800F004FF00BFABE76E
:101570002C000020540000205C3700087037000861
:101580004C000020843700089837000880B582B0EE
:1015900000AF0346FB7112E04FF0010000F020F8AD
:1015A0004FF0C800FEF7F0FF4FF0000000F018F811
:1015B000FB79002B03D04FF0C800FEF7E5FFFB7965
:1015C000002B0CBF00230123DBB2FA7902F1FF32BA
:1015D000FA71002BE0D107F10807BD4680BD00BFBE
:1015E00080B582B000AF0346FB71FB790348194612
:1015F000FFF7C4F907F10807BD4680BD00080040A9
:1016000080B500AF4FF080404FF00101FFF748FA7E
:101610003A4B9B6803F40053002B06D0374B374AF4
:10162000126942F000521A6105E0344B334A1269E4
:1016300042F400521A61324B1B79012B03D0304B1C
:101640001B79002B1AD12F4B1B79012B03D02D4B6B
:101650001B79002B12D12C4B1B8803F101039AB28A
:10166000294B1A80284B1B88B3F5167F0AD9274BC4
:10167000264A126942F000421A6103E0224B4FF001
:1016800000021A801E4B1B79042B03D01C4B1B79C4
:10169000032B10D11A4B1B8803F101039AB2184B8C
:1016A0001A80174B1B88B3F5967F08D9144B4FF05F
:1016B00001021A7103E0124B4FF000021A80114B25
:1016C0001B79042B03D00F4B1B79032B10D10D4B2F
:1016D0001B8803F101039AB20A4B1A80094B1B883D
:1016E000B3F5967F08D9074B4FF001021A7103E05A
:1016F000044B4FF000021A8080BD00BF0010014073
:101700004C000020540000202E000020000C01405E
:1017100080B500AFFFF70EFDFEF74EFFFEF7F6FCBB
:1017200000F09AFC00F010FA01F080F801F040FBA4
:101730004FF0010000F010FC00F0C8FC0F4B0F4A06
:10174000126942F400421A610C4B9B6803F01003CB
:10175000002B14BF00230123DAB2094B1A71094B85
:101760009B6803F40043002B14BF00230123DAB26B
:10177000054B1A71FFF7ECF980BD00BF000C01406A
:1017800054000020000801404C00002080B485B0C7
:1017900000AF78604FF00003FB600A4B5B68FB60B2
:1017A000FB6823F44043FB60FA687B6842EA03036A
:1017B000FB60044BFA685A6007F11407BD4680BC11
:1017C000704700BF0010024080B489B000AF78605D
:1017D0004FF00003FB614FF00003BB614FF00003CB
:1017E0007B614FF000033B614FF00003FB60504B07
:1017F0005B6803F00C03FB61FB69042B07D0082B2B
:1018000009D0002B32D17B684A4A1A6032E07B68EB
:10181000484A1A602EE0464B5B6803F47013BB61C4
:10182000434B5B6803F480337B61BB694FEA9343AE
:1018300003F10203BB617B69002B06D1BB693E4A01
:1018400002FB03F27B681A6014E0394BDB6A03F099
:101850000F0303F10103FB60364AFB68B2FBF3F3AD
:10186000BA6902FB03F27B681A6003E07B68314AC5
:101870001A6000BF2E4B5B6803F0F003FB61FB694D
:101880004FEA1313FB612D4AFB69D3181B78DBB2B7
:101890003B617B681A683B6922FA03F27B685A60F5
:1018A000234B5B6803F4E063FB61FB694FEA13239E
:1018B000FB61224AFB69D3181B78DBB23B617B6872
:1018C0005A683B6922FA03F27B689A60184B5B689E
:1018D00003F46053FB61FB694FEAD323FB61174AB2
:1018E000FB69D3181B78DBB23B617B685A683B69A4
:1018F00022FA03F27B68DA600D4B5B6803F4404325
:10190000FB61FB694FEA9333FB610D4AFB69D31816
:101910001B78DBB23B617B68DA683B69B2FBF3F2B0
:101920007B681A6107F12407BD4680BC704700BF81
:101930000010024000127A0000093D00140000204F
:101940002400002080B483B000AF78600B46FB70A9
:10195000FB78002B07D00B4B0A4A51697A6841EAA1
:1019600002025A6108E0074B064A51697A686FEA39
:10197000020201EA02025A6107F10C07BD4680BC6F
:10198000704700BF0010024080B483B000AF7860A1
:101990000B46FB70FB78002B07D00B4B0A4A916972
:1019A0007A6841EA02029A6108E0074B064A9169A7
:1019B0007A686FEA020201EA02029A6107F10C07F3
:1019C000BD4680BC704700BF0010024080B483B0A9
:1019D00000AF78600B46FB70FB78002B07D00B4BF9
:1019E0000A4AD1697A6841EA0202DA6108E0074BE3
:1019F000064AD1697A686FEA020201EA0202DA61F4
:101A000007F10C07BD4680BC704700BF00100240C4
:101A100080B483B000AF78600B46FB70FB78002B7E
:101A200007D00B4B0A4A11697A6841EA02021A612F
:101A300008E0074B064A11697A686FEA020201EA78
:101A400002021A6107F10C07BD4680BC704700BF57
:101A50000010024080B582B000AF4FF00003FB8061
:101A600000F090FF0346FB80114800F083FC114B0F
:101A70001B88FA889A4204D94FF0010000F058FA06
:101A800003E04FF0140000F053FAFB88184600F012
:101A900025FB4FF0080000F04BFA074800F06AFC05
:101AA000044BFA881A8007F10807BD4680BD00BFC5
:101AB000AC37000832000020B437000880B582B08F
:101AC00000AF4FF00003FB8000F066FF0346FB8091
:101AD000184800F04FFC184B5B79184600F0FEFAEE
:101AE000164800F047FC4FF001004FF00A0100F0EB
:101AF000BFFA134B1B88FA889A4204D94FF00100B1
:101B000000F016FA03E04FF0140000F011FAFB8821
:101B1000184600F0E3FA4FF0080000F009FA09480F
:101B200000F028FC064BFA881A8007F10807BD462A
:101B300080BD00BFB83700084C000020C037000847
:101B400030000020B437000880B582B000AF4FF0FD
:101B500018033B704FF018037B704FF00003BB700D
:101B60004FF00603FB704FF009033B714FF0080381
:101B70007B714FF00903BB714FF00603FB713B46CD
:101B80004FF00000194600F033FC4FF000033B70AB
:101B90004FF004037B704FF00E03BB704FF0150342
:101BA000FB704FF004033B714FF004037B714FF067
:101BB0000403BB714FF00003FB713B464FF0010083
:101BC000194600F015FC07F10807BD4680BD00BFAF
:101BD00080B584B000AF0346FB714FF00003FB7388
:101BE00097F90730002B0FD0524B1B7823F00103DD
:101BF000DAB2504B1A704F4B1B784F484FF0270109
:101C00001A4601F0B3FB0EE04A4B1B7843F0010388
:101C1000DAB2484B1A70474B1B7847484FF0270100
:101C20001A4601F0A3FB434B1B7843F00203DAB2E0
:101C3000404B1A703F4B1B783F484FF027011A4624
:101C400001F094FB3B4B1B7843F00403DAB2394BB1
:101C50001A70384B1B7838484FF027011A4601F0AC
:101C600085FB4FF00500FEF77BFC33484FF0270162
:101C700001F046FB03464FEA1313DBB24FEA0313AE
:101C8000FB732C4B1B7823F00403DAB2294B1A7038
:101C9000284B1B7828484FF027011A4601F066FBB5
:101CA0004FF00500FEF75CFC224B1B7843F0040369
:101CB000DAB2204B1A701F4B1B781F484FF02701D8
:101CC0001A4601F053FB4FF00500FEF749FC1A4895
:101CD0004FF0270101F014FB03464FEA1313DBB268
:101CE000DAB2FB7B42EA0303DBB2FB73114B1B78D6
:101CF00023F00403DAB20F4B1A700E4B1B780E4818
:101D00004FF027011A4601F031FB0A4B1B7823F0F4
:101D10000203DAB2074B1A70064B1B7806484FF0E5
:101D200027011A4601F022FBFB7B184607F110073A
:101D3000BD4680BD340000200058004080B582B010
:101D400000AF02460B46FA71BB7197F90630002BC3
:101D50000FD05A4B1B7823F00103DAB2574B1A709D
:101D6000564B1B7856484FF027011A4601F0FEFAF1
:101D70000EE0524B1B7843F00103DAB24F4B1A705E
:101D80004E4B1B784E484FF027011A4601F0EEFAF1
:101D90004A4B1B7803F00F03DAB2484B1A70FB79F9
:101DA0004FEA1313DBB24FEA0313DAB2434B1B784B
:101DB000DBB242EA0303DBB2DAB2404B1A703F4BAC
:101DC0001B783F484FF027011A4601F0CFFA3B4BF2
:101DD0001B7843F00403DAB2384B1A70374B1B7888
:101DE00037484FF027011A4601F0C0FA4FF00500BE
:101DF000FEF7B6FB314B1B7823F00403DAB22F4B0E
:101E00001A702E4B1B782E484FF027011A4601F00E
:101E1000ADFA4FF00500FEF7A3FB284B1B7803F04B
:101E20000F03DAB2254B1A70FB794FEA0313DAB2CB
:101E3000224B1B78DBB242EA0303DBB2DAB21F4B60
:101E40001A701E4B1B781E484FF027011A4601F0EE
:101E50008DFA1A4B1B7843F00403DAB2174B1A7051
:101E6000164B1B7816484FF027011A4601F07EFAF0
:101E70004FF00500FEF774FB104B1B7823F00403B2
:101E8000DAB20E4B1A700D4B1B780D484FF027013C
:101E90001A4601F06BFA094B1B7863F00F03DAB2B4
:101EA000064B1A70054B1B7805484FF027011A4660
:101EB00001F05CFA07F10807BD4680BD3400002040
:101EC0000058004080B582B000AF0346FB7103E0CC
:101ED000FB7903F1FF33FB714FF00100FFF778FE50
:101EE0000346DBB25BB2002B02DAFB79002BEFD1A9
:101EF000FB79002B14BF00230123DBB2184607F146
:101F00000807BD4680BD00BF80B582B000AF034664
:101F1000FB714FF06400FFF7D5FFFB7918464FF0D7
:101F20000101FFF70BFF07F10807BD4680BD00BFA9
:101F300080B582B000AF0346FB714FF06400FFF73D
:101F4000C1FFFB7918464FF00001FFF7F7FE07F1DC
:101F50000807BD4680BD00BF80B582B000AF034614
:101F6000FB71FB79002B0FD0114B1B7843F008035A
:101F7000DAB20F4B1A700E4B1B780E484FF0270148
:101F80001A4601F0F3F90EE0094B1B7823F0080321
:101F9000DAB2074B1A70064B1B7806484FF0270140
:101FA0001A4601F0E3F907F10807BD4680BD00BFFE
:101FB000340000200058004080B500AF014801F017
:101FC00015FA80BD0058004080B582B000AF4FF0D8
:101FD0000F00FEF7C5FA4FF03000FFF795FF4FF006
:101FE0000500FEF7BDFA4FF03000FFF78DFF4FF010
:101FF0000100FEF7B5FA4FF03000FFF785FF4FF014
:102000000100FEF7ADFA4FF00200FFF77DFF4FF041
:102010002003FB71FB7943F00803FB71FB79184641
:10202000FFF772FF4FF00A00FEF79AFA4FF00C002C
:10203000FFF76AFF4FF00A00FEF792FA4FF0060032
:10204000FFF762FF4FF00A00FEF78AFA00F03EF851
:1020500007F10807BD4680BD80B500AFFFF7ACFFB4
:102060004FF06400FEF790FAFFF7AEFF80BD00BFAF
:1020700080B584B000AF02460B46FA71BB714FF0D9
:102080000003FB73FB7903F00103DBB2002B02D0EA
:102090004FF04003FB73FB79012B03D9FB7B03F16A
:1020A0001003FB73FA7BBB79D318FB73FB7B63F0E4
:1020B0007F03DBB21846FFF727FF034BFA791A704C
:1020C00007F11007BD4680BD3500002080B500AF88
:1020D0004FF00100FFF718FF80BD00BF80B582B050
:1020E00000AF0346FB80FB88092B05D8FB88DBB2D9
:1020F000184600F02DF916E0FB88632B05D8FB8805
:10210000DBB2184600F0DCF80DE0FA8840F2E73365
:102110009A4204D8FB88184600F07CF803E0FB885C
:10212000184600F005F807F10807BD4680BD00BF5E
:1021300080B584B000AF0346FB80FB88314AA2FB28
:1021400003124FEA92124FF47A7101FB02F29B1ACA
:10215000FB81FA882B4BA3FB02134FEA93139BB22C
:1021600003F00F03284AD35C1846FFF7E1FEFA8913
:10217000264BA3FB02134FEA53139BB203F00F034A
:10218000214AD35C1846FFF7D3FEFB891F4AA2FB06
:1021900003124FEA52124FF0640101FB02F29B1A44
:1021A0009AB21B4BA3FB02134FEAD3039BB203F07B
:1021B0000F03154AD35C1846FFF7BAFEFB89134A92
:1021C000A2FB03124FEA52124FF0640101FB02F22C
:1021D0009B1A9AB20E4BA3FB02134FEAD3010B4694
:1021E0004FEA83035B184FEA4303D31A9BB203F011
:1021F0000F03054AD35C1846FFF79AFE07F1100754
:10220000BD4680BDD34D6210E83700081F85EB51F5
:10221000CDCCCCCC80B582B000AF0346FB80FA8831
:10222000244BA3FB02134FEA53139BB203F00F039B
:10223000214AD35C1846FFF77BFEFB881D4AA2FBB0
:1022400003124FEA52124FF0640101FB02F29B1A93
:102250009AB21A4BA3FB02134FEAD3039BB203F0CB
:102260000F03154AD35C1846FFF762FEFB88114A3C
:10227000A2FB03124FEA52124FF0640101FB02F27B
:102280009B1A9AB20D4BA3FB02134FEAD3010B46E4
:102290004FEA83035B184FEA4303D31A9BB203F060
:1022A0000F03054AD35C1846FFF742FE07F1080703
:1022B000BD4680BD1F85EB51E8370008CDCCCCCCA6
:1022C00080B582B000AF0346FB71FB791D4AA2FBCB
:1022D00003124FEA52124FF0640101FB02F29B1A03
:1022E000DAB2194BA3FB02134FEAD303DBB203F0BC
:1022F0000F03164AD35C1846FFF71AFEFB79114A02
:10230000A2FB03124FEA52124FF0640101FB02F2EA
:102310009B1ADAB20C4BA3FB02134FEAD3010B4614
:102320004FEA83035B184FEA4303D31ADBB203F08F
:102330000F03064AD35C1846FFF7FAFD07F10807BA
:10234000BD4680BD1F85EB51CDCCCCCCE837000815
:1023500080B582B000AF0346FB71FB79044AD35CC1
:102360001846FFF7E5FD07F10807BD4680BD00BF31
:10237000E837000880B584B000AF78602EE07B6855
:102380001B78092B10D00A2B1ED1184B1B7803F198
:102390000103DAB2154B1A70144B1B7818464FF034
:1023A0000001FFF765FE15E04FF00003FB7307E047
:1023B0004FF02000FFF7BCFDFB7B03F10103FB7333
:1023C000FB7B032BF4D905E07B681B781846FFF7ED
:1023D000AFFD00BF7B6803F101037B607B681B7866
:1023E000002BCCD107F11007BD4680BD3500002081
:1023F00080B584B000AF03463960FB71FB794FEACA
:10240000C303DBB2DBB243F04003DBB2DBB21846FE
:10241000FFF77AFD4FF00003FB730AE0FB7B3A689D
:10242000D3181B781846FFF783FDFB7B03F10103EC
:10243000FB73FB7B072BF1D94FF08000FFF764FDA6
:1024400007F11007BD4680BD80B485B000AF78604D
:1024500039604FF00003FB604FF00003FB727B68B4
:102460005B68FB60FB6823F4702323F48073FB60DC
:102470003B681A683B681B794FEA032342EA03036F
:10248000FA6842EA0303FB607B68FA685A607B687B
:102490009B68FB60FA681A4B02EA0303FB603B6827
:1024A000DA683B689B681A433B685B794FEA4303F1
:1024B00042EA0303FA6842EA0303FB607B68FA68B6
:1024C0009A607B68DB6AFB60FB6823F47003FB6047
:1024D0003B681B7C03F1FF33DAB2FB7A42EA030369
:1024E000FB72FB7A4FEA0353FA6842EA0303FB608C
:1024F0007B68FA68DA6207F11407BD4680BC704752
:10250000FDF7F1FF80B483B000AF78600B46FB703D
:10251000FB78002B06D07B689B6843F001027B6848
:102520009A6005E07B689B6823F001027B689A60F3
:1025300007F10C07BD4680BC704700BF80B483B074
:1025400000AF78600B46FB70FB78002B06D07B68F1
:102550009B6843F480727B689A6005E07B689B68A7
:1025600023F480727B689A6007F10C07BD4680BC3B
:10257000704700BF80B483B000AF78607B689B6811
:1025800043F008027B689A6007F10C07BD4680BCE7
:10259000704700BF80B485B000AF78604FF0000393
:1025A000FB737B689B6803F00803002B03D04FF09C
:1025B0000103FB7302E04FF00003FB73FB7B184643
:1025C00007F11407BD4680BC704700BF80B483B0DC
:1025D00000AF78607B689B6843F004027B689A6078
:1025E00007F10C07BD4680BC704700BF80B485B0C2
:1025F00000AF78604FF00003FB737B689B6803F0CB
:102600000403002B03D04FF00103FB7302E04FF0F3
:102610000003FB73FB7B184607F11407BD4680BC23
:10262000704700BF80B483B000AF78600B46FB708A
:10263000FB78002B06D07B689B6843F4A0027B6884
:102640009A6005E07B689B6823F4A0027B689A602F
:1026500007F10C07BD4680BC704700BF80B485B051
:1026600000AF7860F970BA707B704FF00003FB60C8
:102670004FF00003BB60FB78092B29D97B68DB682E
:10268000FB60FA7813464FEA43039B18A3F11E033D
:102690004FF0070202FA03F3BB60BB686FEA030363
:1026A000FA6802EA0303FB607978FA7813464FEA86
:1026B00043039B18A3F11E0301FA03F3BB60FA68FE
:1026C000BB6842EA0303FB607B68FA68DA6024E0D7
:1026D0007B681B69FB60FA7813464FEA43039B183B
:1026E0004FF0070202FA03F3BB60BB686FEA030313
:1026F000FA6802EA0303FB607978FA7813464FEA36
:1027000043039B1801FA03F3BB60FA68BB6842EA13
:102710000303FB607B68FA681A61BB78062B29D833
:102720007B685B6BFB60BB7803F1FF3213464FEABB
:1027300083039B184FF01F0202FA03F3BB60BB68D0
:102740006FEA0303FA6802EA0303FB60F978BB78D7
:1027500003F1FF3213464FEA83039B1801FA03F398
:10276000BB60FA68BB6842EA0303FB607B68FA68F7
:102770005A6355E0BB780C2B29D87B681B6BFB6038
:10278000BA7813464FEA83039B18A3F123034FF053
:102790001F0202FA03F3BB60BB686FEA0303FA6827
:1027A00002EA0303FB60F978BA7813464FEA830321
:1027B0009B18A3F1230301FA03F3BB60FA68BB681B
:1027C00042EA0303FB607B68FA681A6328E07B68CF
:1027D000DB6AFB60BA7813464FEA83039B18A3F1C8
:1027E00041034FF01F0202FA03F3BB60BB686FEABC
:1027F0000303FA6802EA0303FB60F978BA78134628
:102800004FEA83039B18A3F1410301FA03F3BB6072
:10281000FA68BB6842EA0303FB607B68FA68DA6225
:1028200007F11407BD4680BC704700BF80B592B069
:1028300000AF4FF44040FEF7A9FF4FF001004FF00A
:102840000101FFF77FF84FF400704FF00101FFF72F
:102850009BF8434800F0E2F8424BBB61424BFB61FE
:102860004FF000033B624FF003037B624FF0000325
:10287000BB624FF08003FB624FF480733B634FF405
:1028800080637B634FF02003BB634FF40053FB6313
:102890004FF000033B6407F118033148194600F07C
:1028A0007DF92F484FF0010100F0BAF94FF0000315
:1028B0007B604FF001033B724FF001037B724FF4DA
:1028C0006023FB604FF000033B614FF003033B7557
:1028D00007F1040325481946FFF7B6FD4FF0000342
:1028E00087F8473010E097F8472097F847301F489F
:1028F00011461A464FF00703FFF7B0FE97F847302E
:1029000003F1010387F8473097F84730022BEAD9E3
:1029100016484FF00101FFF711FE14484FF0010176
:10292000FFF7F0FD1148FFF725FE00BF0F48FFF746
:1029300031FE0346002BF9D10C48FFF747FE00BFDC
:102940000A48FFF753FE0346002BF9D107484FF022
:102950000101FFF767FE07F14807BD4680BD00BFD4
:10296000080002404C2401403800002000240140AF
:1029700080B500AF4FF0000000F018F8034618468D
:1029800080BD00BF80B500AF4FF0020000F00EF830
:102990000346184680BD00BF80B500AF4FF0010070
:1029A00000F004F80346184680BD00BF80B483B031
:1029B00000AF0346FB71FA79164B33F812309BB225
:1029C0001A46F979144B33F8113003F132039A4265
:1029D0000CDCFA79104B33F81230A3F13202F9799A
:1029E0000C4B33F811309BB29A4208DDFA79F97931
:1029F000084B33F8113099B2074B23F81210FA79CB
:102A0000054B33F81230184607F10C07BD4680BC61
:102A1000704700BF380000204000002080B483B021
:102A200000AF78607B681A684FF6FE7302EA030312
:102A30007A6813607B684FF000021A607B684FF081
:102A400000025A607B684FF000029A607B684FF08A
:102A50000002DA607A68434B9A4206D1424B424AFE
:102A6000526842F00F025A6077E07A683F4B9A4210
:102A700006D13D4B3C4A526842F0F0025A606CE08D
:102A80007A683B4B9A4206D1374B374A526842F438
:102A900070625A6061E07A68364B9A4206D1324BD6
:102AA000314A526842F470425A6056E07A68324BBA
:102AB0009A4206D12C4B2C4A526842F470225A603A
:102AC0004BE07A682D4B9A4206D1274B264A526832
:102AD00042F470025A6040E07A68294B9A4206D16B
:102AE000214B214A526842F070625A6035E07A68A0
:102AF000244B9A4206D1244B234A526842F00F02DB
:102B00005A602AE07A68214B9A4206D11E4B1E4A2F
:102B1000526842F0F0025A601FE07A681C4B9A42F9
:102B200006D1194B184A526842F470625A6014E098
:102B30007A68184B9A4206D1134B134A526842F4F2
:102B400070425A6009E07A68134B9A4205D10E4BE5
:102B50000D4A526842F470225A6007F10C07BD46D4
:102B600080BC704708000240000002401C00024088
:102B70003000024044000240580002406C00024015
:102B80008000024008040240000402401C0402408D
:102B900030040240440402405804024080B485B02E
:102BA00000AF786039604FF00003FB607B681B6802
:102BB000FB60FB6823F4FE4323F0F003FB603B68FB
:102BC0009A683B681B6A1A433B681B691A433B6857
:102BD0005B691A433B689B691A433B68DB691A438C
:102BE0003B685B6A1A433B689B6A42EA0303FA68E4
:102BF00042EA0303FB607B68FA681A603B68DA68A4
:102C00007B685A603B681A687B689A603B685A68C0
:102C10007B68DA6007F11407BD4680BC704700BFCF
:102C200080B483B000AF78600B46FB70FB78002B5C
:102C300006D07B681B6843F001027B681A6007E0DE
:102C40007B681A684FF6FE7302EA03037A68136022
:102C500007F10C07BD4680BC704700BF80B483B04D
:102C600000AF0346FB71094B97F907204FEA521258
:102C7000F97901F01F014FF0010000FA01F143F86A
:102C8000221007F10C07BD4680BC704700E100E050
:102C900080B483B000AF03463960FB7197F9073009
:102CA000002B0DDA0E49FB7903F00F03A3F10403A7
:102CB0003A68D2B24FEA0212D2B2CB181A760AE0C0
:102CC000084997F907303A68D2B24FEA0212D2B2F5
:102CD000CB1883F8002307F10C07BD4680BC704772
:102CE00000ED00E000E100E080B500AF144B5B694F
:102CF00003F02003002B01D0AFF30080104B5B6981
:102D000003F04003002B01D0AFF300800C4B5B6954
:102D100003F08003002B01D0AFF30080084B5B6908
:102D200003F48073002B01D0AFF30080044B5B6988
:102D300003F40073002B01D0AFF3008080BD00BF0F
:102D40000004014080B500AF184B5B6903F4806359
:102D5000002B01D0AFF30080144B5B6903F40063D8
:102D6000002B01D0AFF30080104B5B6903F480535C
:102D7000002B01D0AFF300800C4B5B6903F40053D0
:102D8000002B01D0AFF30080084B5B6903F4804354
:102D9000002B01D0AFF30080044B5B6903F40043C8
:102DA000002B01D000F096FB80BD00BF0004014065
:102DB00080B500AF214B214A526922F470425A611A
:102DC0001F4B4FF001021A601E4B4FF001021A60B8
:102DD0004FF028004FF00F01FFF75AFF4FF0280087
:102DE000FFF73CFF184B4FF400425A61174B4FF06E
:102DF00001021A60114B114AD26822F00F0242F010
:102E00000102DA60124B4FF001021A60114B4FF0D1
:102E100001021A604FF00A004FF00F01FFF738FF70
:102E20004FF00A00FFF71AFF074B4FF010025A61EC
:102E3000094B4FF001021A6080BD00BF0000014045
:102E4000BC8120423C812042000401403C80204261
:102E500090812042108120421080204280B582B0B3
:102E600000AF78607A68104B9A420CD14FF4001092
:102E70004FF00101FEF7CCFD4FF400104FF00001C0
:102E8000FEF7C6FD0BE04FF480004FF00101FEF7A6
:102E9000BFFD4FF480004FF00001FEF7B9FD07F1D0
:102EA0000807BD4680BD00BF0054004080B58AB011
:102EB00000AF786039604FF00003FB844FF00003EF
:102EC0007B844FF00403BB84604BFB617B689B8871
:102ED000FB84FB8C23F03F03FB8407F108031846B7
:102EE000FEF772FC3B69FB61FA69594BA3FB0213C5
:102EF0004FEA93437B84FA8C7B8C42EA0303FB8486
:102F00007B68FA8C9A807B681B889BB223F0010354
:102F10009AB27B681A804FF00003FB843B681A6802
:102F20004C4B9A4219D83B681B684FEA4303FA6935
:102F3000B2FBF3F3BB84BB8C032B02D84FF004032A
:102F4000BB84FA8CBB8C42EA0303FB847B8C03F1C9
:102F500001039AB27B681A8449E03B68DA884BF631
:102F6000FF739A420AD13B681A6813464FEA43033B
:102F70009B18FA69B2FBF3F3BB8410E03B681A6854
:102F800013464FEA83039B184FEA83029B18FA69A2
:102F9000B2FBF3F3BB84BB8C43F48043BB84BB8C98
:102FA0004FEA03534FEA1353002B03D1BB8C43F07A
:102FB0000103BB84BA8CFB8C42EA03039BB26FEA29
:102FC00043436FEA5343FB847B8C4FF4967202FBBE
:102FD00003F3214A82FB03124FEAA2124FEAE37382
:102FE000D31A9BB203F101039AB27B681A847B68FF
:102FF000FA8C9A837B681B889BB243F001039AB2D8
:103000007B681A807B681B88FB84FB8C23F48063BD
:1030100023F00A03FB843B689A883B685B8942EA99
:1030200003039AB2FB8C42EA0303FB847B68FA8CAD
:103030001A803B689A893B681B8942EA03039AB26B
:103040007B681A8107F12807BD4680BD00127A000F
:1030500083DE1B43A0860100D34D621080B483B091
:1030600000AF78600B46FB70FB78002B08D07B68C4
:103070001B889BB243F001039AB27B681A8007E079
:103080007B681B889BB223F001039AB27B681A808D
:1030900007F10C07BD4680BC704700BF80B483B009
:1030A00000AF78600B46FB70FB78002B08D07B6884
:1030B0001B889BB243F480739AB27B681A8007E046
:1030C0007B681B889BB223F480739AB27B681A805A
:1030D00007F10C07BD4680BC704700BF80B483B0C9
:1030E00000AF78600B46FB70FB78002B08D07B6844
:1030F0001B889BB243F400739AB27B681A8007E086
:103100007B681B889BB223F400739AB27B681A8099
:1031100007F10C07BD4680BC704700BF80B483B088
:1031200000AF78600B46FB70FB78002B08D07B6803
:103130001B889BB243F480639AB27B681A8007E0D5
:103140007B681B889BB223F480639AB27B681A80E9
:1031500007F10C07BD4680BC704700BF80B483B048
:1031600000AF78600B46FB70FB789AB27B681A82DE
:1031700007F10C07BD4680BC704700BF80B483B028
:1031800000AF78607B681B8A9BB2DBB2184607F100
:103190000C07BD4680BC704780B483B000AF786038
:1031A00013460A46FA70BB70BB78002B04D0FB783C
:1031B00043F00103FB7003E0FB7823F00103FB7095
:1031C000FB789AB27B681A8207F10C07BD4680BC77
:1031D000704700BF80B483B000AF78600B467B803F
:1031E0007B88B3F5006F08D17B681B889BB243F4E2
:1031F00000639AB27B681A8007E07B681B889BB2E9
:1032000023F400639AB27B681A8007F10C07BD466D
:1032100080BC704780B487B000AF786039604FF0F1
:1032200000033B614FF00003FB604FF00003BB6005
:103230004FF00003FB757B689B8A9BB2FB607B6849
:103240001B8B9BB2BB60BB684FEA0343BB60FA6851
:10325000BB6842EA030323F07F433B613A693B6862
:103260001A403B689A4203D14FF00103FB7502E01C
:103270004FF00003FB75FB7D184607F11C07BD46A8
:1032800080BC704780B487B000AF786039604FF081
:103290000003FB754FF000033B614FF00003FB6040
:1032A0007B68FB603B684FEA13733B613B6823F02C
:1032B0007F433B603B69002B04D0FB6803F11403A0
:1032C000FB6007E03B684FEA13433B60FB6803F198
:1032D0001803FB60FB681A683B6802EA0303002BD3
:1032E00003D04FF00103FB7502E04FF00003FB75C4
:1032F000FB7D184607F11C07BD4680BC704700BF28
:1033000080B584B000AF78600B46FB704FF00003CF
:10331000FB73FB78786819464FF001024FF06403A5
:10332000FDF716FD0346002B0AD078684FF06401C4
:10333000FDF780FD786800F059F84FF0000310E0C9
:1033400007F10F03786819464FF001024FF064034C
:10335000FDF7D8FD0346002B02D04FF0000300E03C
:10336000FB7B184607F11007BD4680BD80B584B0D1
:1033700000AF786013460A46FA70BB70FB78786835
:1033800019464FF000024FF06403FDF7E1FC0346DD
:10339000FB7397F90F30002B09D078684FF0640168
:1033A000FDF748FD786800F021F8FB7B18E007F195
:1033B0000203786819464FF001024FF06403FDF7ED
:1033C00061FD0346FB7378684FF06401FDF732FD41
:1033D00097F90F30002B01D0FB7B01E04FF0000389
:1033E000184607F11007BD4680BD00BF80B582B00A
:1033F00000AF786078680349FDF74AFC07F10807D9
:10340000BD4680BDE093040080B483B000AF0346A6
:10341000FB71094B97F907204FEA5212F97901F035
:103420001F014FF0010000FA01F143F8221007F1EB
:103430000C07BD4680BC704700E100E080B483B05B
:1034400000AF0346FB710A4B97F907204FEA52126F
:10345000F97901F01F014FF0010000FA01F102F1CA
:10346000200243F8221007F10C07BD4680BC7047CC
:1034700000E100E080B582B000AFFFF779FA0346C3
:10348000FB80FA8840F277539A4202D84FF001034A
:103490001BE0FA8840F2DC539A4207D9FA8840F2DE
:1034A000A3639A4202D84FF002030EE0FA8840F27A
:1034B0006C739A4207D9FA8840F2CF739A4202D8C5
:1034C0004FF0030301E04FF00003184607F108072F
:1034D000BD4680BD80B500AF4FF02800FFF7AEFFBE
:1034E0001B4B4FF400425A611A4B4FF000021A80F6
:1034F000194B9B6803F40043002B17D1174B1B7922
:10350000012B03D0164B4FF001021A70134B1B799D
:10351000002B03D0114B1B79012B02D14FF001037B
:1035200001E04FF003030D4A13710BE00B4B1B79C5
:10353000042B03D0094B1B79032B03D1074B4FF00E
:1035400002021A714FF02800FFF75EFF80BD00BF36
:10355000000401402E000020000801404C00002023
:103560002C00002080B500AF4FF00A00FFF766FF87
:103570001B4B4FF010025A611A4B4FF000021A8099
:10358000194B9B6803F01003002B17D1174B1B79C5
:10359000012B03D0164B4FF001021A70134B1B790D
:1035A000002B03D0114B1B79012B02D14FF00103EB
:1035B00001E04FF003030D4A13710BE00B4B1B7935
:1035C000042B03D0094B1B79032B03D1074B4FF07E
:1035D00002021A714FF00A00FFF716FF80BD00BF0C
:1035E000000401402E000020000C01405400002087
:1035F0002C00002080B582B000AF4FF00003FB71BB
:10360000FFF738FF0346032B00F2958001A252F822
:1036100023F000BF21370008C9360008253600080E
:1036200077360008464B4FF000021A80454B1B7856
:10363000002B7BD1444B1B79022B03D0424B1B79CF
:10364000042B04D1404B4FF001021A710EE03F4BA6
:103650009B6803F01003002B04D13B4B4FF0040296
:103660001A7103E0384B4FF002021A71354B4FF0DC
:1036700001021A705FE0324B4FF000021A80314BAA
:103680001B78002B54D1324B1B79022B03D0304BCB
:103690001B79042B04D12E4B4FF001021A710EE05E
:1036A0002C4B9B6803F40043002B04D1284B4FF0B4
:1036B00004021A7103E0264B4FF002021A71214BEB
:1036C0004FF001021A7036E01D4B4FF000021A80D5
:1036D0001C4B1B78002B2DD1FB79012B0BD0022B1F
:1036E00011D0002B17D14FF00103FB711A4B184A70
:1036F00052799A840FE04FF00203FB71164B144A83
:1037000052889A8407E04FF00003FB71124B0E4A77
:1037100052889A8400BF0B4B4FF001021A700AE0E6
:10372000084B4FF000021A7000BF04E000BF02E037
:1037300000BF00E000BF07F10807BD4680BD00BF25
:103740002E0000204800002054000020000C014002
:103750004C0000200008014000040040536C64202D
:103760006973206F7574207374616E6400000000CB
:10377000536C643A203D6F66663D20202020202057
:103780002000000046656E206973206F75742073F9
:1037900074616E640000000046656E3A203D6F66FD
:1037A000663D20202020202020000000536C643A39
:1037B000207420002020200046656E3A2000000082
:1037C0002520202000000000536F6C646572207378
:1037D000746174696F6E000044726F766F73656B0D
:1037E0006F762E6E657400003031323334353637E3
:0C37F00038394142434445462E00000099
:1037FC0000366E010000000000000000010203040E
:10380C00060708090000000001020304010203047A
:08381C00060708090204060872
:0400000508000000EF
:00000001FF
